{
	"contracts/ERC20.sol": {
		"MyToken": {
			"abi": [
				{
					"inputs": [
						{
							"internalType": "address",
							"name": "new_admin",
							"type": "address"
						},
						{
							"internalType": "uint256",
							"name": "initialSupply",
							"type": "uint256"
						}
					],
					"stateMutability": "nonpayable",
					"type": "constructor"
				},
				{
					"anonymous": false,
					"inputs": [
						{
							"indexed": true,
							"internalType": "address",
							"name": "owner",
							"type": "address"
						},
						{
							"indexed": true,
							"internalType": "address",
							"name": "spender",
							"type": "address"
						},
						{
							"indexed": false,
							"internalType": "uint256",
							"name": "value",
							"type": "uint256"
						}
					],
					"name": "Approval",
					"type": "event"
				},
				{
					"anonymous": false,
					"inputs": [
						{
							"indexed": true,
							"internalType": "address",
							"name": "previousOwner",
							"type": "address"
						},
						{
							"indexed": true,
							"internalType": "address",
							"name": "newOwner",
							"type": "address"
						}
					],
					"name": "OwnershipTransferred",
					"type": "event"
				},
				{
					"anonymous": false,
					"inputs": [
						{
							"indexed": true,
							"internalType": "address",
							"name": "from",
							"type": "address"
						},
						{
							"indexed": true,
							"internalType": "address",
							"name": "to",
							"type": "address"
						},
						{
							"indexed": false,
							"internalType": "uint256",
							"name": "value",
							"type": "uint256"
						}
					],
					"name": "Transfer",
					"type": "event"
				},
				{
					"inputs": [
						{
							"internalType": "address",
							"name": "owner",
							"type": "address"
						},
						{
							"internalType": "address",
							"name": "spender",
							"type": "address"
						}
					],
					"name": "allowance",
					"outputs": [
						{
							"internalType": "uint256",
							"name": "",
							"type": "uint256"
						}
					],
					"stateMutability": "view",
					"type": "function"
				},
				{
					"inputs": [
						{
							"internalType": "address",
							"name": "spender",
							"type": "address"
						},
						{
							"internalType": "uint256",
							"name": "amount",
							"type": "uint256"
						}
					],
					"name": "approve",
					"outputs": [
						{
							"internalType": "bool",
							"name": "",
							"type": "bool"
						}
					],
					"stateMutability": "nonpayable",
					"type": "function"
				},
				{
					"inputs": [
						{
							"internalType": "address",
							"name": "account",
							"type": "address"
						}
					],
					"name": "balanceOf",
					"outputs": [
						{
							"internalType": "uint256",
							"name": "",
							"type": "uint256"
						}
					],
					"stateMutability": "view",
					"type": "function"
				},
				{
					"inputs": [
						{
							"internalType": "uint256",
							"name": "amountTobuy",
							"type": "uint256"
						}
					],
					"name": "buyTokens",
					"outputs": [],
					"stateMutability": "payable",
					"type": "function"
				},
				{
					"inputs": [],
					"name": "decimals",
					"outputs": [
						{
							"internalType": "uint8",
							"name": "",
							"type": "uint8"
						}
					],
					"stateMutability": "view",
					"type": "function"
				},
				{
					"inputs": [
						{
							"internalType": "address",
							"name": "spender",
							"type": "address"
						},
						{
							"internalType": "uint256",
							"name": "subtractedValue",
							"type": "uint256"
						}
					],
					"name": "decreaseAllowance",
					"outputs": [
						{
							"internalType": "bool",
							"name": "",
							"type": "bool"
						}
					],
					"stateMutability": "nonpayable",
					"type": "function"
				},
				{
					"inputs": [
						{
							"internalType": "address",
							"name": "spender",
							"type": "address"
						},
						{
							"internalType": "uint256",
							"name": "addedValue",
							"type": "uint256"
						}
					],
					"name": "increaseAllowance",
					"outputs": [
						{
							"internalType": "bool",
							"name": "",
							"type": "bool"
						}
					],
					"stateMutability": "nonpayable",
					"type": "function"
				},
				{
					"inputs": [],
					"name": "name",
					"outputs": [
						{
							"internalType": "string",
							"name": "",
							"type": "string"
						}
					],
					"stateMutability": "view",
					"type": "function"
				},
				{
					"inputs": [],
					"name": "owner",
					"outputs": [
						{
							"internalType": "address",
							"name": "",
							"type": "address"
						}
					],
					"stateMutability": "view",
					"type": "function"
				},
				{
					"inputs": [],
					"name": "renounceOwnership",
					"outputs": [],
					"stateMutability": "nonpayable",
					"type": "function"
				},
				{
					"inputs": [
						{
							"internalType": "uint256",
							"name": "amount",
							"type": "uint256"
						}
					],
					"name": "sellTokens",
					"outputs": [],
					"stateMutability": "nonpayable",
					"type": "function"
				},
				{
					"inputs": [],
					"name": "symbol",
					"outputs": [
						{
							"internalType": "string",
							"name": "",
							"type": "string"
						}
					],
					"stateMutability": "view",
					"type": "function"
				},
				{
					"inputs": [],
					"name": "totalSupply",
					"outputs": [
						{
							"internalType": "uint256",
							"name": "",
							"type": "uint256"
						}
					],
					"stateMutability": "view",
					"type": "function"
				},
				{
					"inputs": [
						{
							"internalType": "address",
							"name": "to",
							"type": "address"
						},
						{
							"internalType": "uint256",
							"name": "amount",
							"type": "uint256"
						}
					],
					"name": "transfer",
					"outputs": [
						{
							"internalType": "bool",
							"name": "",
							"type": "bool"
						}
					],
					"stateMutability": "nonpayable",
					"type": "function"
				},
				{
					"inputs": [
						{
							"internalType": "address",
							"name": "from",
							"type": "address"
						},
						{
							"internalType": "address",
							"name": "to",
							"type": "address"
						},
						{
							"internalType": "uint256",
							"name": "amount",
							"type": "uint256"
						}
					],
					"name": "transferFrom",
					"outputs": [
						{
							"internalType": "bool",
							"name": "",
							"type": "bool"
						}
					],
					"stateMutability": "nonpayable",
					"type": "function"
				},
				{
					"inputs": [
						{
							"internalType": "address",
							"name": "newOwner",
							"type": "address"
						}
					],
					"name": "transferOwnership",
					"outputs": [],
					"stateMutability": "nonpayable",
					"type": "function"
				}
			],
			"devdoc": {
				"events": {
					"Approval(address,address,uint256)": {
						"details": "Emitted when the allowance of a `spender` for an `owner` is set by a call to {approve}. `value` is the new allowance."
					},
					"Transfer(address,address,uint256)": {
						"details": "Emitted when `value` tokens are moved from one account (`from`) to another (`to`). Note that `value` may be zero."
					}
				},
				"kind": "dev",
				"methods": {
					"allowance(address,address)": {
						"details": "See {IERC20-allowance}."
					},
					"approve(address,uint256)": {
						"details": "See {IERC20-approve}. NOTE: If `amount` is the maximum `uint256`, the allowance is not updated on `transferFrom`. This is semantically equivalent to an infinite approval. Requirements: - `spender` cannot be the zero address."
					},
					"balanceOf(address)": {
						"details": "See {IERC20-balanceOf}."
					},
					"decimals()": {
						"details": "Returns the number of decimals used to get its user representation. For example, if `decimals` equals `2`, a balance of `505` tokens should be displayed to a user as `5.05` (`505 / 10 ** 2`). Tokens usually opt for a value of 18, imitating the relationship between Ether and Wei. This is the default value returned by this function, unless it's overridden. NOTE: This information is only used for _display_ purposes: it in no way affects any of the arithmetic of the contract, including {IERC20-balanceOf} and {IERC20-transfer}."
					},
					"decreaseAllowance(address,uint256)": {
						"details": "Atomically decreases the allowance granted to `spender` by the caller. This is an alternative to {approve} that can be used as a mitigation for problems described in {IERC20-approve}. Emits an {Approval} event indicating the updated allowance. Requirements: - `spender` cannot be the zero address. - `spender` must have allowance for the caller of at least `subtractedValue`."
					},
					"increaseAllowance(address,uint256)": {
						"details": "Atomically increases the allowance granted to `spender` by the caller. This is an alternative to {approve} that can be used as a mitigation for problems described in {IERC20-approve}. Emits an {Approval} event indicating the updated allowance. Requirements: - `spender` cannot be the zero address."
					},
					"name()": {
						"details": "Returns the name of the token."
					},
					"owner()": {
						"details": "Returns the address of the current owner."
					},
					"renounceOwnership()": {
						"details": "Leaves the contract without owner. It will not be possible to call `onlyOwner` functions. Can only be called by the current owner. NOTE: Renouncing ownership will leave the contract without an owner, thereby disabling any functionality that is only available to the owner."
					},
					"symbol()": {
						"details": "Returns the symbol of the token, usually a shorter version of the name."
					},
					"totalSupply()": {
						"details": "See {IERC20-totalSupply}."
					},
					"transfer(address,uint256)": {
						"details": "See {IERC20-transfer}. Requirements: - `to` cannot be the zero address. - the caller must have a balance of at least `amount`."
					},
					"transferFrom(address,address,uint256)": {
						"details": "See {IERC20-transferFrom}. Emits an {Approval} event indicating the updated allowance. This is not required by the EIP. See the note at the beginning of {ERC20}. NOTE: Does not update the allowance if the current allowance is the maximum `uint256`. Requirements: - `from` and `to` cannot be the zero address. - `from` must have a balance of at least `amount`. - the caller must have allowance for ``from``'s tokens of at least `amount`."
					},
					"transferOwnership(address)": {
						"details": "Transfers ownership of the contract to a new account (`newOwner`). Can only be called by the current owner."
					}
				},
				"version": 1
			},
			"evm": {
				"assembly": "    /* \"contracts/ERC20.sol\":305:1294  contract MyToken is ERC20, Ownable {... */\n  mstore(0x40, 0x80)\n    /* \"contracts/ERC20.sol\":347:522  constructor(address new_admin, uint256 initialSupply) ERC20(\"MyToken\", \"MT\") {... */\n  callvalue\n  dup1\n  iszero\n  tag_1\n  jumpi\n  0x00\n  dup1\n  revert\ntag_1:\n  pop\n  mload(0x40)\n  sub(codesize, bytecodeSize)\n  dup1\n  bytecodeSize\n  dup4\n  codecopy\n  dup2\n  dup2\n  add\n  0x40\n  mstore\n  dup2\n  add\n  swap1\n  tag_2\n  swap2\n  swap1\n  tag_3\n  jump\t// in\ntag_2:\n    /* \"https://github.com/OpenZeppelin/openzeppelin-contracts/blob/master/contracts/token/ERC20/ERC20.sol\":1980:2093  constructor(string memory name_, string memory symbol_) {... */\n  mload(0x40)\n  dup1\n  0x40\n  add\n  0x40\n  mstore\n  dup1\n  0x07\n  dup2\n  mstore\n  0x20\n  add\n  0x4d79546f6b656e00000000000000000000000000000000000000000000000000\n  dup2\n  mstore\n  pop\n  mload(0x40)\n  dup1\n  0x40\n  add\n  0x40\n  mstore\n  dup1\n  0x02\n  dup2\n  mstore\n  0x20\n  add\n  0x4d54000000000000000000000000000000000000000000000000000000000000\n  dup2\n  mstore\n  pop\n    /* \"https://github.com/OpenZeppelin/openzeppelin-contracts/blob/master/contracts/token/ERC20/ERC20.sol\":2054:2059  name_ */\n  dup2\n    /* \"https://github.com/OpenZeppelin/openzeppelin-contracts/blob/master/contracts/token/ERC20/ERC20.sol\":2046:2051  _name */\n  0x03\n    /* \"https://github.com/OpenZeppelin/openzeppelin-contracts/blob/master/contracts/token/ERC20/ERC20.sol\":2046:2059  _name = name_ */\n  swap1\n  dup2\n  tag_8\n  swap2\n  swap1\n  tag_9\n  jump\t// in\ntag_8:\n  pop\n    /* \"https://github.com/OpenZeppelin/openzeppelin-contracts/blob/master/contracts/token/ERC20/ERC20.sol\":2079:2086  symbol_ */\n  dup1\n    /* \"https://github.com/OpenZeppelin/openzeppelin-contracts/blob/master/contracts/token/ERC20/ERC20.sol\":2069:2076  _symbol */\n  0x04\n    /* \"https://github.com/OpenZeppelin/openzeppelin-contracts/blob/master/contracts/token/ERC20/ERC20.sol\":2069:2086  _symbol = symbol_ */\n  swap1\n  dup2\n  tag_10\n  swap2\n  swap1\n  tag_9\n  jump\t// in\ntag_10:\n  pop\n    /* \"https://github.com/OpenZeppelin/openzeppelin-contracts/blob/master/contracts/token/ERC20/ERC20.sol\":1980:2093  constructor(string memory name_, string memory symbol_) {... */\n  pop\n  pop\n    /* \"https://github.com/OpenZeppelin/openzeppelin-contracts/blob/master/contracts/access/Ownable.sol\":936:968  _transferOwnership(_msgSender()) */\n  tag_12\n    /* \"https://github.com/OpenZeppelin/openzeppelin-contracts/blob/master/contracts/access/Ownable.sol\":955:967  _msgSender() */\n  tag_13\n    /* \"https://github.com/OpenZeppelin/openzeppelin-contracts/blob/master/contracts/access/Ownable.sol\":955:965  _msgSender */\n  shl(0x20, tag_14)\n    /* \"https://github.com/OpenZeppelin/openzeppelin-contracts/blob/master/contracts/access/Ownable.sol\":955:967  _msgSender() */\n  0x20\n  shr\n  jump\t// in\ntag_13:\n    /* \"https://github.com/OpenZeppelin/openzeppelin-contracts/blob/master/contracts/access/Ownable.sol\":936:954  _transferOwnership */\n  shl(0x20, tag_15)\n    /* \"https://github.com/OpenZeppelin/openzeppelin-contracts/blob/master/contracts/access/Ownable.sol\":936:968  _transferOwnership(_msgSender()) */\n  0x20\n  shr\n  jump\t// in\ntag_12:\n    /* \"contracts/ERC20.sol\":435:467  _mint(msg.sender, initialSupply) */\n  tag_17\n    /* \"contracts/ERC20.sol\":441:451  msg.sender */\n  caller\n    /* \"contracts/ERC20.sol\":453:466  initialSupply */\n  dup3\n    /* \"contracts/ERC20.sol\":435:440  _mint */\n  shl(0x20, tag_18)\n    /* \"contracts/ERC20.sol\":435:467  _mint(msg.sender, initialSupply) */\n  0x20\n  shr\n  jump\t// in\ntag_17:\n    /* \"contracts/ERC20.sol\":486:514  transferOwnership(new_admin) */\n  tag_19\n    /* \"contracts/ERC20.sol\":504:513  new_admin */\n  dup3\n    /* \"contracts/ERC20.sol\":486:503  transferOwnership */\n  shl(0x20, tag_20)\n    /* \"contracts/ERC20.sol\":486:514  transferOwnership(new_admin) */\n  0x20\n  shr\n  jump\t// in\ntag_19:\n    /* \"contracts/ERC20.sol\":347:522  constructor(address new_admin, uint256 initialSupply) ERC20(\"MyToken\", \"MT\") {... */\n  pop\n  pop\n    /* \"contracts/ERC20.sol\":305:1294  contract MyToken is ERC20, Ownable {... */\n  jump(tag_21)\n    /* \"https://github.com/OpenZeppelin/openzeppelin-contracts/blob/master/contracts/utils/Context.sol\":640:736  function _msgSender() internal view virtual returns (address) {... */\ntag_14:\n    /* \"https://github.com/OpenZeppelin/openzeppelin-contracts/blob/master/contracts/utils/Context.sol\":693:700  address */\n  0x00\n    /* \"https://github.com/OpenZeppelin/openzeppelin-contracts/blob/master/contracts/utils/Context.sol\":719:729  msg.sender */\n  caller\n    /* \"https://github.com/OpenZeppelin/openzeppelin-contracts/blob/master/contracts/utils/Context.sol\":712:729  return msg.sender */\n  swap1\n  pop\n    /* \"https://github.com/OpenZeppelin/openzeppelin-contracts/blob/master/contracts/utils/Context.sol\":640:736  function _msgSender() internal view virtual returns (address) {... */\n  swap1\n  jump\t// out\n    /* \"https://github.com/OpenZeppelin/openzeppelin-contracts/blob/master/contracts/access/Ownable.sol\":2426:2613  function _transferOwnership(address newOwner) internal virtual {... */\ntag_15:\n    /* \"https://github.com/OpenZeppelin/openzeppelin-contracts/blob/master/contracts/access/Ownable.sol\":2499:2515  address oldOwner */\n  0x00\n    /* \"https://github.com/OpenZeppelin/openzeppelin-contracts/blob/master/contracts/access/Ownable.sol\":2518:2524  _owner */\n  0x05\n  0x00\n  swap1\n  sload\n  swap1\n  0x0100\n  exp\n  swap1\n  div\n  0xffffffffffffffffffffffffffffffffffffffff\n  and\n    /* \"https://github.com/OpenZeppelin/openzeppelin-contracts/blob/master/contracts/access/Ownable.sol\":2499:2524  address oldOwner = _owner */\n  swap1\n  pop\n    /* \"https://github.com/OpenZeppelin/openzeppelin-contracts/blob/master/contracts/access/Ownable.sol\":2543:2551  newOwner */\n  dup2\n    /* \"https://github.com/OpenZeppelin/openzeppelin-contracts/blob/master/contracts/access/Ownable.sol\":2534:2540  _owner */\n  0x05\n  0x00\n    /* \"https://github.com/OpenZeppelin/openzeppelin-contracts/blob/master/contracts/access/Ownable.sol\":2534:2551  _owner = newOwner */\n  0x0100\n  exp\n  dup2\n  sload\n  dup2\n  0xffffffffffffffffffffffffffffffffffffffff\n  mul\n  not\n  and\n  swap1\n  dup4\n  0xffffffffffffffffffffffffffffffffffffffff\n  and\n  mul\n  or\n  swap1\n  sstore\n  pop\n    /* \"https://github.com/OpenZeppelin/openzeppelin-contracts/blob/master/contracts/access/Ownable.sol\":2597:2605  newOwner */\n  dup2\n    /* \"https://github.com/OpenZeppelin/openzeppelin-contracts/blob/master/contracts/access/Ownable.sol\":2566:2606  OwnershipTransferred(oldOwner, newOwner) */\n  0xffffffffffffffffffffffffffffffffffffffff\n  and\n    /* \"https://github.com/OpenZeppelin/openzeppelin-contracts/blob/master/contracts/access/Ownable.sol\":2587:2595  oldOwner */\n  dup2\n    /* \"https://github.com/OpenZeppelin/openzeppelin-contracts/blob/master/contracts/access/Ownable.sol\":2566:2606  OwnershipTransferred(oldOwner, newOwner) */\n  0xffffffffffffffffffffffffffffffffffffffff\n  and\n  0x8be0079c531659141344cd1fd0a4f28419497f9722a3daafe3b4186f6b6457e0\n  mload(0x40)\n  mload(0x40)\n  dup1\n  swap2\n  sub\n  swap1\n  log3\n    /* \"https://github.com/OpenZeppelin/openzeppelin-contracts/blob/master/contracts/access/Ownable.sol\":2489:2613  {... */\n  pop\n    /* \"https://github.com/OpenZeppelin/openzeppelin-contracts/blob/master/contracts/access/Ownable.sol\":2426:2613  function _transferOwnership(address newOwner) internal virtual {... */\n  pop\n  jump\t// out\n    /* \"https://github.com/OpenZeppelin/openzeppelin-contracts/blob/master/contracts/token/ERC20/ERC20.sol\":8520:9055  function _mint(address account, uint256 amount) internal virtual {... */\ntag_18:\n    /* \"https://github.com/OpenZeppelin/openzeppelin-contracts/blob/master/contracts/token/ERC20/ERC20.sol\":8622:8623  0 */\n  0x00\n    /* \"https://github.com/OpenZeppelin/openzeppelin-contracts/blob/master/contracts/token/ERC20/ERC20.sol\":8603:8624  account != address(0) */\n  0xffffffffffffffffffffffffffffffffffffffff\n  and\n    /* \"https://github.com/OpenZeppelin/openzeppelin-contracts/blob/master/contracts/token/ERC20/ERC20.sol\":8603:8610  account */\n  dup3\n    /* \"https://github.com/OpenZeppelin/openzeppelin-contracts/blob/master/contracts/token/ERC20/ERC20.sol\":8603:8624  account != address(0) */\n  0xffffffffffffffffffffffffffffffffffffffff\n  and\n  sub\n    /* \"https://github.com/OpenZeppelin/openzeppelin-contracts/blob/master/contracts/token/ERC20/ERC20.sol\":8595:8660  require(account != address(0), \"ERC20: mint to the zero address\") */\n  tag_25\n  jumpi\n  mload(0x40)\n  0x08c379a000000000000000000000000000000000000000000000000000000000\n  dup2\n  mstore\n  0x04\n  add\n  tag_26\n  swap1\n  tag_27\n  jump\t// in\ntag_26:\n  mload(0x40)\n  dup1\n  swap2\n  sub\n  swap1\n  revert\ntag_25:\n    /* \"https://github.com/OpenZeppelin/openzeppelin-contracts/blob/master/contracts/token/ERC20/ERC20.sol\":8671:8720  _beforeTokenTransfer(address(0), account, amount) */\n  tag_28\n    /* \"https://github.com/OpenZeppelin/openzeppelin-contracts/blob/master/contracts/token/ERC20/ERC20.sol\":8700:8701  0 */\n  0x00\n    /* \"https://github.com/OpenZeppelin/openzeppelin-contracts/blob/master/contracts/token/ERC20/ERC20.sol\":8704:8711  account */\n  dup4\n    /* \"https://github.com/OpenZeppelin/openzeppelin-contracts/blob/master/contracts/token/ERC20/ERC20.sol\":8713:8719  amount */\n  dup4\n    /* \"https://github.com/OpenZeppelin/openzeppelin-contracts/blob/master/contracts/token/ERC20/ERC20.sol\":8671:8691  _beforeTokenTransfer */\n  shl(0x20, tag_29)\n    /* \"https://github.com/OpenZeppelin/openzeppelin-contracts/blob/master/contracts/token/ERC20/ERC20.sol\":8671:8720  _beforeTokenTransfer(address(0), account, amount) */\n  0x20\n  shr\n  jump\t// in\ntag_28:\n    /* \"https://github.com/OpenZeppelin/openzeppelin-contracts/blob/master/contracts/token/ERC20/ERC20.sol\":8747:8753  amount */\n  dup1\n    /* \"https://github.com/OpenZeppelin/openzeppelin-contracts/blob/master/contracts/token/ERC20/ERC20.sol\":8731:8743  _totalSupply */\n  0x02\n  0x00\n    /* \"https://github.com/OpenZeppelin/openzeppelin-contracts/blob/master/contracts/token/ERC20/ERC20.sol\":8731:8753  _totalSupply += amount */\n  dup3\n  dup3\n  sload\n  tag_30\n  swap2\n  swap1\n  tag_31\n  jump\t// in\ntag_30:\n  swap3\n  pop\n  pop\n  dup2\n  swap1\n  sstore\n  pop\n    /* \"https://github.com/OpenZeppelin/openzeppelin-contracts/blob/master/contracts/token/ERC20/ERC20.sol\":8921:8927  amount */\n  dup1\n    /* \"https://github.com/OpenZeppelin/openzeppelin-contracts/blob/master/contracts/token/ERC20/ERC20.sol\":8899:8908  _balances */\n  0x00\n    /* \"https://github.com/OpenZeppelin/openzeppelin-contracts/blob/master/contracts/token/ERC20/ERC20.sol\":8899:8917  _balances[account] */\n  dup1\n    /* \"https://github.com/OpenZeppelin/openzeppelin-contracts/blob/master/contracts/token/ERC20/ERC20.sol\":8909:8916  account */\n  dup5\n    /* \"https://github.com/OpenZeppelin/openzeppelin-contracts/blob/master/contracts/token/ERC20/ERC20.sol\":8899:8917  _balances[account] */\n  0xffffffffffffffffffffffffffffffffffffffff\n  and\n  0xffffffffffffffffffffffffffffffffffffffff\n  and\n  dup2\n  mstore\n  0x20\n  add\n  swap1\n  dup2\n  mstore\n  0x20\n  add\n  0x00\n  keccak256\n  0x00\n    /* \"https://github.com/OpenZeppelin/openzeppelin-contracts/blob/master/contracts/token/ERC20/ERC20.sol\":8899:8927  _balances[account] += amount */\n  dup3\n  dup3\n  sload\n  add\n  swap3\n  pop\n  pop\n  dup2\n  swap1\n  sstore\n  pop\n    /* \"https://github.com/OpenZeppelin/openzeppelin-contracts/blob/master/contracts/token/ERC20/ERC20.sol\":8973:8980  account */\n  dup2\n    /* \"https://github.com/OpenZeppelin/openzeppelin-contracts/blob/master/contracts/token/ERC20/ERC20.sol\":8952:8989  Transfer(address(0), account, amount) */\n  0xffffffffffffffffffffffffffffffffffffffff\n  and\n    /* \"https://github.com/OpenZeppelin/openzeppelin-contracts/blob/master/contracts/token/ERC20/ERC20.sol\":8969:8970  0 */\n  0x00\n    /* \"https://github.com/OpenZeppelin/openzeppelin-contracts/blob/master/contracts/token/ERC20/ERC20.sol\":8952:8989  Transfer(address(0), account, amount) */\n  0xffffffffffffffffffffffffffffffffffffffff\n  and\n  0xddf252ad1be2c89b69c2b068fc378daa952ba7f163c4a11628f55a4df523b3ef\n    /* \"https://github.com/OpenZeppelin/openzeppelin-contracts/blob/master/contracts/token/ERC20/ERC20.sol\":8982:8988  amount */\n  dup4\n    /* \"https://github.com/OpenZeppelin/openzeppelin-contracts/blob/master/contracts/token/ERC20/ERC20.sol\":8952:8989  Transfer(address(0), account, amount) */\n  mload(0x40)\n  tag_32\n  swap2\n  swap1\n  tag_33\n  jump\t// in\ntag_32:\n  mload(0x40)\n  dup1\n  swap2\n  sub\n  swap1\n  log3\n    /* \"https://github.com/OpenZeppelin/openzeppelin-contracts/blob/master/contracts/token/ERC20/ERC20.sol\":9000:9048  _afterTokenTransfer(address(0), account, amount) */\n  tag_34\n    /* \"https://github.com/OpenZeppelin/openzeppelin-contracts/blob/master/contracts/token/ERC20/ERC20.sol\":9028:9029  0 */\n  0x00\n    /* \"https://github.com/OpenZeppelin/openzeppelin-contracts/blob/master/contracts/token/ERC20/ERC20.sol\":9032:9039  account */\n  dup4\n    /* \"https://github.com/OpenZeppelin/openzeppelin-contracts/blob/master/contracts/token/ERC20/ERC20.sol\":9041:9047  amount */\n  dup4\n    /* \"https://github.com/OpenZeppelin/openzeppelin-contracts/blob/master/contracts/token/ERC20/ERC20.sol\":9000:9019  _afterTokenTransfer */\n  shl(0x20, tag_35)\n    /* \"https://github.com/OpenZeppelin/openzeppelin-contracts/blob/master/contracts/token/ERC20/ERC20.sol\":9000:9048  _afterTokenTransfer(address(0), account, amount) */\n  0x20\n  shr\n  jump\t// in\ntag_34:\n    /* \"https://github.com/OpenZeppelin/openzeppelin-contracts/blob/master/contracts/token/ERC20/ERC20.sol\":8520:9055  function _mint(address account, uint256 amount) internal virtual {... */\n  pop\n  pop\n  jump\t// out\n    /* \"https://github.com/OpenZeppelin/openzeppelin-contracts/blob/master/contracts/access/Ownable.sol\":2074:2272  function transferOwnership(address newOwner) public virtual onlyOwner {... */\ntag_20:\n    /* \"https://github.com/OpenZeppelin/openzeppelin-contracts/blob/master/contracts/access/Ownable.sol\":1094:1107  _checkOwner() */\n  tag_37\n    /* \"https://github.com/OpenZeppelin/openzeppelin-contracts/blob/master/contracts/access/Ownable.sol\":1094:1105  _checkOwner */\n  shl(0x20, tag_38)\n    /* \"https://github.com/OpenZeppelin/openzeppelin-contracts/blob/master/contracts/access/Ownable.sol\":1094:1107  _checkOwner() */\n  0x20\n  shr\n  jump\t// in\ntag_37:\n    /* \"https://github.com/OpenZeppelin/openzeppelin-contracts/blob/master/contracts/access/Ownable.sol\":2182:2183  0 */\n  0x00\n    /* \"https://github.com/OpenZeppelin/openzeppelin-contracts/blob/master/contracts/access/Ownable.sol\":2162:2184  newOwner != address(0) */\n  0xffffffffffffffffffffffffffffffffffffffff\n  and\n    /* \"https://github.com/OpenZeppelin/openzeppelin-contracts/blob/master/contracts/access/Ownable.sol\":2162:2170  newOwner */\n  dup2\n    /* \"https://github.com/OpenZeppelin/openzeppelin-contracts/blob/master/contracts/access/Ownable.sol\":2162:2184  newOwner != address(0) */\n  0xffffffffffffffffffffffffffffffffffffffff\n  and\n  sub\n    /* \"https://github.com/OpenZeppelin/openzeppelin-contracts/blob/master/contracts/access/Ownable.sol\":2154:2227  require(newOwner != address(0), \"Ownable: new owner is the zero address\") */\n  tag_40\n  jumpi\n  mload(0x40)\n  0x08c379a000000000000000000000000000000000000000000000000000000000\n  dup2\n  mstore\n  0x04\n  add\n  tag_41\n  swap1\n  tag_42\n  jump\t// in\ntag_41:\n  mload(0x40)\n  dup1\n  swap2\n  sub\n  swap1\n  revert\ntag_40:\n    /* \"https://github.com/OpenZeppelin/openzeppelin-contracts/blob/master/contracts/access/Ownable.sol\":2237:2265  _transferOwnership(newOwner) */\n  tag_43\n    /* \"https://github.com/OpenZeppelin/openzeppelin-contracts/blob/master/contracts/access/Ownable.sol\":2256:2264  newOwner */\n  dup2\n    /* \"https://github.com/OpenZeppelin/openzeppelin-contracts/blob/master/contracts/access/Ownable.sol\":2237:2255  _transferOwnership */\n  shl(0x20, tag_15)\n    /* \"https://github.com/OpenZeppelin/openzeppelin-contracts/blob/master/contracts/access/Ownable.sol\":2237:2265  _transferOwnership(newOwner) */\n  0x20\n  shr\n  jump\t// in\ntag_43:\n    /* \"https://github.com/OpenZeppelin/openzeppelin-contracts/blob/master/contracts/access/Ownable.sol\":2074:2272  function transferOwnership(address newOwner) public virtual onlyOwner {... */\n  pop\n  jump\t// out\n    /* \"https://github.com/OpenZeppelin/openzeppelin-contracts/blob/master/contracts/token/ERC20/ERC20.sol\":12073:12164  function _beforeTokenTransfer(address from, address to, uint256 amount) internal virtual {} */\ntag_29:\n  pop\n  pop\n  pop\n  jump\t// out\n    /* \"https://github.com/OpenZeppelin/openzeppelin-contracts/blob/master/contracts/token/ERC20/ERC20.sol\":12752:12842  function _afterTokenTransfer(address from, address to, uint256 amount) internal virtual {} */\ntag_35:\n  pop\n  pop\n  pop\n  jump\t// out\n    /* \"https://github.com/OpenZeppelin/openzeppelin-contracts/blob/master/contracts/access/Ownable.sol\":1359:1489  function _checkOwner() internal view virtual {... */\ntag_38:\n    /* \"https://github.com/OpenZeppelin/openzeppelin-contracts/blob/master/contracts/access/Ownable.sol\":1433:1445  _msgSender() */\n  tag_47\n    /* \"https://github.com/OpenZeppelin/openzeppelin-contracts/blob/master/contracts/access/Ownable.sol\":1433:1443  _msgSender */\n  shl(0x20, tag_14)\n    /* \"https://github.com/OpenZeppelin/openzeppelin-contracts/blob/master/contracts/access/Ownable.sol\":1433:1445  _msgSender() */\n  0x20\n  shr\n  jump\t// in\ntag_47:\n    /* \"https://github.com/OpenZeppelin/openzeppelin-contracts/blob/master/contracts/access/Ownable.sol\":1422:1445  owner() == _msgSender() */\n  0xffffffffffffffffffffffffffffffffffffffff\n  and\n    /* \"https://github.com/OpenZeppelin/openzeppelin-contracts/blob/master/contracts/access/Ownable.sol\":1422:1429  owner() */\n  tag_48\n    /* \"https://github.com/OpenZeppelin/openzeppelin-contracts/blob/master/contracts/access/Ownable.sol\":1422:1427  owner */\n  shl(0x20, tag_49)\n    /* \"https://github.com/OpenZeppelin/openzeppelin-contracts/blob/master/contracts/access/Ownable.sol\":1422:1429  owner() */\n  0x20\n  shr\n  jump\t// in\ntag_48:\n    /* \"https://github.com/OpenZeppelin/openzeppelin-contracts/blob/master/contracts/access/Ownable.sol\":1422:1445  owner() == _msgSender() */\n  0xffffffffffffffffffffffffffffffffffffffff\n  and\n  eq\n    /* \"https://github.com/OpenZeppelin/openzeppelin-contracts/blob/master/contracts/access/Ownable.sol\":1414:1482  require(owner() == _msgSender(), \"Ownable: caller is not the owner\") */\n  tag_50\n  jumpi\n  mload(0x40)\n  0x08c379a000000000000000000000000000000000000000000000000000000000\n  dup2\n  mstore\n  0x04\n  add\n  tag_51\n  swap1\n  tag_52\n  jump\t// in\ntag_51:\n  mload(0x40)\n  dup1\n  swap2\n  sub\n  swap1\n  revert\ntag_50:\n    /* \"https://github.com/OpenZeppelin/openzeppelin-contracts/blob/master/contracts/access/Ownable.sol\":1359:1489  function _checkOwner() internal view virtual {... */\n  jump\t// out\n    /* \"https://github.com/OpenZeppelin/openzeppelin-contracts/blob/master/contracts/access/Ownable.sol\":1201:1286  function owner() public view virtual returns (address) {... */\ntag_49:\n    /* \"https://github.com/OpenZeppelin/openzeppelin-contracts/blob/master/contracts/access/Ownable.sol\":1247:1254  address */\n  0x00\n    /* \"https://github.com/OpenZeppelin/openzeppelin-contracts/blob/master/contracts/access/Ownable.sol\":1273:1279  _owner */\n  0x05\n  0x00\n  swap1\n  sload\n  swap1\n  0x0100\n  exp\n  swap1\n  div\n  0xffffffffffffffffffffffffffffffffffffffff\n  and\n    /* \"https://github.com/OpenZeppelin/openzeppelin-contracts/blob/master/contracts/access/Ownable.sol\":1266:1279  return _owner */\n  swap1\n  pop\n    /* \"https://github.com/OpenZeppelin/openzeppelin-contracts/blob/master/contracts/access/Ownable.sol\":1201:1286  function owner() public view virtual returns (address) {... */\n  swap1\n  jump\t// out\n    /* \"#utility.yul\":88:205   */\ntag_55:\n    /* \"#utility.yul\":197:198   */\n  0x00\n    /* \"#utility.yul\":194:195   */\n  dup1\n    /* \"#utility.yul\":187:199   */\n  revert\n    /* \"#utility.yul\":334:460   */\ntag_57:\n    /* \"#utility.yul\":371:378   */\n  0x00\n    /* \"#utility.yul\":411:453   */\n  0xffffffffffffffffffffffffffffffffffffffff\n    /* \"#utility.yul\":404:409   */\n  dup3\n    /* \"#utility.yul\":400:454   */\n  and\n    /* \"#utility.yul\":389:454   */\n  swap1\n  pop\n    /* \"#utility.yul\":334:460   */\n  swap2\n  swap1\n  pop\n  jump\t// out\n    /* \"#utility.yul\":466:562   */\ntag_58:\n    /* \"#utility.yul\":503:510   */\n  0x00\n    /* \"#utility.yul\":532:556   */\n  tag_98\n    /* \"#utility.yul\":550:555   */\n  dup3\n    /* \"#utility.yul\":532:556   */\n  tag_57\n  jump\t// in\ntag_98:\n    /* \"#utility.yul\":521:556   */\n  swap1\n  pop\n    /* \"#utility.yul\":466:562   */\n  swap2\n  swap1\n  pop\n  jump\t// out\n    /* \"#utility.yul\":568:690   */\ntag_59:\n    /* \"#utility.yul\":641:665   */\n  tag_100\n    /* \"#utility.yul\":659:664   */\n  dup2\n    /* \"#utility.yul\":641:665   */\n  tag_58\n  jump\t// in\ntag_100:\n    /* \"#utility.yul\":634:639   */\n  dup2\n    /* \"#utility.yul\":631:666   */\n  eq\n    /* \"#utility.yul\":621:684   */\n  tag_101\n  jumpi\n    /* \"#utility.yul\":680:681   */\n  0x00\n    /* \"#utility.yul\":677:678   */\n  dup1\n    /* \"#utility.yul\":670:682   */\n  revert\n    /* \"#utility.yul\":621:684   */\ntag_101:\n    /* \"#utility.yul\":568:690   */\n  pop\n  jump\t// out\n    /* \"#utility.yul\":696:839   */\ntag_60:\n    /* \"#utility.yul\":753:758   */\n  0x00\n    /* \"#utility.yul\":784:790   */\n  dup2\n    /* \"#utility.yul\":778:791   */\n  mload\n    /* \"#utility.yul\":769:791   */\n  swap1\n  pop\n    /* \"#utility.yul\":800:833   */\n  tag_103\n    /* \"#utility.yul\":827:832   */\n  dup2\n    /* \"#utility.yul\":800:833   */\n  tag_59\n  jump\t// in\ntag_103:\n    /* \"#utility.yul\":696:839   */\n  swap3\n  swap2\n  pop\n  pop\n  jump\t// out\n    /* \"#utility.yul\":845:922   */\ntag_61:\n    /* \"#utility.yul\":882:889   */\n  0x00\n    /* \"#utility.yul\":911:916   */\n  dup2\n    /* \"#utility.yul\":900:916   */\n  swap1\n  pop\n    /* \"#utility.yul\":845:922   */\n  swap2\n  swap1\n  pop\n  jump\t// out\n    /* \"#utility.yul\":928:1050   */\ntag_62:\n    /* \"#utility.yul\":1001:1025   */\n  tag_106\n    /* \"#utility.yul\":1019:1024   */\n  dup2\n    /* \"#utility.yul\":1001:1025   */\n  tag_61\n  jump\t// in\ntag_106:\n    /* \"#utility.yul\":994:999   */\n  dup2\n    /* \"#utility.yul\":991:1026   */\n  eq\n    /* \"#utility.yul\":981:1044   */\n  tag_107\n  jumpi\n    /* \"#utility.yul\":1040:1041   */\n  0x00\n    /* \"#utility.yul\":1037:1038   */\n  dup1\n    /* \"#utility.yul\":1030:1042   */\n  revert\n    /* \"#utility.yul\":981:1044   */\ntag_107:\n    /* \"#utility.yul\":928:1050   */\n  pop\n  jump\t// out\n    /* \"#utility.yul\":1056:1199   */\ntag_63:\n    /* \"#utility.yul\":1113:1118   */\n  0x00\n    /* \"#utility.yul\":1144:1150   */\n  dup2\n    /* \"#utility.yul\":1138:1151   */\n  mload\n    /* \"#utility.yul\":1129:1151   */\n  swap1\n  pop\n    /* \"#utility.yul\":1160:1193   */\n  tag_109\n    /* \"#utility.yul\":1187:1192   */\n  dup2\n    /* \"#utility.yul\":1160:1193   */\n  tag_62\n  jump\t// in\ntag_109:\n    /* \"#utility.yul\":1056:1199   */\n  swap3\n  swap2\n  pop\n  pop\n  jump\t// out\n    /* \"#utility.yul\":1205:1712   */\ntag_3:\n    /* \"#utility.yul\":1284:1290   */\n  0x00\n    /* \"#utility.yul\":1292:1298   */\n  dup1\n    /* \"#utility.yul\":1341:1343   */\n  0x40\n    /* \"#utility.yul\":1329:1338   */\n  dup4\n    /* \"#utility.yul\":1320:1327   */\n  dup6\n    /* \"#utility.yul\":1316:1339   */\n  sub\n    /* \"#utility.yul\":1312:1344   */\n  slt\n    /* \"#utility.yul\":1309:1428   */\n  iszero\n  tag_111\n  jumpi\n    /* \"#utility.yul\":1347:1426   */\n  tag_112\n  tag_55\n  jump\t// in\ntag_112:\n    /* \"#utility.yul\":1309:1428   */\ntag_111:\n    /* \"#utility.yul\":1467:1468   */\n  0x00\n    /* \"#utility.yul\":1492:1556   */\n  tag_113\n    /* \"#utility.yul\":1548:1555   */\n  dup6\n    /* \"#utility.yul\":1539:1545   */\n  dup3\n    /* \"#utility.yul\":1528:1537   */\n  dup7\n    /* \"#utility.yul\":1524:1546   */\n  add\n    /* \"#utility.yul\":1492:1556   */\n  tag_60\n  jump\t// in\ntag_113:\n    /* \"#utility.yul\":1482:1556   */\n  swap3\n  pop\n    /* \"#utility.yul\":1438:1566   */\n  pop\n    /* \"#utility.yul\":1605:1607   */\n  0x20\n    /* \"#utility.yul\":1631:1695   */\n  tag_114\n    /* \"#utility.yul\":1687:1694   */\n  dup6\n    /* \"#utility.yul\":1678:1684   */\n  dup3\n    /* \"#utility.yul\":1667:1676   */\n  dup7\n    /* \"#utility.yul\":1663:1685   */\n  add\n    /* \"#utility.yul\":1631:1695   */\n  tag_63\n  jump\t// in\ntag_114:\n    /* \"#utility.yul\":1621:1695   */\n  swap2\n  pop\n    /* \"#utility.yul\":1576:1705   */\n  pop\n    /* \"#utility.yul\":1205:1712   */\n  swap3\n  pop\n  swap3\n  swap1\n  pop\n  jump\t// out\n    /* \"#utility.yul\":1718:1817   */\ntag_64:\n    /* \"#utility.yul\":1770:1776   */\n  0x00\n    /* \"#utility.yul\":1804:1809   */\n  dup2\n    /* \"#utility.yul\":1798:1810   */\n  mload\n    /* \"#utility.yul\":1788:1810   */\n  swap1\n  pop\n    /* \"#utility.yul\":1718:1817   */\n  swap2\n  swap1\n  pop\n  jump\t// out\n    /* \"#utility.yul\":1823:2003   */\ntag_65:\n    /* \"#utility.yul\":1871:1948   */\n  0x4e487b7100000000000000000000000000000000000000000000000000000000\n    /* \"#utility.yul\":1868:1869   */\n  0x00\n    /* \"#utility.yul\":1861:1949   */\n  mstore\n    /* \"#utility.yul\":1968:1972   */\n  0x41\n    /* \"#utility.yul\":1965:1966   */\n  0x04\n    /* \"#utility.yul\":1958:1973   */\n  mstore\n    /* \"#utility.yul\":1992:1996   */\n  0x24\n    /* \"#utility.yul\":1989:1990   */\n  0x00\n    /* \"#utility.yul\":1982:1997   */\n  revert\n    /* \"#utility.yul\":2009:2189   */\ntag_66:\n    /* \"#utility.yul\":2057:2134   */\n  0x4e487b7100000000000000000000000000000000000000000000000000000000\n    /* \"#utility.yul\":2054:2055   */\n  0x00\n    /* \"#utility.yul\":2047:2135   */\n  mstore\n    /* \"#utility.yul\":2154:2158   */\n  0x22\n    /* \"#utility.yul\":2151:2152   */\n  0x04\n    /* \"#utility.yul\":2144:2159   */\n  mstore\n    /* \"#utility.yul\":2178:2182   */\n  0x24\n    /* \"#utility.yul\":2175:2176   */\n  0x00\n    /* \"#utility.yul\":2168:2183   */\n  revert\n    /* \"#utility.yul\":2195:2515   */\ntag_67:\n    /* \"#utility.yul\":2239:2245   */\n  0x00\n    /* \"#utility.yul\":2276:2277   */\n  0x02\n    /* \"#utility.yul\":2270:2274   */\n  dup3\n    /* \"#utility.yul\":2266:2278   */\n  div\n    /* \"#utility.yul\":2256:2278   */\n  swap1\n  pop\n    /* \"#utility.yul\":2323:2324   */\n  0x01\n    /* \"#utility.yul\":2317:2321   */\n  dup3\n    /* \"#utility.yul\":2313:2325   */\n  and\n    /* \"#utility.yul\":2344:2362   */\n  dup1\n    /* \"#utility.yul\":2334:2415   */\n  tag_119\n  jumpi\n    /* \"#utility.yul\":2400:2404   */\n  0x7f\n    /* \"#utility.yul\":2392:2398   */\n  dup3\n    /* \"#utility.yul\":2388:2405   */\n  and\n    /* \"#utility.yul\":2378:2405   */\n  swap2\n  pop\n    /* \"#utility.yul\":2334:2415   */\ntag_119:\n    /* \"#utility.yul\":2462:2464   */\n  0x20\n    /* \"#utility.yul\":2454:2460   */\n  dup3\n    /* \"#utility.yul\":2451:2465   */\n  lt\n    /* \"#utility.yul\":2431:2449   */\n  dup2\n    /* \"#utility.yul\":2428:2466   */\n  sub\n    /* \"#utility.yul\":2425:2509   */\n  tag_120\n  jumpi\n    /* \"#utility.yul\":2481:2499   */\n  tag_121\n  tag_66\n  jump\t// in\ntag_121:\n    /* \"#utility.yul\":2425:2509   */\ntag_120:\n    /* \"#utility.yul\":2246:2515   */\n  pop\n    /* \"#utility.yul\":2195:2515   */\n  swap2\n  swap1\n  pop\n  jump\t// out\n    /* \"#utility.yul\":2521:2662   */\ntag_68:\n    /* \"#utility.yul\":2570:2574   */\n  0x00\n    /* \"#utility.yul\":2593:2596   */\n  dup2\n    /* \"#utility.yul\":2585:2596   */\n  swap1\n  pop\n    /* \"#utility.yul\":2616:2619   */\n  dup2\n    /* \"#utility.yul\":2613:2614   */\n  0x00\n    /* \"#utility.yul\":2606:2620   */\n  mstore\n    /* \"#utility.yul\":2650:2654   */\n  0x20\n    /* \"#utility.yul\":2647:2648   */\n  0x00\n    /* \"#utility.yul\":2637:2655   */\n  keccak256\n    /* \"#utility.yul\":2629:2655   */\n  swap1\n  pop\n    /* \"#utility.yul\":2521:2662   */\n  swap2\n  swap1\n  pop\n  jump\t// out\n    /* \"#utility.yul\":2668:2761   */\ntag_69:\n    /* \"#utility.yul\":2705:2711   */\n  0x00\n    /* \"#utility.yul\":2752:2754   */\n  0x20\n    /* \"#utility.yul\":2747:2749   */\n  0x1f\n    /* \"#utility.yul\":2740:2745   */\n  dup4\n    /* \"#utility.yul\":2736:2750   */\n  add\n    /* \"#utility.yul\":2732:2755   */\n  div\n    /* \"#utility.yul\":2722:2755   */\n  swap1\n  pop\n    /* \"#utility.yul\":2668:2761   */\n  swap2\n  swap1\n  pop\n  jump\t// out\n    /* \"#utility.yul\":2767:2874   */\ntag_70:\n    /* \"#utility.yul\":2811:2819   */\n  0x00\n    /* \"#utility.yul\":2861:2866   */\n  dup3\n    /* \"#utility.yul\":2855:2859   */\n  dup3\n    /* \"#utility.yul\":2851:2867   */\n  shl\n    /* \"#utility.yul\":2830:2867   */\n  swap1\n  pop\n    /* \"#utility.yul\":2767:2874   */\n  swap3\n  swap2\n  pop\n  pop\n  jump\t// out\n    /* \"#utility.yul\":2880:3273   */\ntag_71:\n    /* \"#utility.yul\":2949:2955   */\n  0x00\n    /* \"#utility.yul\":2999:3000   */\n  0x08\n    /* \"#utility.yul\":2987:2997   */\n  dup4\n    /* \"#utility.yul\":2983:3001   */\n  mul\n    /* \"#utility.yul\":3022:3119   */\n  tag_126\n    /* \"#utility.yul\":3052:3118   */\n  0xffffffffffffffffffffffffffffffffffffffffffffffffffffffffffffffff\n    /* \"#utility.yul\":3041:3050   */\n  dup3\n    /* \"#utility.yul\":3022:3119   */\n  tag_70\n  jump\t// in\ntag_126:\n    /* \"#utility.yul\":3140:3179   */\n  tag_127\n    /* \"#utility.yul\":3170:3178   */\n  dup7\n    /* \"#utility.yul\":3159:3168   */\n  dup4\n    /* \"#utility.yul\":3140:3179   */\n  tag_70\n  jump\t// in\ntag_127:\n    /* \"#utility.yul\":3128:3179   */\n  swap6\n  pop\n    /* \"#utility.yul\":3212:3216   */\n  dup1\n    /* \"#utility.yul\":3208:3217   */\n  not\n    /* \"#utility.yul\":3201:3206   */\n  dup5\n    /* \"#utility.yul\":3197:3218   */\n  and\n    /* \"#utility.yul\":3188:3218   */\n  swap4\n  pop\n    /* \"#utility.yul\":3261:3265   */\n  dup1\n    /* \"#utility.yul\":3251:3259   */\n  dup7\n    /* \"#utility.yul\":3247:3266   */\n  and\n    /* \"#utility.yul\":3240:3245   */\n  dup5\n    /* \"#utility.yul\":3237:3267   */\n  or\n    /* \"#utility.yul\":3227:3267   */\n  swap3\n  pop\n    /* \"#utility.yul\":2956:3273   */\n  pop\n  pop\n    /* \"#utility.yul\":2880:3273   */\n  swap4\n  swap3\n  pop\n  pop\n  pop\n  jump\t// out\n    /* \"#utility.yul\":3279:3339   */\ntag_72:\n    /* \"#utility.yul\":3307:3310   */\n  0x00\n    /* \"#utility.yul\":3328:3333   */\n  dup2\n    /* \"#utility.yul\":3321:3333   */\n  swap1\n  pop\n    /* \"#utility.yul\":3279:3339   */\n  swap2\n  swap1\n  pop\n  jump\t// out\n    /* \"#utility.yul\":3345:3487   */\ntag_73:\n    /* \"#utility.yul\":3395:3404   */\n  0x00\n    /* \"#utility.yul\":3428:3481   */\n  tag_130\n    /* \"#utility.yul\":3446:3480   */\n  tag_131\n    /* \"#utility.yul\":3455:3479   */\n  tag_132\n    /* \"#utility.yul\":3473:3478   */\n  dup5\n    /* \"#utility.yul\":3455:3479   */\n  tag_61\n  jump\t// in\ntag_132:\n    /* \"#utility.yul\":3446:3480   */\n  tag_72\n  jump\t// in\ntag_131:\n    /* \"#utility.yul\":3428:3481   */\n  tag_61\n  jump\t// in\ntag_130:\n    /* \"#utility.yul\":3415:3481   */\n  swap1\n  pop\n    /* \"#utility.yul\":3345:3487   */\n  swap2\n  swap1\n  pop\n  jump\t// out\n    /* \"#utility.yul\":3493:3568   */\ntag_74:\n    /* \"#utility.yul\":3536:3539   */\n  0x00\n    /* \"#utility.yul\":3557:3562   */\n  dup2\n    /* \"#utility.yul\":3550:3562   */\n  swap1\n  pop\n    /* \"#utility.yul\":3493:3568   */\n  swap2\n  swap1\n  pop\n  jump\t// out\n    /* \"#utility.yul\":3574:3843   */\ntag_75:\n    /* \"#utility.yul\":3684:3723   */\n  tag_135\n    /* \"#utility.yul\":3715:3722   */\n  dup4\n    /* \"#utility.yul\":3684:3723   */\n  tag_73\n  jump\t// in\ntag_135:\n    /* \"#utility.yul\":3745:3836   */\n  tag_136\n    /* \"#utility.yul\":3794:3835   */\n  tag_137\n    /* \"#utility.yul\":3818:3834   */\n  dup3\n    /* \"#utility.yul\":3794:3835   */\n  tag_74\n  jump\t// in\ntag_137:\n    /* \"#utility.yul\":3786:3792   */\n  dup5\n    /* \"#utility.yul\":3779:3783   */\n  dup5\n    /* \"#utility.yul\":3773:3784   */\n  sload\n    /* \"#utility.yul\":3745:3836   */\n  tag_71\n  jump\t// in\ntag_136:\n    /* \"#utility.yul\":3739:3743   */\n  dup3\n    /* \"#utility.yul\":3732:3837   */\n  sstore\n    /* \"#utility.yul\":3650:3843   */\n  pop\n    /* \"#utility.yul\":3574:3843   */\n  pop\n  pop\n  pop\n  jump\t// out\n    /* \"#utility.yul\":3849:3922   */\ntag_76:\n    /* \"#utility.yul\":3894:3897   */\n  0x00\n    /* \"#utility.yul\":3849:3922   */\n  swap1\n  jump\t// out\n    /* \"#utility.yul\":3928:4117   */\ntag_77:\n    /* \"#utility.yul\":4005:4037   */\n  tag_140\n  tag_76\n  jump\t// in\ntag_140:\n    /* \"#utility.yul\":4046:4111   */\n  tag_141\n    /* \"#utility.yul\":4104:4110   */\n  dup2\n    /* \"#utility.yul\":4096:4102   */\n  dup5\n    /* \"#utility.yul\":4090:4094   */\n  dup5\n    /* \"#utility.yul\":4046:4111   */\n  tag_75\n  jump\t// in\ntag_141:\n    /* \"#utility.yul\":3981:4117   */\n  pop\n    /* \"#utility.yul\":3928:4117   */\n  pop\n  pop\n  jump\t// out\n    /* \"#utility.yul\":4123:4309   */\ntag_78:\n    /* \"#utility.yul\":4183:4303   */\ntag_143:\n    /* \"#utility.yul\":4200:4203   */\n  dup2\n    /* \"#utility.yul\":4193:4198   */\n  dup2\n    /* \"#utility.yul\":4190:4204   */\n  lt\n    /* \"#utility.yul\":4183:4303   */\n  iszero\n  tag_145\n  jumpi\n    /* \"#utility.yul\":4254:4293   */\n  tag_146\n    /* \"#utility.yul\":4291:4292   */\n  0x00\n    /* \"#utility.yul\":4284:4289   */\n  dup3\n    /* \"#utility.yul\":4254:4293   */\n  tag_77\n  jump\t// in\ntag_146:\n    /* \"#utility.yul\":4227:4228   */\n  0x01\n    /* \"#utility.yul\":4220:4225   */\n  dup2\n    /* \"#utility.yul\":4216:4229   */\n  add\n    /* \"#utility.yul\":4207:4229   */\n  swap1\n  pop\n    /* \"#utility.yul\":4183:4303   */\n  jump(tag_143)\ntag_145:\n    /* \"#utility.yul\":4123:4309   */\n  pop\n  pop\n  jump\t// out\n    /* \"#utility.yul\":4315:4858   */\ntag_79:\n    /* \"#utility.yul\":4416:4418   */\n  0x1f\n    /* \"#utility.yul\":4411:4414   */\n  dup3\n    /* \"#utility.yul\":4408:4419   */\n  gt\n    /* \"#utility.yul\":4405:4851   */\n  iszero\n  tag_148\n  jumpi\n    /* \"#utility.yul\":4450:4488   */\n  tag_149\n    /* \"#utility.yul\":4482:4487   */\n  dup2\n    /* \"#utility.yul\":4450:4488   */\n  tag_68\n  jump\t// in\ntag_149:\n    /* \"#utility.yul\":4534:4563   */\n  tag_150\n    /* \"#utility.yul\":4552:4562   */\n  dup5\n    /* \"#utility.yul\":4534:4563   */\n  tag_69\n  jump\t// in\ntag_150:\n    /* \"#utility.yul\":4524:4532   */\n  dup2\n    /* \"#utility.yul\":4520:4564   */\n  add\n    /* \"#utility.yul\":4717:4719   */\n  0x20\n    /* \"#utility.yul\":4705:4715   */\n  dup6\n    /* \"#utility.yul\":4702:4720   */\n  lt\n    /* \"#utility.yul\":4699:4748   */\n  iszero\n  tag_151\n  jumpi\n    /* \"#utility.yul\":4738:4746   */\n  dup2\n    /* \"#utility.yul\":4723:4746   */\n  swap1\n  pop\n    /* \"#utility.yul\":4699:4748   */\ntag_151:\n    /* \"#utility.yul\":4761:4841   */\n  tag_152\n    /* \"#utility.yul\":4817:4839   */\n  tag_153\n    /* \"#utility.yul\":4835:4838   */\n  dup6\n    /* \"#utility.yul\":4817:4839   */\n  tag_69\n  jump\t// in\ntag_153:\n    /* \"#utility.yul\":4807:4815   */\n  dup4\n    /* \"#utility.yul\":4803:4840   */\n  add\n    /* \"#utility.yul\":4790:4801   */\n  dup3\n    /* \"#utility.yul\":4761:4841   */\n  tag_78\n  jump\t// in\ntag_152:\n    /* \"#utility.yul\":4420:4851   */\n  pop\n  pop\n    /* \"#utility.yul\":4405:4851   */\ntag_148:\n    /* \"#utility.yul\":4315:4858   */\n  pop\n  pop\n  pop\n  jump\t// out\n    /* \"#utility.yul\":4864:4981   */\ntag_80:\n    /* \"#utility.yul\":4918:4926   */\n  0x00\n    /* \"#utility.yul\":4968:4973   */\n  dup3\n    /* \"#utility.yul\":4962:4966   */\n  dup3\n    /* \"#utility.yul\":4958:4974   */\n  shr\n    /* \"#utility.yul\":4937:4974   */\n  swap1\n  pop\n    /* \"#utility.yul\":4864:4981   */\n  swap3\n  swap2\n  pop\n  pop\n  jump\t// out\n    /* \"#utility.yul\":4987:5156   */\ntag_81:\n    /* \"#utility.yul\":5031:5037   */\n  0x00\n    /* \"#utility.yul\":5064:5115   */\n  tag_156\n    /* \"#utility.yul\":5112:5113   */\n  0x00\n    /* \"#utility.yul\":5108:5114   */\n  not\n    /* \"#utility.yul\":5100:5105   */\n  dup5\n    /* \"#utility.yul\":5097:5098   */\n  0x08\n    /* \"#utility.yul\":5093:5106   */\n  mul\n    /* \"#utility.yul\":5064:5115   */\n  tag_80\n  jump\t// in\ntag_156:\n    /* \"#utility.yul\":5060:5116   */\n  not\n    /* \"#utility.yul\":5145:5149   */\n  dup1\n    /* \"#utility.yul\":5139:5143   */\n  dup4\n    /* \"#utility.yul\":5135:5150   */\n  and\n    /* \"#utility.yul\":5125:5150   */\n  swap2\n  pop\n    /* \"#utility.yul\":5038:5156   */\n  pop\n    /* \"#utility.yul\":4987:5156   */\n  swap3\n  swap2\n  pop\n  pop\n  jump\t// out\n    /* \"#utility.yul\":5161:5456   */\ntag_82:\n    /* \"#utility.yul\":5237:5241   */\n  0x00\n    /* \"#utility.yul\":5383:5412   */\n  tag_158\n    /* \"#utility.yul\":5408:5411   */\n  dup4\n    /* \"#utility.yul\":5402:5406   */\n  dup4\n    /* \"#utility.yul\":5383:5412   */\n  tag_81\n  jump\t// in\ntag_158:\n    /* \"#utility.yul\":5375:5412   */\n  swap2\n  pop\n    /* \"#utility.yul\":5445:5448   */\n  dup3\n    /* \"#utility.yul\":5442:5443   */\n  0x02\n    /* \"#utility.yul\":5438:5449   */\n  mul\n    /* \"#utility.yul\":5432:5436   */\n  dup3\n    /* \"#utility.yul\":5429:5450   */\n  or\n    /* \"#utility.yul\":5421:5450   */\n  swap1\n  pop\n    /* \"#utility.yul\":5161:5456   */\n  swap3\n  swap2\n  pop\n  pop\n  jump\t// out\n    /* \"#utility.yul\":5461:6856   */\ntag_9:\n    /* \"#utility.yul\":5578:5615   */\n  tag_160\n    /* \"#utility.yul\":5611:5614   */\n  dup3\n    /* \"#utility.yul\":5578:5615   */\n  tag_64\n  jump\t// in\ntag_160:\n    /* \"#utility.yul\":5680:5698   */\n  0xffffffffffffffff\n    /* \"#utility.yul\":5672:5678   */\n  dup2\n    /* \"#utility.yul\":5669:5699   */\n  gt\n    /* \"#utility.yul\":5666:5722   */\n  iszero\n  tag_161\n  jumpi\n    /* \"#utility.yul\":5702:5720   */\n  tag_162\n  tag_65\n  jump\t// in\ntag_162:\n    /* \"#utility.yul\":5666:5722   */\ntag_161:\n    /* \"#utility.yul\":5746:5784   */\n  tag_163\n    /* \"#utility.yul\":5778:5782   */\n  dup3\n    /* \"#utility.yul\":5772:5783   */\n  sload\n    /* \"#utility.yul\":5746:5784   */\n  tag_67\n  jump\t// in\ntag_163:\n    /* \"#utility.yul\":5831:5898   */\n  tag_164\n    /* \"#utility.yul\":5891:5897   */\n  dup3\n    /* \"#utility.yul\":5883:5889   */\n  dup3\n    /* \"#utility.yul\":5877:5881   */\n  dup6\n    /* \"#utility.yul\":5831:5898   */\n  tag_79\n  jump\t// in\ntag_164:\n    /* \"#utility.yul\":5925:5926   */\n  0x00\n    /* \"#utility.yul\":5949:5953   */\n  0x20\n    /* \"#utility.yul\":5936:5953   */\n  swap1\n  pop\n    /* \"#utility.yul\":5981:5983   */\n  0x1f\n    /* \"#utility.yul\":5973:5979   */\n  dup4\n    /* \"#utility.yul\":5970:5984   */\n  gt\n    /* \"#utility.yul\":5998:5999   */\n  0x01\n    /* \"#utility.yul\":5993:6611   */\n  dup2\n  eq\n  tag_166\n  jumpi\n    /* \"#utility.yul\":6655:6656   */\n  0x00\n    /* \"#utility.yul\":6672:6678   */\n  dup5\n    /* \"#utility.yul\":6669:6746   */\n  iszero\n  tag_167\n  jumpi\n    /* \"#utility.yul\":6721:6730   */\n  dup3\n    /* \"#utility.yul\":6716:6719   */\n  dup8\n    /* \"#utility.yul\":6712:6731   */\n  add\n    /* \"#utility.yul\":6706:6732   */\n  mload\n    /* \"#utility.yul\":6697:6732   */\n  swap1\n  pop\n    /* \"#utility.yul\":6669:6746   */\ntag_167:\n    /* \"#utility.yul\":6772:6839   */\n  tag_168\n    /* \"#utility.yul\":6832:6838   */\n  dup6\n    /* \"#utility.yul\":6825:6830   */\n  dup3\n    /* \"#utility.yul\":6772:6839   */\n  tag_82\n  jump\t// in\ntag_168:\n    /* \"#utility.yul\":6766:6770   */\n  dup7\n    /* \"#utility.yul\":6759:6840   */\n  sstore\n    /* \"#utility.yul\":6628:6850   */\n  pop\n    /* \"#utility.yul\":5963:6850   */\n  jump(tag_165)\n    /* \"#utility.yul\":5993:6611   */\ntag_166:\n    /* \"#utility.yul\":6045:6049   */\n  0x1f\n    /* \"#utility.yul\":6041:6050   */\n  not\n    /* \"#utility.yul\":6033:6039   */\n  dup5\n    /* \"#utility.yul\":6029:6051   */\n  and\n    /* \"#utility.yul\":6079:6116   */\n  tag_169\n    /* \"#utility.yul\":6111:6115   */\n  dup7\n    /* \"#utility.yul\":6079:6116   */\n  tag_68\n  jump\t// in\ntag_169:\n    /* \"#utility.yul\":6138:6139   */\n  0x00\n    /* \"#utility.yul\":6152:6360   */\ntag_170:\n    /* \"#utility.yul\":6166:6173   */\n  dup3\n    /* \"#utility.yul\":6163:6164   */\n  dup2\n    /* \"#utility.yul\":6160:6174   */\n  lt\n    /* \"#utility.yul\":6152:6360   */\n  iszero\n  tag_172\n  jumpi\n    /* \"#utility.yul\":6245:6254   */\n  dup5\n    /* \"#utility.yul\":6240:6243   */\n  dup10\n    /* \"#utility.yul\":6236:6255   */\n  add\n    /* \"#utility.yul\":6230:6256   */\n  mload\n    /* \"#utility.yul\":6222:6228   */\n  dup3\n    /* \"#utility.yul\":6215:6257   */\n  sstore\n    /* \"#utility.yul\":6296:6297   */\n  0x01\n    /* \"#utility.yul\":6288:6294   */\n  dup3\n    /* \"#utility.yul\":6284:6298   */\n  add\n    /* \"#utility.yul\":6274:6298   */\n  swap2\n  pop\n    /* \"#utility.yul\":6343:6345   */\n  0x20\n    /* \"#utility.yul\":6332:6341   */\n  dup6\n    /* \"#utility.yul\":6328:6346   */\n  add\n    /* \"#utility.yul\":6315:6346   */\n  swap5\n  pop\n    /* \"#utility.yul\":6189:6193   */\n  0x20\n    /* \"#utility.yul\":6186:6187   */\n  dup2\n    /* \"#utility.yul\":6182:6194   */\n  add\n    /* \"#utility.yul\":6177:6194   */\n  swap1\n  pop\n    /* \"#utility.yul\":6152:6360   */\n  jump(tag_170)\ntag_172:\n    /* \"#utility.yul\":6388:6394   */\n  dup7\n    /* \"#utility.yul\":6379:6386   */\n  dup4\n    /* \"#utility.yul\":6376:6395   */\n  lt\n    /* \"#utility.yul\":6373:6552   */\n  iszero\n  tag_173\n  jumpi\n    /* \"#utility.yul\":6446:6455   */\n  dup5\n    /* \"#utility.yul\":6441:6444   */\n  dup10\n    /* \"#utility.yul\":6437:6456   */\n  add\n    /* \"#utility.yul\":6431:6457   */\n  mload\n    /* \"#utility.yul\":6489:6537   */\n  tag_174\n    /* \"#utility.yul\":6531:6535   */\n  0x1f\n    /* \"#utility.yul\":6523:6529   */\n  dup10\n    /* \"#utility.yul\":6519:6536   */\n  and\n    /* \"#utility.yul\":6508:6517   */\n  dup3\n    /* \"#utility.yul\":6489:6537   */\n  tag_81\n  jump\t// in\ntag_174:\n    /* \"#utility.yul\":6481:6487   */\n  dup4\n    /* \"#utility.yul\":6474:6538   */\n  sstore\n    /* \"#utility.yul\":6396:6552   */\n  pop\n    /* \"#utility.yul\":6373:6552   */\ntag_173:\n    /* \"#utility.yul\":6598:6599   */\n  0x01\n    /* \"#utility.yul\":6594:6595   */\n  0x02\n    /* \"#utility.yul\":6586:6592   */\n  dup9\n    /* \"#utility.yul\":6582:6596   */\n  mul\n    /* \"#utility.yul\":6578:6600   */\n  add\n    /* \"#utility.yul\":6572:6576   */\n  dup9\n    /* \"#utility.yul\":6565:6601   */\n  sstore\n    /* \"#utility.yul\":6000:6611   */\n  pop\n  pop\n  pop\n    /* \"#utility.yul\":5963:6850   */\ntag_165:\n  pop\n    /* \"#utility.yul\":5553:6856   */\n  pop\n  pop\n  pop\n    /* \"#utility.yul\":5461:6856   */\n  pop\n  pop\n  jump\t// out\n    /* \"#utility.yul\":6862:7031   */\ntag_83:\n    /* \"#utility.yul\":6946:6957   */\n  0x00\n    /* \"#utility.yul\":6980:6986   */\n  dup3\n    /* \"#utility.yul\":6975:6978   */\n  dup3\n    /* \"#utility.yul\":6968:6987   */\n  mstore\n    /* \"#utility.yul\":7020:7024   */\n  0x20\n    /* \"#utility.yul\":7015:7018   */\n  dup3\n    /* \"#utility.yul\":7011:7025   */\n  add\n    /* \"#utility.yul\":6996:7025   */\n  swap1\n  pop\n    /* \"#utility.yul\":6862:7031   */\n  swap3\n  swap2\n  pop\n  pop\n  jump\t// out\n    /* \"#utility.yul\":7037:7218   */\ntag_84:\n    /* \"#utility.yul\":7177:7210   */\n  0x45524332303a206d696e7420746f20746865207a65726f206164647265737300\n    /* \"#utility.yul\":7173:7174   */\n  0x00\n    /* \"#utility.yul\":7165:7171   */\n  dup3\n    /* \"#utility.yul\":7161:7175   */\n  add\n    /* \"#utility.yul\":7154:7211   */\n  mstore\n    /* \"#utility.yul\":7037:7218   */\n  pop\n  jump\t// out\n    /* \"#utility.yul\":7224:7590   */\ntag_85:\n    /* \"#utility.yul\":7366:7369   */\n  0x00\n    /* \"#utility.yul\":7387:7454   */\n  tag_178\n    /* \"#utility.yul\":7451:7453   */\n  0x1f\n    /* \"#utility.yul\":7446:7449   */\n  dup4\n    /* \"#utility.yul\":7387:7454   */\n  tag_83\n  jump\t// in\ntag_178:\n    /* \"#utility.yul\":7380:7454   */\n  swap2\n  pop\n    /* \"#utility.yul\":7463:7556   */\n  tag_179\n    /* \"#utility.yul\":7552:7555   */\n  dup3\n    /* \"#utility.yul\":7463:7556   */\n  tag_84\n  jump\t// in\ntag_179:\n    /* \"#utility.yul\":7581:7583   */\n  0x20\n    /* \"#utility.yul\":7576:7579   */\n  dup3\n    /* \"#utility.yul\":7572:7584   */\n  add\n    /* \"#utility.yul\":7565:7584   */\n  swap1\n  pop\n    /* \"#utility.yul\":7224:7590   */\n  swap2\n  swap1\n  pop\n  jump\t// out\n    /* \"#utility.yul\":7596:8015   */\ntag_27:\n    /* \"#utility.yul\":7762:7766   */\n  0x00\n    /* \"#utility.yul\":7800:7802   */\n  0x20\n    /* \"#utility.yul\":7789:7798   */\n  dup3\n    /* \"#utility.yul\":7785:7803   */\n  add\n    /* \"#utility.yul\":7777:7803   */\n  swap1\n  pop\n    /* \"#utility.yul\":7849:7858   */\n  dup2\n    /* \"#utility.yul\":7843:7847   */\n  dup2\n    /* \"#utility.yul\":7839:7859   */\n  sub\n    /* \"#utility.yul\":7835:7836   */\n  0x00\n    /* \"#utility.yul\":7824:7833   */\n  dup4\n    /* \"#utility.yul\":7820:7837   */\n  add\n    /* \"#utility.yul\":7813:7860   */\n  mstore\n    /* \"#utility.yul\":7877:8008   */\n  tag_181\n    /* \"#utility.yul\":8003:8007   */\n  dup2\n    /* \"#utility.yul\":7877:8008   */\n  tag_85\n  jump\t// in\ntag_181:\n    /* \"#utility.yul\":7869:8008   */\n  swap1\n  pop\n    /* \"#utility.yul\":7596:8015   */\n  swap2\n  swap1\n  pop\n  jump\t// out\n    /* \"#utility.yul\":8021:8201   */\ntag_86:\n    /* \"#utility.yul\":8069:8146   */\n  0x4e487b7100000000000000000000000000000000000000000000000000000000\n    /* \"#utility.yul\":8066:8067   */\n  0x00\n    /* \"#utility.yul\":8059:8147   */\n  mstore\n    /* \"#utility.yul\":8166:8170   */\n  0x11\n    /* \"#utility.yul\":8163:8164   */\n  0x04\n    /* \"#utility.yul\":8156:8171   */\n  mstore\n    /* \"#utility.yul\":8190:8194   */\n  0x24\n    /* \"#utility.yul\":8187:8188   */\n  0x00\n    /* \"#utility.yul\":8180:8195   */\n  revert\n    /* \"#utility.yul\":8207:8398   */\ntag_31:\n    /* \"#utility.yul\":8247:8250   */\n  0x00\n    /* \"#utility.yul\":8266:8286   */\n  tag_184\n    /* \"#utility.yul\":8284:8285   */\n  dup3\n    /* \"#utility.yul\":8266:8286   */\n  tag_61\n  jump\t// in\ntag_184:\n    /* \"#utility.yul\":8261:8286   */\n  swap2\n  pop\n    /* \"#utility.yul\":8300:8320   */\n  tag_185\n    /* \"#utility.yul\":8318:8319   */\n  dup4\n    /* \"#utility.yul\":8300:8320   */\n  tag_61\n  jump\t// in\ntag_185:\n    /* \"#utility.yul\":8295:8320   */\n  swap3\n  pop\n    /* \"#utility.yul\":8343:8344   */\n  dup3\n    /* \"#utility.yul\":8340:8341   */\n  dup3\n    /* \"#utility.yul\":8336:8345   */\n  add\n    /* \"#utility.yul\":8329:8345   */\n  swap1\n  pop\n    /* \"#utility.yul\":8364:8367   */\n  dup1\n    /* \"#utility.yul\":8361:8362   */\n  dup3\n    /* \"#utility.yul\":8358:8368   */\n  gt\n    /* \"#utility.yul\":8355:8391   */\n  iszero\n  tag_186\n  jumpi\n    /* \"#utility.yul\":8371:8389   */\n  tag_187\n  tag_86\n  jump\t// in\ntag_187:\n    /* \"#utility.yul\":8355:8391   */\ntag_186:\n    /* \"#utility.yul\":8207:8398   */\n  swap3\n  swap2\n  pop\n  pop\n  jump\t// out\n    /* \"#utility.yul\":8404:8522   */\ntag_87:\n    /* \"#utility.yul\":8491:8515   */\n  tag_189\n    /* \"#utility.yul\":8509:8514   */\n  dup2\n    /* \"#utility.yul\":8491:8515   */\n  tag_61\n  jump\t// in\ntag_189:\n    /* \"#utility.yul\":8486:8489   */\n  dup3\n    /* \"#utility.yul\":8479:8516   */\n  mstore\n    /* \"#utility.yul\":8404:8522   */\n  pop\n  pop\n  jump\t// out\n    /* \"#utility.yul\":8528:8750   */\ntag_33:\n    /* \"#utility.yul\":8621:8625   */\n  0x00\n    /* \"#utility.yul\":8659:8661   */\n  0x20\n    /* \"#utility.yul\":8648:8657   */\n  dup3\n    /* \"#utility.yul\":8644:8662   */\n  add\n    /* \"#utility.yul\":8636:8662   */\n  swap1\n  pop\n    /* \"#utility.yul\":8672:8743   */\n  tag_191\n    /* \"#utility.yul\":8740:8741   */\n  0x00\n    /* \"#utility.yul\":8729:8738   */\n  dup4\n    /* \"#utility.yul\":8725:8742   */\n  add\n    /* \"#utility.yul\":8716:8722   */\n  dup5\n    /* \"#utility.yul\":8672:8743   */\n  tag_87\n  jump\t// in\ntag_191:\n    /* \"#utility.yul\":8528:8750   */\n  swap3\n  swap2\n  pop\n  pop\n  jump\t// out\n    /* \"#utility.yul\":8756:8981   */\ntag_88:\n    /* \"#utility.yul\":8896:8930   */\n  0x4f776e61626c653a206e6577206f776e657220697320746865207a65726f2061\n    /* \"#utility.yul\":8892:8893   */\n  0x00\n    /* \"#utility.yul\":8884:8890   */\n  dup3\n    /* \"#utility.yul\":8880:8894   */\n  add\n    /* \"#utility.yul\":8873:8931   */\n  mstore\n    /* \"#utility.yul\":8965:8973   */\n  0x6464726573730000000000000000000000000000000000000000000000000000\n    /* \"#utility.yul\":8960:8962   */\n  0x20\n    /* \"#utility.yul\":8952:8958   */\n  dup3\n    /* \"#utility.yul\":8948:8963   */\n  add\n    /* \"#utility.yul\":8941:8974   */\n  mstore\n    /* \"#utility.yul\":8756:8981   */\n  pop\n  jump\t// out\n    /* \"#utility.yul\":8987:9353   */\ntag_89:\n    /* \"#utility.yul\":9129:9132   */\n  0x00\n    /* \"#utility.yul\":9150:9217   */\n  tag_194\n    /* \"#utility.yul\":9214:9216   */\n  0x26\n    /* \"#utility.yul\":9209:9212   */\n  dup4\n    /* \"#utility.yul\":9150:9217   */\n  tag_83\n  jump\t// in\ntag_194:\n    /* \"#utility.yul\":9143:9217   */\n  swap2\n  pop\n    /* \"#utility.yul\":9226:9319   */\n  tag_195\n    /* \"#utility.yul\":9315:9318   */\n  dup3\n    /* \"#utility.yul\":9226:9319   */\n  tag_88\n  jump\t// in\ntag_195:\n    /* \"#utility.yul\":9344:9346   */\n  0x40\n    /* \"#utility.yul\":9339:9342   */\n  dup3\n    /* \"#utility.yul\":9335:9347   */\n  add\n    /* \"#utility.yul\":9328:9347   */\n  swap1\n  pop\n    /* \"#utility.yul\":8987:9353   */\n  swap2\n  swap1\n  pop\n  jump\t// out\n    /* \"#utility.yul\":9359:9778   */\ntag_42:\n    /* \"#utility.yul\":9525:9529   */\n  0x00\n    /* \"#utility.yul\":9563:9565   */\n  0x20\n    /* \"#utility.yul\":9552:9561   */\n  dup3\n    /* \"#utility.yul\":9548:9566   */\n  add\n    /* \"#utility.yul\":9540:9566   */\n  swap1\n  pop\n    /* \"#utility.yul\":9612:9621   */\n  dup2\n    /* \"#utility.yul\":9606:9610   */\n  dup2\n    /* \"#utility.yul\":9602:9622   */\n  sub\n    /* \"#utility.yul\":9598:9599   */\n  0x00\n    /* \"#utility.yul\":9587:9596   */\n  dup4\n    /* \"#utility.yul\":9583:9600   */\n  add\n    /* \"#utility.yul\":9576:9623   */\n  mstore\n    /* \"#utility.yul\":9640:9771   */\n  tag_197\n    /* \"#utility.yul\":9766:9770   */\n  dup2\n    /* \"#utility.yul\":9640:9771   */\n  tag_89\n  jump\t// in\ntag_197:\n    /* \"#utility.yul\":9632:9771   */\n  swap1\n  pop\n    /* \"#utility.yul\":9359:9778   */\n  swap2\n  swap1\n  pop\n  jump\t// out\n    /* \"#utility.yul\":9784:9966   */\ntag_90:\n    /* \"#utility.yul\":9924:9958   */\n  0x4f776e61626c653a2063616c6c6572206973206e6f7420746865206f776e6572\n    /* \"#utility.yul\":9920:9921   */\n  0x00\n    /* \"#utility.yul\":9912:9918   */\n  dup3\n    /* \"#utility.yul\":9908:9922   */\n  add\n    /* \"#utility.yul\":9901:9959   */\n  mstore\n    /* \"#utility.yul\":9784:9966   */\n  pop\n  jump\t// out\n    /* \"#utility.yul\":9972:10338   */\ntag_91:\n    /* \"#utility.yul\":10114:10117   */\n  0x00\n    /* \"#utility.yul\":10135:10202   */\n  tag_200\n    /* \"#utility.yul\":10199:10201   */\n  0x20\n    /* \"#utility.yul\":10194:10197   */\n  dup4\n    /* \"#utility.yul\":10135:10202   */\n  tag_83\n  jump\t// in\ntag_200:\n    /* \"#utility.yul\":10128:10202   */\n  swap2\n  pop\n    /* \"#utility.yul\":10211:10304   */\n  tag_201\n    /* \"#utility.yul\":10300:10303   */\n  dup3\n    /* \"#utility.yul\":10211:10304   */\n  tag_90\n  jump\t// in\ntag_201:\n    /* \"#utility.yul\":10329:10331   */\n  0x20\n    /* \"#utility.yul\":10324:10327   */\n  dup3\n    /* \"#utility.yul\":10320:10332   */\n  add\n    /* \"#utility.yul\":10313:10332   */\n  swap1\n  pop\n    /* \"#utility.yul\":9972:10338   */\n  swap2\n  swap1\n  pop\n  jump\t// out\n    /* \"#utility.yul\":10344:10763   */\ntag_52:\n    /* \"#utility.yul\":10510:10514   */\n  0x00\n    /* \"#utility.yul\":10548:10550   */\n  0x20\n    /* \"#utility.yul\":10537:10546   */\n  dup3\n    /* \"#utility.yul\":10533:10551   */\n  add\n    /* \"#utility.yul\":10525:10551   */\n  swap1\n  pop\n    /* \"#utility.yul\":10597:10606   */\n  dup2\n    /* \"#utility.yul\":10591:10595   */\n  dup2\n    /* \"#utility.yul\":10587:10607   */\n  sub\n    /* \"#utility.yul\":10583:10584   */\n  0x00\n    /* \"#utility.yul\":10572:10581   */\n  dup4\n    /* \"#utility.yul\":10568:10585   */\n  add\n    /* \"#utility.yul\":10561:10608   */\n  mstore\n    /* \"#utility.yul\":10625:10756   */\n  tag_203\n    /* \"#utility.yul\":10751:10755   */\n  dup2\n    /* \"#utility.yul\":10625:10756   */\n  tag_91\n  jump\t// in\ntag_203:\n    /* \"#utility.yul\":10617:10756   */\n  swap1\n  pop\n    /* \"#utility.yul\":10344:10763   */\n  swap2\n  swap1\n  pop\n  jump\t// out\n    /* \"contracts/ERC20.sol\":305:1294  contract MyToken is ERC20, Ownable {... */\ntag_21:\n  dataSize(sub_0)\n  dup1\n  dataOffset(sub_0)\n  0x00\n  codecopy\n  0x00\n  return\nstop\n\nsub_0: assembly {\n        /* \"contracts/ERC20.sol\":305:1294  contract MyToken is ERC20, Ownable {... */\n      mstore(0x40, 0x80)\n      jumpi(tag_1, lt(calldatasize, 0x04))\n      shr(0xe0, calldataload(0x00))\n      dup1\n      0x70a08231\n      gt\n      tag_18\n      jumpi\n      dup1\n      0xa457c2d7\n      gt\n      tag_19\n      jumpi\n      dup1\n      0xa457c2d7\n      eq\n      tag_14\n      jumpi\n      dup1\n      0xa9059cbb\n      eq\n      tag_15\n      jumpi\n      dup1\n      0xdd62ed3e\n      eq\n      tag_16\n      jumpi\n      dup1\n      0xf2fde38b\n      eq\n      tag_17\n      jumpi\n      jump(tag_1)\n    tag_19:\n      dup1\n      0x70a08231\n      eq\n      tag_10\n      jumpi\n      dup1\n      0x715018a6\n      eq\n      tag_11\n      jumpi\n      dup1\n      0x8da5cb5b\n      eq\n      tag_12\n      jumpi\n      dup1\n      0x95d89b41\n      eq\n      tag_13\n      jumpi\n      jump(tag_1)\n    tag_18:\n      dup1\n      0x313ce567\n      gt\n      tag_20\n      jumpi\n      dup1\n      0x313ce567\n      eq\n      tag_6\n      jumpi\n      dup1\n      0x3610724e\n      eq\n      tag_7\n      jumpi\n      dup1\n      0x39509351\n      eq\n      tag_8\n      jumpi\n      dup1\n      0x6c11bcd3\n      eq\n      tag_9\n      jumpi\n      jump(tag_1)\n    tag_20:\n      dup1\n      0x06fdde03\n      eq\n      tag_2\n      jumpi\n      dup1\n      0x095ea7b3\n      eq\n      tag_3\n      jumpi\n      dup1\n      0x18160ddd\n      eq\n      tag_4\n      jumpi\n      dup1\n      0x23b872dd\n      eq\n      tag_5\n      jumpi\n    tag_1:\n      0x00\n      dup1\n      revert\n        /* \"https://github.com/OpenZeppelin/openzeppelin-contracts/blob/master/contracts/token/ERC20/ERC20.sol\":2158:2256  function name() public view virtual override returns (string memory) {... */\n    tag_2:\n      callvalue\n      dup1\n      iszero\n      tag_21\n      jumpi\n      0x00\n      dup1\n      revert\n    tag_21:\n      pop\n      tag_22\n      tag_23\n      jump\t// in\n    tag_22:\n      mload(0x40)\n      tag_24\n      swap2\n      swap1\n      tag_25\n      jump\t// in\n    tag_24:\n      mload(0x40)\n      dup1\n      swap2\n      sub\n      swap1\n      return\n        /* \"https://github.com/OpenZeppelin/openzeppelin-contracts/blob/master/contracts/token/ERC20/ERC20.sol\":4444:4641  function approve(address spender, uint256 amount) public virtual override returns (bool) {... */\n    tag_3:\n      callvalue\n      dup1\n      iszero\n      tag_26\n      jumpi\n      0x00\n      dup1\n      revert\n    tag_26:\n      pop\n      tag_27\n      0x04\n      dup1\n      calldatasize\n      sub\n      dup2\n      add\n      swap1\n      tag_28\n      swap2\n      swap1\n      tag_29\n      jump\t// in\n    tag_28:\n      tag_30\n      jump\t// in\n    tag_27:\n      mload(0x40)\n      tag_31\n      swap2\n      swap1\n      tag_32\n      jump\t// in\n    tag_31:\n      mload(0x40)\n      dup1\n      swap2\n      sub\n      swap1\n      return\n        /* \"https://github.com/OpenZeppelin/openzeppelin-contracts/blob/master/contracts/token/ERC20/ERC20.sol\":3255:3361  function totalSupply() public view virtual override returns (uint256) {... */\n    tag_4:\n      callvalue\n      dup1\n      iszero\n      tag_33\n      jumpi\n      0x00\n      dup1\n      revert\n    tag_33:\n      pop\n      tag_34\n      tag_35\n      jump\t// in\n    tag_34:\n      mload(0x40)\n      tag_36\n      swap2\n      swap1\n      tag_37\n      jump\t// in\n    tag_36:\n      mload(0x40)\n      dup1\n      swap2\n      sub\n      swap1\n      return\n        /* \"https://github.com/OpenZeppelin/openzeppelin-contracts/blob/master/contracts/token/ERC20/ERC20.sol\":5203:5459  function transferFrom(address from, address to, uint256 amount) public virtual override returns (bool) {... */\n    tag_5:\n      callvalue\n      dup1\n      iszero\n      tag_38\n      jumpi\n      0x00\n      dup1\n      revert\n    tag_38:\n      pop\n      tag_39\n      0x04\n      dup1\n      calldatasize\n      sub\n      dup2\n      add\n      swap1\n      tag_40\n      swap2\n      swap1\n      tag_41\n      jump\t// in\n    tag_40:\n      tag_42\n      jump\t// in\n    tag_39:\n      mload(0x40)\n      tag_43\n      swap2\n      swap1\n      tag_32\n      jump\t// in\n    tag_43:\n      mload(0x40)\n      dup1\n      swap2\n      sub\n      swap1\n      return\n        /* \"https://github.com/OpenZeppelin/openzeppelin-contracts/blob/master/contracts/token/ERC20/ERC20.sol\":3104:3195  function decimals() public view virtual override returns (uint8) {... */\n    tag_6:\n      callvalue\n      dup1\n      iszero\n      tag_44\n      jumpi\n      0x00\n      dup1\n      revert\n    tag_44:\n      pop\n      tag_45\n      tag_46\n      jump\t// in\n    tag_45:\n      mload(0x40)\n      tag_47\n      swap2\n      swap1\n      tag_48\n      jump\t// in\n    tag_47:\n      mload(0x40)\n      dup1\n      swap2\n      sub\n      swap1\n      return\n        /* \"contracts/ERC20.sol\":530:834  function buyTokens(uint256 amountTobuy) payable public {... */\n    tag_7:\n      tag_49\n      0x04\n      dup1\n      calldatasize\n      sub\n      dup2\n      add\n      swap1\n      tag_50\n      swap2\n      swap1\n      tag_51\n      jump\t// in\n    tag_50:\n      tag_52\n      jump\t// in\n    tag_49:\n      stop\n        /* \"https://github.com/OpenZeppelin/openzeppelin-contracts/blob/master/contracts/token/ERC20/ERC20.sol\":5854:6088  function increaseAllowance(address spender, uint256 addedValue) public virtual returns (bool) {... */\n    tag_8:\n      callvalue\n      dup1\n      iszero\n      tag_53\n      jumpi\n      0x00\n      dup1\n      revert\n    tag_53:\n      pop\n      tag_54\n      0x04\n      dup1\n      calldatasize\n      sub\n      dup2\n      add\n      swap1\n      tag_55\n      swap2\n      swap1\n      tag_29\n      jump\t// in\n    tag_55:\n      tag_56\n      jump\t// in\n    tag_54:\n      mload(0x40)\n      tag_57\n      swap2\n      swap1\n      tag_32\n      jump\t// in\n    tag_57:\n      mload(0x40)\n      dup1\n      swap2\n      sub\n      swap1\n      return\n        /* \"contracts/ERC20.sol\":842:1204  function sellTokens(uint256 amount) public {... */\n    tag_9:\n      callvalue\n      dup1\n      iszero\n      tag_58\n      jumpi\n      0x00\n      dup1\n      revert\n    tag_58:\n      pop\n      tag_59\n      0x04\n      dup1\n      calldatasize\n      sub\n      dup2\n      add\n      swap1\n      tag_60\n      swap2\n      swap1\n      tag_51\n      jump\t// in\n    tag_60:\n      tag_61\n      jump\t// in\n    tag_59:\n      stop\n        /* \"https://github.com/OpenZeppelin/openzeppelin-contracts/blob/master/contracts/token/ERC20/ERC20.sol\":3419:3544  function balanceOf(address account) public view virtual override returns (uint256) {... */\n    tag_10:\n      callvalue\n      dup1\n      iszero\n      tag_62\n      jumpi\n      0x00\n      dup1\n      revert\n    tag_62:\n      pop\n      tag_63\n      0x04\n      dup1\n      calldatasize\n      sub\n      dup2\n      add\n      swap1\n      tag_64\n      swap2\n      swap1\n      tag_65\n      jump\t// in\n    tag_64:\n      tag_66\n      jump\t// in\n    tag_63:\n      mload(0x40)\n      tag_67\n      swap2\n      swap1\n      tag_37\n      jump\t// in\n    tag_67:\n      mload(0x40)\n      dup1\n      swap2\n      sub\n      swap1\n      return\n        /* \"https://github.com/OpenZeppelin/openzeppelin-contracts/blob/master/contracts/access/Ownable.sol\":1824:1925  function renounceOwnership() public virtual onlyOwner {... */\n    tag_11:\n      callvalue\n      dup1\n      iszero\n      tag_68\n      jumpi\n      0x00\n      dup1\n      revert\n    tag_68:\n      pop\n      tag_69\n      tag_70\n      jump\t// in\n    tag_69:\n      stop\n        /* \"https://github.com/OpenZeppelin/openzeppelin-contracts/blob/master/contracts/access/Ownable.sol\":1201:1286  function owner() public view virtual returns (address) {... */\n    tag_12:\n      callvalue\n      dup1\n      iszero\n      tag_71\n      jumpi\n      0x00\n      dup1\n      revert\n    tag_71:\n      pop\n      tag_72\n      tag_73\n      jump\t// in\n    tag_72:\n      mload(0x40)\n      tag_74\n      swap2\n      swap1\n      tag_75\n      jump\t// in\n    tag_74:\n      mload(0x40)\n      dup1\n      swap2\n      sub\n      swap1\n      return\n        /* \"https://github.com/OpenZeppelin/openzeppelin-contracts/blob/master/contracts/token/ERC20/ERC20.sol\":2369:2471  function symbol() public view virtual override returns (string memory) {... */\n    tag_13:\n      callvalue\n      dup1\n      iszero\n      tag_76\n      jumpi\n      0x00\n      dup1\n      revert\n    tag_76:\n      pop\n      tag_77\n      tag_78\n      jump\t// in\n    tag_77:\n      mload(0x40)\n      tag_79\n      swap2\n      swap1\n      tag_25\n      jump\t// in\n    tag_79:\n      mload(0x40)\n      dup1\n      swap2\n      sub\n      swap1\n      return\n        /* \"https://github.com/OpenZeppelin/openzeppelin-contracts/blob/master/contracts/token/ERC20/ERC20.sol\":6575:7002  function decreaseAllowance(address spender, uint256 subtractedValue) public virtual returns (bool) {... */\n    tag_14:\n      callvalue\n      dup1\n      iszero\n      tag_80\n      jumpi\n      0x00\n      dup1\n      revert\n    tag_80:\n      pop\n      tag_81\n      0x04\n      dup1\n      calldatasize\n      sub\n      dup2\n      add\n      swap1\n      tag_82\n      swap2\n      swap1\n      tag_29\n      jump\t// in\n    tag_82:\n      tag_83\n      jump\t// in\n    tag_81:\n      mload(0x40)\n      tag_84\n      swap2\n      swap1\n      tag_32\n      jump\t// in\n    tag_84:\n      mload(0x40)\n      dup1\n      swap2\n      sub\n      swap1\n      return\n        /* \"https://github.com/OpenZeppelin/openzeppelin-contracts/blob/master/contracts/token/ERC20/ERC20.sol\":3740:3929  function transfer(address to, uint256 amount) public virtual override returns (bool) {... */\n    tag_15:\n      callvalue\n      dup1\n      iszero\n      tag_85\n      jumpi\n      0x00\n      dup1\n      revert\n    tag_85:\n      pop\n      tag_86\n      0x04\n      dup1\n      calldatasize\n      sub\n      dup2\n      add\n      swap1\n      tag_87\n      swap2\n      swap1\n      tag_29\n      jump\t// in\n    tag_87:\n      tag_88\n      jump\t// in\n    tag_86:\n      mload(0x40)\n      tag_89\n      swap2\n      swap1\n      tag_32\n      jump\t// in\n    tag_89:\n      mload(0x40)\n      dup1\n      swap2\n      sub\n      swap1\n      return\n        /* \"https://github.com/OpenZeppelin/openzeppelin-contracts/blob/master/contracts/token/ERC20/ERC20.sol\":3987:4136  function allowance(address owner, address spender) public view virtual override returns (uint256) {... */\n    tag_16:\n      callvalue\n      dup1\n      iszero\n      tag_90\n      jumpi\n      0x00\n      dup1\n      revert\n    tag_90:\n      pop\n      tag_91\n      0x04\n      dup1\n      calldatasize\n      sub\n      dup2\n      add\n      swap1\n      tag_92\n      swap2\n      swap1\n      tag_93\n      jump\t// in\n    tag_92:\n      tag_94\n      jump\t// in\n    tag_91:\n      mload(0x40)\n      tag_95\n      swap2\n      swap1\n      tag_37\n      jump\t// in\n    tag_95:\n      mload(0x40)\n      dup1\n      swap2\n      sub\n      swap1\n      return\n        /* \"https://github.com/OpenZeppelin/openzeppelin-contracts/blob/master/contracts/access/Ownable.sol\":2074:2272  function transferOwnership(address newOwner) public virtual onlyOwner {... */\n    tag_17:\n      callvalue\n      dup1\n      iszero\n      tag_96\n      jumpi\n      0x00\n      dup1\n      revert\n    tag_96:\n      pop\n      tag_97\n      0x04\n      dup1\n      calldatasize\n      sub\n      dup2\n      add\n      swap1\n      tag_98\n      swap2\n      swap1\n      tag_65\n      jump\t// in\n    tag_98:\n      tag_99\n      jump\t// in\n    tag_97:\n      stop\n        /* \"https://github.com/OpenZeppelin/openzeppelin-contracts/blob/master/contracts/token/ERC20/ERC20.sol\":2158:2256  function name() public view virtual override returns (string memory) {... */\n    tag_23:\n        /* \"https://github.com/OpenZeppelin/openzeppelin-contracts/blob/master/contracts/token/ERC20/ERC20.sol\":2212:2225  string memory */\n      0x60\n        /* \"https://github.com/OpenZeppelin/openzeppelin-contracts/blob/master/contracts/token/ERC20/ERC20.sol\":2244:2249  _name */\n      0x03\n        /* \"https://github.com/OpenZeppelin/openzeppelin-contracts/blob/master/contracts/token/ERC20/ERC20.sol\":2237:2249  return _name */\n      dup1\n      sload\n      tag_101\n      swap1\n      tag_102\n      jump\t// in\n    tag_101:\n      dup1\n      0x1f\n      add\n      0x20\n      dup1\n      swap2\n      div\n      mul\n      0x20\n      add\n      mload(0x40)\n      swap1\n      dup2\n      add\n      0x40\n      mstore\n      dup1\n      swap3\n      swap2\n      swap1\n      dup2\n      dup2\n      mstore\n      0x20\n      add\n      dup3\n      dup1\n      sload\n      tag_103\n      swap1\n      tag_102\n      jump\t// in\n    tag_103:\n      dup1\n      iszero\n      tag_104\n      jumpi\n      dup1\n      0x1f\n      lt\n      tag_105\n      jumpi\n      0x0100\n      dup1\n      dup4\n      sload\n      div\n      mul\n      dup4\n      mstore\n      swap2\n      0x20\n      add\n      swap2\n      jump(tag_104)\n    tag_105:\n      dup3\n      add\n      swap2\n      swap1\n      0x00\n      mstore\n      keccak256(0x00, 0x20)\n      swap1\n    tag_106:\n      dup2\n      sload\n      dup2\n      mstore\n      swap1\n      0x01\n      add\n      swap1\n      0x20\n      add\n      dup1\n      dup4\n      gt\n      tag_106\n      jumpi\n      dup3\n      swap1\n      sub\n      0x1f\n      and\n      dup3\n      add\n      swap2\n    tag_104:\n      pop\n      pop\n      pop\n      pop\n      pop\n      swap1\n      pop\n        /* \"https://github.com/OpenZeppelin/openzeppelin-contracts/blob/master/contracts/token/ERC20/ERC20.sol\":2158:2256  function name() public view virtual override returns (string memory) {... */\n      swap1\n      jump\t// out\n        /* \"https://github.com/OpenZeppelin/openzeppelin-contracts/blob/master/contracts/token/ERC20/ERC20.sol\":4444:4641  function approve(address spender, uint256 amount) public virtual override returns (bool) {... */\n    tag_30:\n        /* \"https://github.com/OpenZeppelin/openzeppelin-contracts/blob/master/contracts/token/ERC20/ERC20.sol\":4527:4531  bool */\n      0x00\n        /* \"https://github.com/OpenZeppelin/openzeppelin-contracts/blob/master/contracts/token/ERC20/ERC20.sol\":4543:4556  address owner */\n      dup1\n        /* \"https://github.com/OpenZeppelin/openzeppelin-contracts/blob/master/contracts/token/ERC20/ERC20.sol\":4559:4571  _msgSender() */\n      tag_108\n        /* \"https://github.com/OpenZeppelin/openzeppelin-contracts/blob/master/contracts/token/ERC20/ERC20.sol\":4559:4569  _msgSender */\n      tag_109\n        /* \"https://github.com/OpenZeppelin/openzeppelin-contracts/blob/master/contracts/token/ERC20/ERC20.sol\":4559:4571  _msgSender() */\n      jump\t// in\n    tag_108:\n        /* \"https://github.com/OpenZeppelin/openzeppelin-contracts/blob/master/contracts/token/ERC20/ERC20.sol\":4543:4571  address owner = _msgSender() */\n      swap1\n      pop\n        /* \"https://github.com/OpenZeppelin/openzeppelin-contracts/blob/master/contracts/token/ERC20/ERC20.sol\":4581:4613  _approve(owner, spender, amount) */\n      tag_110\n        /* \"https://github.com/OpenZeppelin/openzeppelin-contracts/blob/master/contracts/token/ERC20/ERC20.sol\":4590:4595  owner */\n      dup2\n        /* \"https://github.com/OpenZeppelin/openzeppelin-contracts/blob/master/contracts/token/ERC20/ERC20.sol\":4597:4604  spender */\n      dup6\n        /* \"https://github.com/OpenZeppelin/openzeppelin-contracts/blob/master/contracts/token/ERC20/ERC20.sol\":4606:4612  amount */\n      dup6\n        /* \"https://github.com/OpenZeppelin/openzeppelin-contracts/blob/master/contracts/token/ERC20/ERC20.sol\":4581:4589  _approve */\n      tag_111\n        /* \"https://github.com/OpenZeppelin/openzeppelin-contracts/blob/master/contracts/token/ERC20/ERC20.sol\":4581:4613  _approve(owner, spender, amount) */\n      jump\t// in\n    tag_110:\n        /* \"https://github.com/OpenZeppelin/openzeppelin-contracts/blob/master/contracts/token/ERC20/ERC20.sol\":4630:4634  true */\n      0x01\n        /* \"https://github.com/OpenZeppelin/openzeppelin-contracts/blob/master/contracts/token/ERC20/ERC20.sol\":4623:4634  return true */\n      swap2\n      pop\n      pop\n        /* \"https://github.com/OpenZeppelin/openzeppelin-contracts/blob/master/contracts/token/ERC20/ERC20.sol\":4444:4641  function approve(address spender, uint256 amount) public virtual override returns (bool) {... */\n      swap3\n      swap2\n      pop\n      pop\n      jump\t// out\n        /* \"https://github.com/OpenZeppelin/openzeppelin-contracts/blob/master/contracts/token/ERC20/ERC20.sol\":3255:3361  function totalSupply() public view virtual override returns (uint256) {... */\n    tag_35:\n        /* \"https://github.com/OpenZeppelin/openzeppelin-contracts/blob/master/contracts/token/ERC20/ERC20.sol\":3316:3323  uint256 */\n      0x00\n        /* \"https://github.com/OpenZeppelin/openzeppelin-contracts/blob/master/contracts/token/ERC20/ERC20.sol\":3342:3354  _totalSupply */\n      sload(0x02)\n        /* \"https://github.com/OpenZeppelin/openzeppelin-contracts/blob/master/contracts/token/ERC20/ERC20.sol\":3335:3354  return _totalSupply */\n      swap1\n      pop\n        /* \"https://github.com/OpenZeppelin/openzeppelin-contracts/blob/master/contracts/token/ERC20/ERC20.sol\":3255:3361  function totalSupply() public view virtual override returns (uint256) {... */\n      swap1\n      jump\t// out\n        /* \"https://github.com/OpenZeppelin/openzeppelin-contracts/blob/master/contracts/token/ERC20/ERC20.sol\":5203:5459  function transferFrom(address from, address to, uint256 amount) public virtual override returns (bool) {... */\n    tag_42:\n        /* \"https://github.com/OpenZeppelin/openzeppelin-contracts/blob/master/contracts/token/ERC20/ERC20.sol\":5300:5304  bool */\n      0x00\n        /* \"https://github.com/OpenZeppelin/openzeppelin-contracts/blob/master/contracts/token/ERC20/ERC20.sol\":5316:5331  address spender */\n      dup1\n        /* \"https://github.com/OpenZeppelin/openzeppelin-contracts/blob/master/contracts/token/ERC20/ERC20.sol\":5334:5346  _msgSender() */\n      tag_114\n        /* \"https://github.com/OpenZeppelin/openzeppelin-contracts/blob/master/contracts/token/ERC20/ERC20.sol\":5334:5344  _msgSender */\n      tag_109\n        /* \"https://github.com/OpenZeppelin/openzeppelin-contracts/blob/master/contracts/token/ERC20/ERC20.sol\":5334:5346  _msgSender() */\n      jump\t// in\n    tag_114:\n        /* \"https://github.com/OpenZeppelin/openzeppelin-contracts/blob/master/contracts/token/ERC20/ERC20.sol\":5316:5346  address spender = _msgSender() */\n      swap1\n      pop\n        /* \"https://github.com/OpenZeppelin/openzeppelin-contracts/blob/master/contracts/token/ERC20/ERC20.sol\":5356:5394  _spendAllowance(from, spender, amount) */\n      tag_115\n        /* \"https://github.com/OpenZeppelin/openzeppelin-contracts/blob/master/contracts/token/ERC20/ERC20.sol\":5372:5376  from */\n      dup6\n        /* \"https://github.com/OpenZeppelin/openzeppelin-contracts/blob/master/contracts/token/ERC20/ERC20.sol\":5378:5385  spender */\n      dup3\n        /* \"https://github.com/OpenZeppelin/openzeppelin-contracts/blob/master/contracts/token/ERC20/ERC20.sol\":5387:5393  amount */\n      dup6\n        /* \"https://github.com/OpenZeppelin/openzeppelin-contracts/blob/master/contracts/token/ERC20/ERC20.sol\":5356:5371  _spendAllowance */\n      tag_116\n        /* \"https://github.com/OpenZeppelin/openzeppelin-contracts/blob/master/contracts/token/ERC20/ERC20.sol\":5356:5394  _spendAllowance(from, spender, amount) */\n      jump\t// in\n    tag_115:\n        /* \"https://github.com/OpenZeppelin/openzeppelin-contracts/blob/master/contracts/token/ERC20/ERC20.sol\":5404:5431  _transfer(from, to, amount) */\n      tag_117\n        /* \"https://github.com/OpenZeppelin/openzeppelin-contracts/blob/master/contracts/token/ERC20/ERC20.sol\":5414:5418  from */\n      dup6\n        /* \"https://github.com/OpenZeppelin/openzeppelin-contracts/blob/master/contracts/token/ERC20/ERC20.sol\":5420:5422  to */\n      dup6\n        /* \"https://github.com/OpenZeppelin/openzeppelin-contracts/blob/master/contracts/token/ERC20/ERC20.sol\":5424:5430  amount */\n      dup6\n        /* \"https://github.com/OpenZeppelin/openzeppelin-contracts/blob/master/contracts/token/ERC20/ERC20.sol\":5404:5413  _transfer */\n      tag_118\n        /* \"https://github.com/OpenZeppelin/openzeppelin-contracts/blob/master/contracts/token/ERC20/ERC20.sol\":5404:5431  _transfer(from, to, amount) */\n      jump\t// in\n    tag_117:\n        /* \"https://github.com/OpenZeppelin/openzeppelin-contracts/blob/master/contracts/token/ERC20/ERC20.sol\":5448:5452  true */\n      0x01\n        /* \"https://github.com/OpenZeppelin/openzeppelin-contracts/blob/master/contracts/token/ERC20/ERC20.sol\":5441:5452  return true */\n      swap2\n      pop\n      pop\n        /* \"https://github.com/OpenZeppelin/openzeppelin-contracts/blob/master/contracts/token/ERC20/ERC20.sol\":5203:5459  function transferFrom(address from, address to, uint256 amount) public virtual override returns (bool) {... */\n      swap4\n      swap3\n      pop\n      pop\n      pop\n      jump\t// out\n        /* \"https://github.com/OpenZeppelin/openzeppelin-contracts/blob/master/contracts/token/ERC20/ERC20.sol\":3104:3195  function decimals() public view virtual override returns (uint8) {... */\n    tag_46:\n        /* \"https://github.com/OpenZeppelin/openzeppelin-contracts/blob/master/contracts/token/ERC20/ERC20.sol\":3162:3167  uint8 */\n      0x00\n        /* \"https://github.com/OpenZeppelin/openzeppelin-contracts/blob/master/contracts/token/ERC20/ERC20.sol\":3186:3188  18 */\n      0x12\n        /* \"https://github.com/OpenZeppelin/openzeppelin-contracts/blob/master/contracts/token/ERC20/ERC20.sol\":3179:3188  return 18 */\n      swap1\n      pop\n        /* \"https://github.com/OpenZeppelin/openzeppelin-contracts/blob/master/contracts/token/ERC20/ERC20.sol\":3104:3195  function decimals() public view virtual override returns (uint8) {... */\n      swap1\n      jump\t// out\n        /* \"contracts/ERC20.sol\":530:834  function buyTokens(uint256 amountTobuy) payable public {... */\n    tag_52:\n        /* \"contracts/ERC20.sol\":596:611  uint256 balance */\n      0x00\n        /* \"contracts/ERC20.sol\":614:638  balanceOf(address(this)) */\n      tag_121\n        /* \"contracts/ERC20.sol\":632:636  this */\n      address\n        /* \"contracts/ERC20.sol\":614:623  balanceOf */\n      tag_66\n        /* \"contracts/ERC20.sol\":614:638  balanceOf(address(this)) */\n      jump\t// in\n    tag_121:\n        /* \"contracts/ERC20.sol\":596:638  uint256 balance = balanceOf(address(this)) */\n      swap1\n      pop\n        /* \"contracts/ERC20.sol\":671:672  0 */\n      0x00\n        /* \"contracts/ERC20.sol\":657:668  amountTobuy */\n      dup3\n        /* \"contracts/ERC20.sol\":657:672  amountTobuy > 0 */\n      gt\n        /* \"contracts/ERC20.sol\":649:704  require(amountTobuy > 0, \"You need to send some ether\") */\n      tag_122\n      jumpi\n      mload(0x40)\n      0x08c379a000000000000000000000000000000000000000000000000000000000\n      dup2\n      mstore\n      0x04\n      add\n      tag_123\n      swap1\n      tag_124\n      jump\t// in\n    tag_123:\n      mload(0x40)\n      dup1\n      swap2\n      sub\n      swap1\n      revert\n    tag_122:\n        /* \"contracts/ERC20.sol\":738:745  balance */\n      dup1\n        /* \"contracts/ERC20.sol\":723:734  amountTobuy */\n      dup3\n        /* \"contracts/ERC20.sol\":723:745  amountTobuy <= balance */\n      gt\n      iszero\n        /* \"contracts/ERC20.sol\":715:782  require(amountTobuy <= balance, \"Not enough tokens in the reserve\") */\n      tag_125\n      jumpi\n      mload(0x40)\n      0x08c379a000000000000000000000000000000000000000000000000000000000\n      dup2\n      mstore\n      0x04\n      add\n      tag_126\n      swap1\n      tag_127\n      jump\t// in\n    tag_126:\n      mload(0x40)\n      dup1\n      swap2\n      sub\n      swap1\n      revert\n    tag_125:\n        /* \"contracts/ERC20.sol\":793:826  transfer(msg.sender, amountTobuy) */\n      tag_128\n        /* \"contracts/ERC20.sol\":802:812  msg.sender */\n      caller\n        /* \"contracts/ERC20.sol\":814:825  amountTobuy */\n      dup4\n        /* \"contracts/ERC20.sol\":793:801  transfer */\n      tag_88\n        /* \"contracts/ERC20.sol\":793:826  transfer(msg.sender, amountTobuy) */\n      jump\t// in\n    tag_128:\n      pop\n        /* \"contracts/ERC20.sol\":585:834  {... */\n      pop\n        /* \"contracts/ERC20.sol\":530:834  function buyTokens(uint256 amountTobuy) payable public {... */\n      pop\n      jump\t// out\n        /* \"https://github.com/OpenZeppelin/openzeppelin-contracts/blob/master/contracts/token/ERC20/ERC20.sol\":5854:6088  function increaseAllowance(address spender, uint256 addedValue) public virtual returns (bool) {... */\n    tag_56:\n        /* \"https://github.com/OpenZeppelin/openzeppelin-contracts/blob/master/contracts/token/ERC20/ERC20.sol\":5942:5946  bool */\n      0x00\n        /* \"https://github.com/OpenZeppelin/openzeppelin-contracts/blob/master/contracts/token/ERC20/ERC20.sol\":5958:5971  address owner */\n      dup1\n        /* \"https://github.com/OpenZeppelin/openzeppelin-contracts/blob/master/contracts/token/ERC20/ERC20.sol\":5974:5986  _msgSender() */\n      tag_130\n        /* \"https://github.com/OpenZeppelin/openzeppelin-contracts/blob/master/contracts/token/ERC20/ERC20.sol\":5974:5984  _msgSender */\n      tag_109\n        /* \"https://github.com/OpenZeppelin/openzeppelin-contracts/blob/master/contracts/token/ERC20/ERC20.sol\":5974:5986  _msgSender() */\n      jump\t// in\n    tag_130:\n        /* \"https://github.com/OpenZeppelin/openzeppelin-contracts/blob/master/contracts/token/ERC20/ERC20.sol\":5958:5986  address owner = _msgSender() */\n      swap1\n      pop\n        /* \"https://github.com/OpenZeppelin/openzeppelin-contracts/blob/master/contracts/token/ERC20/ERC20.sol\":5996:6060  _approve(owner, spender, allowance(owner, spender) + addedValue) */\n      tag_131\n        /* \"https://github.com/OpenZeppelin/openzeppelin-contracts/blob/master/contracts/token/ERC20/ERC20.sol\":6005:6010  owner */\n      dup2\n        /* \"https://github.com/OpenZeppelin/openzeppelin-contracts/blob/master/contracts/token/ERC20/ERC20.sol\":6012:6019  spender */\n      dup6\n        /* \"https://github.com/OpenZeppelin/openzeppelin-contracts/blob/master/contracts/token/ERC20/ERC20.sol\":6049:6059  addedValue */\n      dup6\n        /* \"https://github.com/OpenZeppelin/openzeppelin-contracts/blob/master/contracts/token/ERC20/ERC20.sol\":6021:6046  allowance(owner, spender) */\n      tag_132\n        /* \"https://github.com/OpenZeppelin/openzeppelin-contracts/blob/master/contracts/token/ERC20/ERC20.sol\":6031:6036  owner */\n      dup6\n        /* \"https://github.com/OpenZeppelin/openzeppelin-contracts/blob/master/contracts/token/ERC20/ERC20.sol\":6038:6045  spender */\n      dup10\n        /* \"https://github.com/OpenZeppelin/openzeppelin-contracts/blob/master/contracts/token/ERC20/ERC20.sol\":6021:6030  allowance */\n      tag_94\n        /* \"https://github.com/OpenZeppelin/openzeppelin-contracts/blob/master/contracts/token/ERC20/ERC20.sol\":6021:6046  allowance(owner, spender) */\n      jump\t// in\n    tag_132:\n        /* \"https://github.com/OpenZeppelin/openzeppelin-contracts/blob/master/contracts/token/ERC20/ERC20.sol\":6021:6059  allowance(owner, spender) + addedValue */\n      tag_133\n      swap2\n      swap1\n      tag_134\n      jump\t// in\n    tag_133:\n        /* \"https://github.com/OpenZeppelin/openzeppelin-contracts/blob/master/contracts/token/ERC20/ERC20.sol\":5996:6004  _approve */\n      tag_111\n        /* \"https://github.com/OpenZeppelin/openzeppelin-contracts/blob/master/contracts/token/ERC20/ERC20.sol\":5996:6060  _approve(owner, spender, allowance(owner, spender) + addedValue) */\n      jump\t// in\n    tag_131:\n        /* \"https://github.com/OpenZeppelin/openzeppelin-contracts/blob/master/contracts/token/ERC20/ERC20.sol\":6077:6081  true */\n      0x01\n        /* \"https://github.com/OpenZeppelin/openzeppelin-contracts/blob/master/contracts/token/ERC20/ERC20.sol\":6070:6081  return true */\n      swap2\n      pop\n      pop\n        /* \"https://github.com/OpenZeppelin/openzeppelin-contracts/blob/master/contracts/token/ERC20/ERC20.sol\":5854:6088  function increaseAllowance(address spender, uint256 addedValue) public virtual returns (bool) {... */\n      swap3\n      swap2\n      pop\n      pop\n      jump\t// out\n        /* \"contracts/ERC20.sol\":842:1204  function sellTokens(uint256 amount) public {... */\n    tag_61:\n        /* \"contracts/ERC20.sol\":913:914  0 */\n      0x00\n        /* \"contracts/ERC20.sol\":904:910  amount */\n      dup2\n        /* \"contracts/ERC20.sol\":904:914  amount > 0 */\n      gt\n        /* \"contracts/ERC20.sol\":896:956  require(amount > 0, \"You need to sell at least some tokens\") */\n      tag_136\n      jumpi\n      mload(0x40)\n      0x08c379a000000000000000000000000000000000000000000000000000000000\n      dup2\n      mstore\n      0x04\n      add\n      tag_137\n      swap1\n      tag_138\n      jump\t// in\n    tag_137:\n      mload(0x40)\n      dup1\n      swap2\n      sub\n      swap1\n      revert\n    tag_136:\n        /* \"contracts/ERC20.sol\":967:984  uint256 allowance */\n      0x00\n        /* \"contracts/ERC20.sol\":987:1023  allowance(msg.sender, address(this)) */\n      tag_139\n        /* \"contracts/ERC20.sol\":997:1007  msg.sender */\n      caller\n        /* \"contracts/ERC20.sol\":1017:1021  this */\n      address\n        /* \"contracts/ERC20.sol\":987:996  allowance */\n      tag_94\n        /* \"contracts/ERC20.sol\":987:1023  allowance(msg.sender, address(this)) */\n      jump\t// in\n    tag_139:\n        /* \"contracts/ERC20.sol\":967:1023  uint256 allowance = allowance(msg.sender, address(this)) */\n      swap1\n      pop\n        /* \"contracts/ERC20.sol\":1055:1061  amount */\n      dup2\n        /* \"contracts/ERC20.sol\":1042:1051  allowance */\n      dup2\n        /* \"contracts/ERC20.sol\":1042:1061  allowance >= amount */\n      lt\n      iszero\n        /* \"contracts/ERC20.sol\":1034:1091  require(allowance >= amount, \"Check the token allowance\") */\n      tag_140\n      jumpi\n      mload(0x40)\n      0x08c379a000000000000000000000000000000000000000000000000000000000\n      dup2\n      mstore\n      0x04\n      add\n      tag_141\n      swap1\n      tag_142\n      jump\t// in\n    tag_141:\n      mload(0x40)\n      dup1\n      swap2\n      sub\n      swap1\n      revert\n    tag_140:\n        /* \"contracts/ERC20.sol\":1102:1149  transferFrom(msg.sender, address(this), amount) */\n      tag_143\n        /* \"contracts/ERC20.sol\":1115:1125  msg.sender */\n      caller\n        /* \"contracts/ERC20.sol\":1135:1139  this */\n      address\n        /* \"contracts/ERC20.sol\":1142:1148  amount */\n      dup5\n        /* \"contracts/ERC20.sol\":1102:1114  transferFrom */\n      tag_42\n        /* \"contracts/ERC20.sol\":1102:1149  transferFrom(msg.sender, address(this), amount) */\n      jump\t// in\n    tag_143:\n      pop\n        /* \"contracts/ERC20.sol\":1168:1178  msg.sender */\n      caller\n        /* \"contracts/ERC20.sol\":1160:1188  payable(msg.sender).transfer */\n      0xffffffffffffffffffffffffffffffffffffffff\n      and\n        /* \"contracts/ERC20.sol\":1160:1196  payable(msg.sender).transfer(amount) */\n      0x08fc\n        /* \"contracts/ERC20.sol\":1189:1195  amount */\n      dup4\n        /* \"contracts/ERC20.sol\":1160:1196  payable(msg.sender).transfer(amount) */\n      swap1\n      dup2\n      iszero\n      mul\n      swap1\n      mload(0x40)\n      0x00\n      mload(0x40)\n      dup1\n      dup4\n      sub\n      dup2\n      dup6\n      dup9\n      dup9\n      call\n      swap4\n      pop\n      pop\n      pop\n      pop\n      iszero\n      dup1\n      iszero\n      tag_145\n      jumpi\n      returndatasize\n      0x00\n      dup1\n      returndatacopy\n      revert(0x00, returndatasize)\n    tag_145:\n      pop\n        /* \"contracts/ERC20.sol\":885:1204  {... */\n      pop\n        /* \"contracts/ERC20.sol\":842:1204  function sellTokens(uint256 amount) public {... */\n      pop\n      jump\t// out\n        /* \"https://github.com/OpenZeppelin/openzeppelin-contracts/blob/master/contracts/token/ERC20/ERC20.sol\":3419:3544  function balanceOf(address account) public view virtual override returns (uint256) {... */\n    tag_66:\n        /* \"https://github.com/OpenZeppelin/openzeppelin-contracts/blob/master/contracts/token/ERC20/ERC20.sol\":3493:3500  uint256 */\n      0x00\n        /* \"https://github.com/OpenZeppelin/openzeppelin-contracts/blob/master/contracts/token/ERC20/ERC20.sol\":3519:3528  _balances */\n      dup1\n        /* \"https://github.com/OpenZeppelin/openzeppelin-contracts/blob/master/contracts/token/ERC20/ERC20.sol\":3519:3537  _balances[account] */\n      0x00\n        /* \"https://github.com/OpenZeppelin/openzeppelin-contracts/blob/master/contracts/token/ERC20/ERC20.sol\":3529:3536  account */\n      dup4\n        /* \"https://github.com/OpenZeppelin/openzeppelin-contracts/blob/master/contracts/token/ERC20/ERC20.sol\":3519:3537  _balances[account] */\n      0xffffffffffffffffffffffffffffffffffffffff\n      and\n      0xffffffffffffffffffffffffffffffffffffffff\n      and\n      dup2\n      mstore\n      0x20\n      add\n      swap1\n      dup2\n      mstore\n      0x20\n      add\n      0x00\n      keccak256\n      sload\n        /* \"https://github.com/OpenZeppelin/openzeppelin-contracts/blob/master/contracts/token/ERC20/ERC20.sol\":3512:3537  return _balances[account] */\n      swap1\n      pop\n        /* \"https://github.com/OpenZeppelin/openzeppelin-contracts/blob/master/contracts/token/ERC20/ERC20.sol\":3419:3544  function balanceOf(address account) public view virtual override returns (uint256) {... */\n      swap2\n      swap1\n      pop\n      jump\t// out\n        /* \"https://github.com/OpenZeppelin/openzeppelin-contracts/blob/master/contracts/access/Ownable.sol\":1824:1925  function renounceOwnership() public virtual onlyOwner {... */\n    tag_70:\n        /* \"https://github.com/OpenZeppelin/openzeppelin-contracts/blob/master/contracts/access/Ownable.sol\":1094:1107  _checkOwner() */\n      tag_148\n        /* \"https://github.com/OpenZeppelin/openzeppelin-contracts/blob/master/contracts/access/Ownable.sol\":1094:1105  _checkOwner */\n      tag_149\n        /* \"https://github.com/OpenZeppelin/openzeppelin-contracts/blob/master/contracts/access/Ownable.sol\":1094:1107  _checkOwner() */\n      jump\t// in\n    tag_148:\n        /* \"https://github.com/OpenZeppelin/openzeppelin-contracts/blob/master/contracts/access/Ownable.sol\":1888:1918  _transferOwnership(address(0)) */\n      tag_151\n        /* \"https://github.com/OpenZeppelin/openzeppelin-contracts/blob/master/contracts/access/Ownable.sol\":1915:1916  0 */\n      0x00\n        /* \"https://github.com/OpenZeppelin/openzeppelin-contracts/blob/master/contracts/access/Ownable.sol\":1888:1906  _transferOwnership */\n      tag_152\n        /* \"https://github.com/OpenZeppelin/openzeppelin-contracts/blob/master/contracts/access/Ownable.sol\":1888:1918  _transferOwnership(address(0)) */\n      jump\t// in\n    tag_151:\n        /* \"https://github.com/OpenZeppelin/openzeppelin-contracts/blob/master/contracts/access/Ownable.sol\":1824:1925  function renounceOwnership() public virtual onlyOwner {... */\n      jump\t// out\n        /* \"https://github.com/OpenZeppelin/openzeppelin-contracts/blob/master/contracts/access/Ownable.sol\":1201:1286  function owner() public view virtual returns (address) {... */\n    tag_73:\n        /* \"https://github.com/OpenZeppelin/openzeppelin-contracts/blob/master/contracts/access/Ownable.sol\":1247:1254  address */\n      0x00\n        /* \"https://github.com/OpenZeppelin/openzeppelin-contracts/blob/master/contracts/access/Ownable.sol\":1273:1279  _owner */\n      0x05\n      0x00\n      swap1\n      sload\n      swap1\n      0x0100\n      exp\n      swap1\n      div\n      0xffffffffffffffffffffffffffffffffffffffff\n      and\n        /* \"https://github.com/OpenZeppelin/openzeppelin-contracts/blob/master/contracts/access/Ownable.sol\":1266:1279  return _owner */\n      swap1\n      pop\n        /* \"https://github.com/OpenZeppelin/openzeppelin-contracts/blob/master/contracts/access/Ownable.sol\":1201:1286  function owner() public view virtual returns (address) {... */\n      swap1\n      jump\t// out\n        /* \"https://github.com/OpenZeppelin/openzeppelin-contracts/blob/master/contracts/token/ERC20/ERC20.sol\":2369:2471  function symbol() public view virtual override returns (string memory) {... */\n    tag_78:\n        /* \"https://github.com/OpenZeppelin/openzeppelin-contracts/blob/master/contracts/token/ERC20/ERC20.sol\":2425:2438  string memory */\n      0x60\n        /* \"https://github.com/OpenZeppelin/openzeppelin-contracts/blob/master/contracts/token/ERC20/ERC20.sol\":2457:2464  _symbol */\n      0x04\n        /* \"https://github.com/OpenZeppelin/openzeppelin-contracts/blob/master/contracts/token/ERC20/ERC20.sol\":2450:2464  return _symbol */\n      dup1\n      sload\n      tag_155\n      swap1\n      tag_102\n      jump\t// in\n    tag_155:\n      dup1\n      0x1f\n      add\n      0x20\n      dup1\n      swap2\n      div\n      mul\n      0x20\n      add\n      mload(0x40)\n      swap1\n      dup2\n      add\n      0x40\n      mstore\n      dup1\n      swap3\n      swap2\n      swap1\n      dup2\n      dup2\n      mstore\n      0x20\n      add\n      dup3\n      dup1\n      sload\n      tag_156\n      swap1\n      tag_102\n      jump\t// in\n    tag_156:\n      dup1\n      iszero\n      tag_157\n      jumpi\n      dup1\n      0x1f\n      lt\n      tag_158\n      jumpi\n      0x0100\n      dup1\n      dup4\n      sload\n      div\n      mul\n      dup4\n      mstore\n      swap2\n      0x20\n      add\n      swap2\n      jump(tag_157)\n    tag_158:\n      dup3\n      add\n      swap2\n      swap1\n      0x00\n      mstore\n      keccak256(0x00, 0x20)\n      swap1\n    tag_159:\n      dup2\n      sload\n      dup2\n      mstore\n      swap1\n      0x01\n      add\n      swap1\n      0x20\n      add\n      dup1\n      dup4\n      gt\n      tag_159\n      jumpi\n      dup3\n      swap1\n      sub\n      0x1f\n      and\n      dup3\n      add\n      swap2\n    tag_157:\n      pop\n      pop\n      pop\n      pop\n      pop\n      swap1\n      pop\n        /* \"https://github.com/OpenZeppelin/openzeppelin-contracts/blob/master/contracts/token/ERC20/ERC20.sol\":2369:2471  function symbol() public view virtual override returns (string memory) {... */\n      swap1\n      jump\t// out\n        /* \"https://github.com/OpenZeppelin/openzeppelin-contracts/blob/master/contracts/token/ERC20/ERC20.sol\":6575:7002  function decreaseAllowance(address spender, uint256 subtractedValue) public virtual returns (bool) {... */\n    tag_83:\n        /* \"https://github.com/OpenZeppelin/openzeppelin-contracts/blob/master/contracts/token/ERC20/ERC20.sol\":6668:6672  bool */\n      0x00\n        /* \"https://github.com/OpenZeppelin/openzeppelin-contracts/blob/master/contracts/token/ERC20/ERC20.sol\":6684:6697  address owner */\n      dup1\n        /* \"https://github.com/OpenZeppelin/openzeppelin-contracts/blob/master/contracts/token/ERC20/ERC20.sol\":6700:6712  _msgSender() */\n      tag_161\n        /* \"https://github.com/OpenZeppelin/openzeppelin-contracts/blob/master/contracts/token/ERC20/ERC20.sol\":6700:6710  _msgSender */\n      tag_109\n        /* \"https://github.com/OpenZeppelin/openzeppelin-contracts/blob/master/contracts/token/ERC20/ERC20.sol\":6700:6712  _msgSender() */\n      jump\t// in\n    tag_161:\n        /* \"https://github.com/OpenZeppelin/openzeppelin-contracts/blob/master/contracts/token/ERC20/ERC20.sol\":6684:6712  address owner = _msgSender() */\n      swap1\n      pop\n        /* \"https://github.com/OpenZeppelin/openzeppelin-contracts/blob/master/contracts/token/ERC20/ERC20.sol\":6722:6746  uint256 currentAllowance */\n      0x00\n        /* \"https://github.com/OpenZeppelin/openzeppelin-contracts/blob/master/contracts/token/ERC20/ERC20.sol\":6749:6774  allowance(owner, spender) */\n      tag_162\n        /* \"https://github.com/OpenZeppelin/openzeppelin-contracts/blob/master/contracts/token/ERC20/ERC20.sol\":6759:6764  owner */\n      dup3\n        /* \"https://github.com/OpenZeppelin/openzeppelin-contracts/blob/master/contracts/token/ERC20/ERC20.sol\":6766:6773  spender */\n      dup7\n        /* \"https://github.com/OpenZeppelin/openzeppelin-contracts/blob/master/contracts/token/ERC20/ERC20.sol\":6749:6758  allowance */\n      tag_94\n        /* \"https://github.com/OpenZeppelin/openzeppelin-contracts/blob/master/contracts/token/ERC20/ERC20.sol\":6749:6774  allowance(owner, spender) */\n      jump\t// in\n    tag_162:\n        /* \"https://github.com/OpenZeppelin/openzeppelin-contracts/blob/master/contracts/token/ERC20/ERC20.sol\":6722:6774  uint256 currentAllowance = allowance(owner, spender) */\n      swap1\n      pop\n        /* \"https://github.com/OpenZeppelin/openzeppelin-contracts/blob/master/contracts/token/ERC20/ERC20.sol\":6812:6827  subtractedValue */\n      dup4\n        /* \"https://github.com/OpenZeppelin/openzeppelin-contracts/blob/master/contracts/token/ERC20/ERC20.sol\":6792:6808  currentAllowance */\n      dup2\n        /* \"https://github.com/OpenZeppelin/openzeppelin-contracts/blob/master/contracts/token/ERC20/ERC20.sol\":6792:6827  currentAllowance >= subtractedValue */\n      lt\n      iszero\n        /* \"https://github.com/OpenZeppelin/openzeppelin-contracts/blob/master/contracts/token/ERC20/ERC20.sol\":6784:6869  require(currentAllowance >= subtractedValue, \"ERC20: decreased allowance below zero\") */\n      tag_163\n      jumpi\n      mload(0x40)\n      0x08c379a000000000000000000000000000000000000000000000000000000000\n      dup2\n      mstore\n      0x04\n      add\n      tag_164\n      swap1\n      tag_165\n      jump\t// in\n    tag_164:\n      mload(0x40)\n      dup1\n      swap2\n      sub\n      swap1\n      revert\n    tag_163:\n        /* \"https://github.com/OpenZeppelin/openzeppelin-contracts/blob/master/contracts/token/ERC20/ERC20.sol\":6903:6963  _approve(owner, spender, currentAllowance - subtractedValue) */\n      tag_166\n        /* \"https://github.com/OpenZeppelin/openzeppelin-contracts/blob/master/contracts/token/ERC20/ERC20.sol\":6912:6917  owner */\n      dup3\n        /* \"https://github.com/OpenZeppelin/openzeppelin-contracts/blob/master/contracts/token/ERC20/ERC20.sol\":6919:6926  spender */\n      dup7\n        /* \"https://github.com/OpenZeppelin/openzeppelin-contracts/blob/master/contracts/token/ERC20/ERC20.sol\":6947:6962  subtractedValue */\n      dup7\n        /* \"https://github.com/OpenZeppelin/openzeppelin-contracts/blob/master/contracts/token/ERC20/ERC20.sol\":6928:6944  currentAllowance */\n      dup5\n        /* \"https://github.com/OpenZeppelin/openzeppelin-contracts/blob/master/contracts/token/ERC20/ERC20.sol\":6928:6962  currentAllowance - subtractedValue */\n      sub\n        /* \"https://github.com/OpenZeppelin/openzeppelin-contracts/blob/master/contracts/token/ERC20/ERC20.sol\":6903:6911  _approve */\n      tag_111\n        /* \"https://github.com/OpenZeppelin/openzeppelin-contracts/blob/master/contracts/token/ERC20/ERC20.sol\":6903:6963  _approve(owner, spender, currentAllowance - subtractedValue) */\n      jump\t// in\n    tag_166:\n        /* \"https://github.com/OpenZeppelin/openzeppelin-contracts/blob/master/contracts/token/ERC20/ERC20.sol\":6991:6995  true */\n      0x01\n        /* \"https://github.com/OpenZeppelin/openzeppelin-contracts/blob/master/contracts/token/ERC20/ERC20.sol\":6984:6995  return true */\n      swap3\n      pop\n      pop\n      pop\n        /* \"https://github.com/OpenZeppelin/openzeppelin-contracts/blob/master/contracts/token/ERC20/ERC20.sol\":6575:7002  function decreaseAllowance(address spender, uint256 subtractedValue) public virtual returns (bool) {... */\n      swap3\n      swap2\n      pop\n      pop\n      jump\t// out\n        /* \"https://github.com/OpenZeppelin/openzeppelin-contracts/blob/master/contracts/token/ERC20/ERC20.sol\":3740:3929  function transfer(address to, uint256 amount) public virtual override returns (bool) {... */\n    tag_88:\n        /* \"https://github.com/OpenZeppelin/openzeppelin-contracts/blob/master/contracts/token/ERC20/ERC20.sol\":3819:3823  bool */\n      0x00\n        /* \"https://github.com/OpenZeppelin/openzeppelin-contracts/blob/master/contracts/token/ERC20/ERC20.sol\":3835:3848  address owner */\n      dup1\n        /* \"https://github.com/OpenZeppelin/openzeppelin-contracts/blob/master/contracts/token/ERC20/ERC20.sol\":3851:3863  _msgSender() */\n      tag_168\n        /* \"https://github.com/OpenZeppelin/openzeppelin-contracts/blob/master/contracts/token/ERC20/ERC20.sol\":3851:3861  _msgSender */\n      tag_109\n        /* \"https://github.com/OpenZeppelin/openzeppelin-contracts/blob/master/contracts/token/ERC20/ERC20.sol\":3851:3863  _msgSender() */\n      jump\t// in\n    tag_168:\n        /* \"https://github.com/OpenZeppelin/openzeppelin-contracts/blob/master/contracts/token/ERC20/ERC20.sol\":3835:3863  address owner = _msgSender() */\n      swap1\n      pop\n        /* \"https://github.com/OpenZeppelin/openzeppelin-contracts/blob/master/contracts/token/ERC20/ERC20.sol\":3873:3901  _transfer(owner, to, amount) */\n      tag_169\n        /* \"https://github.com/OpenZeppelin/openzeppelin-contracts/blob/master/contracts/token/ERC20/ERC20.sol\":3883:3888  owner */\n      dup2\n        /* \"https://github.com/OpenZeppelin/openzeppelin-contracts/blob/master/contracts/token/ERC20/ERC20.sol\":3890:3892  to */\n      dup6\n        /* \"https://github.com/OpenZeppelin/openzeppelin-contracts/blob/master/contracts/token/ERC20/ERC20.sol\":3894:3900  amount */\n      dup6\n        /* \"https://github.com/OpenZeppelin/openzeppelin-contracts/blob/master/contracts/token/ERC20/ERC20.sol\":3873:3882  _transfer */\n      tag_118\n        /* \"https://github.com/OpenZeppelin/openzeppelin-contracts/blob/master/contracts/token/ERC20/ERC20.sol\":3873:3901  _transfer(owner, to, amount) */\n      jump\t// in\n    tag_169:\n        /* \"https://github.com/OpenZeppelin/openzeppelin-contracts/blob/master/contracts/token/ERC20/ERC20.sol\":3918:3922  true */\n      0x01\n        /* \"https://github.com/OpenZeppelin/openzeppelin-contracts/blob/master/contracts/token/ERC20/ERC20.sol\":3911:3922  return true */\n      swap2\n      pop\n      pop\n        /* \"https://github.com/OpenZeppelin/openzeppelin-contracts/blob/master/contracts/token/ERC20/ERC20.sol\":3740:3929  function transfer(address to, uint256 amount) public virtual override returns (bool) {... */\n      swap3\n      swap2\n      pop\n      pop\n      jump\t// out\n        /* \"https://github.com/OpenZeppelin/openzeppelin-contracts/blob/master/contracts/token/ERC20/ERC20.sol\":3987:4136  function allowance(address owner, address spender) public view virtual override returns (uint256) {... */\n    tag_94:\n        /* \"https://github.com/OpenZeppelin/openzeppelin-contracts/blob/master/contracts/token/ERC20/ERC20.sol\":4076:4083  uint256 */\n      0x00\n        /* \"https://github.com/OpenZeppelin/openzeppelin-contracts/blob/master/contracts/token/ERC20/ERC20.sol\":4102:4113  _allowances */\n      0x01\n        /* \"https://github.com/OpenZeppelin/openzeppelin-contracts/blob/master/contracts/token/ERC20/ERC20.sol\":4102:4120  _allowances[owner] */\n      0x00\n        /* \"https://github.com/OpenZeppelin/openzeppelin-contracts/blob/master/contracts/token/ERC20/ERC20.sol\":4114:4119  owner */\n      dup5\n        /* \"https://github.com/OpenZeppelin/openzeppelin-contracts/blob/master/contracts/token/ERC20/ERC20.sol\":4102:4120  _allowances[owner] */\n      0xffffffffffffffffffffffffffffffffffffffff\n      and\n      0xffffffffffffffffffffffffffffffffffffffff\n      and\n      dup2\n      mstore\n      0x20\n      add\n      swap1\n      dup2\n      mstore\n      0x20\n      add\n      0x00\n      keccak256\n        /* \"https://github.com/OpenZeppelin/openzeppelin-contracts/blob/master/contracts/token/ERC20/ERC20.sol\":4102:4129  _allowances[owner][spender] */\n      0x00\n        /* \"https://github.com/OpenZeppelin/openzeppelin-contracts/blob/master/contracts/token/ERC20/ERC20.sol\":4121:4128  spender */\n      dup4\n        /* \"https://github.com/OpenZeppelin/openzeppelin-contracts/blob/master/contracts/token/ERC20/ERC20.sol\":4102:4129  _allowances[owner][spender] */\n      0xffffffffffffffffffffffffffffffffffffffff\n      and\n      0xffffffffffffffffffffffffffffffffffffffff\n      and\n      dup2\n      mstore\n      0x20\n      add\n      swap1\n      dup2\n      mstore\n      0x20\n      add\n      0x00\n      keccak256\n      sload\n        /* \"https://github.com/OpenZeppelin/openzeppelin-contracts/blob/master/contracts/token/ERC20/ERC20.sol\":4095:4129  return _allowances[owner][spender] */\n      swap1\n      pop\n        /* \"https://github.com/OpenZeppelin/openzeppelin-contracts/blob/master/contracts/token/ERC20/ERC20.sol\":3987:4136  function allowance(address owner, address spender) public view virtual override returns (uint256) {... */\n      swap3\n      swap2\n      pop\n      pop\n      jump\t// out\n        /* \"https://github.com/OpenZeppelin/openzeppelin-contracts/blob/master/contracts/access/Ownable.sol\":2074:2272  function transferOwnership(address newOwner) public virtual onlyOwner {... */\n    tag_99:\n        /* \"https://github.com/OpenZeppelin/openzeppelin-contracts/blob/master/contracts/access/Ownable.sol\":1094:1107  _checkOwner() */\n      tag_172\n        /* \"https://github.com/OpenZeppelin/openzeppelin-contracts/blob/master/contracts/access/Ownable.sol\":1094:1105  _checkOwner */\n      tag_149\n        /* \"https://github.com/OpenZeppelin/openzeppelin-contracts/blob/master/contracts/access/Ownable.sol\":1094:1107  _checkOwner() */\n      jump\t// in\n    tag_172:\n        /* \"https://github.com/OpenZeppelin/openzeppelin-contracts/blob/master/contracts/access/Ownable.sol\":2182:2183  0 */\n      0x00\n        /* \"https://github.com/OpenZeppelin/openzeppelin-contracts/blob/master/contracts/access/Ownable.sol\":2162:2184  newOwner != address(0) */\n      0xffffffffffffffffffffffffffffffffffffffff\n      and\n        /* \"https://github.com/OpenZeppelin/openzeppelin-contracts/blob/master/contracts/access/Ownable.sol\":2162:2170  newOwner */\n      dup2\n        /* \"https://github.com/OpenZeppelin/openzeppelin-contracts/blob/master/contracts/access/Ownable.sol\":2162:2184  newOwner != address(0) */\n      0xffffffffffffffffffffffffffffffffffffffff\n      and\n      sub\n        /* \"https://github.com/OpenZeppelin/openzeppelin-contracts/blob/master/contracts/access/Ownable.sol\":2154:2227  require(newOwner != address(0), \"Ownable: new owner is the zero address\") */\n      tag_174\n      jumpi\n      mload(0x40)\n      0x08c379a000000000000000000000000000000000000000000000000000000000\n      dup2\n      mstore\n      0x04\n      add\n      tag_175\n      swap1\n      tag_176\n      jump\t// in\n    tag_175:\n      mload(0x40)\n      dup1\n      swap2\n      sub\n      swap1\n      revert\n    tag_174:\n        /* \"https://github.com/OpenZeppelin/openzeppelin-contracts/blob/master/contracts/access/Ownable.sol\":2237:2265  _transferOwnership(newOwner) */\n      tag_177\n        /* \"https://github.com/OpenZeppelin/openzeppelin-contracts/blob/master/contracts/access/Ownable.sol\":2256:2264  newOwner */\n      dup2\n        /* \"https://github.com/OpenZeppelin/openzeppelin-contracts/blob/master/contracts/access/Ownable.sol\":2237:2255  _transferOwnership */\n      tag_152\n        /* \"https://github.com/OpenZeppelin/openzeppelin-contracts/blob/master/contracts/access/Ownable.sol\":2237:2265  _transferOwnership(newOwner) */\n      jump\t// in\n    tag_177:\n        /* \"https://github.com/OpenZeppelin/openzeppelin-contracts/blob/master/contracts/access/Ownable.sol\":2074:2272  function transferOwnership(address newOwner) public virtual onlyOwner {... */\n      pop\n      jump\t// out\n        /* \"https://github.com/OpenZeppelin/openzeppelin-contracts/blob/master/contracts/utils/Context.sol\":640:736  function _msgSender() internal view virtual returns (address) {... */\n    tag_109:\n        /* \"https://github.com/OpenZeppelin/openzeppelin-contracts/blob/master/contracts/utils/Context.sol\":693:700  address */\n      0x00\n        /* \"https://github.com/OpenZeppelin/openzeppelin-contracts/blob/master/contracts/utils/Context.sol\":719:729  msg.sender */\n      caller\n        /* \"https://github.com/OpenZeppelin/openzeppelin-contracts/blob/master/contracts/utils/Context.sol\":712:729  return msg.sender */\n      swap1\n      pop\n        /* \"https://github.com/OpenZeppelin/openzeppelin-contracts/blob/master/contracts/utils/Context.sol\":640:736  function _msgSender() internal view virtual returns (address) {... */\n      swap1\n      jump\t// out\n        /* \"https://github.com/OpenZeppelin/openzeppelin-contracts/blob/master/contracts/token/ERC20/ERC20.sol\":10457:10797  function _approve(address owner, address spender, uint256 amount) internal virtual {... */\n    tag_111:\n        /* \"https://github.com/OpenZeppelin/openzeppelin-contracts/blob/master/contracts/token/ERC20/ERC20.sol\":10575:10576  0 */\n      0x00\n        /* \"https://github.com/OpenZeppelin/openzeppelin-contracts/blob/master/contracts/token/ERC20/ERC20.sol\":10558:10577  owner != address(0) */\n      0xffffffffffffffffffffffffffffffffffffffff\n      and\n        /* \"https://github.com/OpenZeppelin/openzeppelin-contracts/blob/master/contracts/token/ERC20/ERC20.sol\":10558:10563  owner */\n      dup4\n        /* \"https://github.com/OpenZeppelin/openzeppelin-contracts/blob/master/contracts/token/ERC20/ERC20.sol\":10558:10577  owner != address(0) */\n      0xffffffffffffffffffffffffffffffffffffffff\n      and\n      sub\n        /* \"https://github.com/OpenZeppelin/openzeppelin-contracts/blob/master/contracts/token/ERC20/ERC20.sol\":10550:10618  require(owner != address(0), \"ERC20: approve from the zero address\") */\n      tag_180\n      jumpi\n      mload(0x40)\n      0x08c379a000000000000000000000000000000000000000000000000000000000\n      dup2\n      mstore\n      0x04\n      add\n      tag_181\n      swap1\n      tag_182\n      jump\t// in\n    tag_181:\n      mload(0x40)\n      dup1\n      swap2\n      sub\n      swap1\n      revert\n    tag_180:\n        /* \"https://github.com/OpenZeppelin/openzeppelin-contracts/blob/master/contracts/token/ERC20/ERC20.sol\":10655:10656  0 */\n      0x00\n        /* \"https://github.com/OpenZeppelin/openzeppelin-contracts/blob/master/contracts/token/ERC20/ERC20.sol\":10636:10657  spender != address(0) */\n      0xffffffffffffffffffffffffffffffffffffffff\n      and\n        /* \"https://github.com/OpenZeppelin/openzeppelin-contracts/blob/master/contracts/token/ERC20/ERC20.sol\":10636:10643  spender */\n      dup3\n        /* \"https://github.com/OpenZeppelin/openzeppelin-contracts/blob/master/contracts/token/ERC20/ERC20.sol\":10636:10657  spender != address(0) */\n      0xffffffffffffffffffffffffffffffffffffffff\n      and\n      sub\n        /* \"https://github.com/OpenZeppelin/openzeppelin-contracts/blob/master/contracts/token/ERC20/ERC20.sol\":10628:10696  require(spender != address(0), \"ERC20: approve to the zero address\") */\n      tag_183\n      jumpi\n      mload(0x40)\n      0x08c379a000000000000000000000000000000000000000000000000000000000\n      dup2\n      mstore\n      0x04\n      add\n      tag_184\n      swap1\n      tag_185\n      jump\t// in\n    tag_184:\n      mload(0x40)\n      dup1\n      swap2\n      sub\n      swap1\n      revert\n    tag_183:\n        /* \"https://github.com/OpenZeppelin/openzeppelin-contracts/blob/master/contracts/token/ERC20/ERC20.sol\":10737:10743  amount */\n      dup1\n        /* \"https://github.com/OpenZeppelin/openzeppelin-contracts/blob/master/contracts/token/ERC20/ERC20.sol\":10707:10718  _allowances */\n      0x01\n        /* \"https://github.com/OpenZeppelin/openzeppelin-contracts/blob/master/contracts/token/ERC20/ERC20.sol\":10707:10725  _allowances[owner] */\n      0x00\n        /* \"https://github.com/OpenZeppelin/openzeppelin-contracts/blob/master/contracts/token/ERC20/ERC20.sol\":10719:10724  owner */\n      dup6\n        /* \"https://github.com/OpenZeppelin/openzeppelin-contracts/blob/master/contracts/token/ERC20/ERC20.sol\":10707:10725  _allowances[owner] */\n      0xffffffffffffffffffffffffffffffffffffffff\n      and\n      0xffffffffffffffffffffffffffffffffffffffff\n      and\n      dup2\n      mstore\n      0x20\n      add\n      swap1\n      dup2\n      mstore\n      0x20\n      add\n      0x00\n      keccak256\n        /* \"https://github.com/OpenZeppelin/openzeppelin-contracts/blob/master/contracts/token/ERC20/ERC20.sol\":10707:10734  _allowances[owner][spender] */\n      0x00\n        /* \"https://github.com/OpenZeppelin/openzeppelin-contracts/blob/master/contracts/token/ERC20/ERC20.sol\":10726:10733  spender */\n      dup5\n        /* \"https://github.com/OpenZeppelin/openzeppelin-contracts/blob/master/contracts/token/ERC20/ERC20.sol\":10707:10734  _allowances[owner][spender] */\n      0xffffffffffffffffffffffffffffffffffffffff\n      and\n      0xffffffffffffffffffffffffffffffffffffffff\n      and\n      dup2\n      mstore\n      0x20\n      add\n      swap1\n      dup2\n      mstore\n      0x20\n      add\n      0x00\n      keccak256\n        /* \"https://github.com/OpenZeppelin/openzeppelin-contracts/blob/master/contracts/token/ERC20/ERC20.sol\":10707:10743  _allowances[owner][spender] = amount */\n      dup2\n      swap1\n      sstore\n      pop\n        /* \"https://github.com/OpenZeppelin/openzeppelin-contracts/blob/master/contracts/token/ERC20/ERC20.sol\":10774:10781  spender */\n      dup2\n        /* \"https://github.com/OpenZeppelin/openzeppelin-contracts/blob/master/contracts/token/ERC20/ERC20.sol\":10758:10790  Approval(owner, spender, amount) */\n      0xffffffffffffffffffffffffffffffffffffffff\n      and\n        /* \"https://github.com/OpenZeppelin/openzeppelin-contracts/blob/master/contracts/token/ERC20/ERC20.sol\":10767:10772  owner */\n      dup4\n        /* \"https://github.com/OpenZeppelin/openzeppelin-contracts/blob/master/contracts/token/ERC20/ERC20.sol\":10758:10790  Approval(owner, spender, amount) */\n      0xffffffffffffffffffffffffffffffffffffffff\n      and\n      0x8c5be1e5ebec7d5bd14f71427d1e84f3dd0314c0f7b2291e5b200ac8c7c3b925\n        /* \"https://github.com/OpenZeppelin/openzeppelin-contracts/blob/master/contracts/token/ERC20/ERC20.sol\":10783:10789  amount */\n      dup4\n        /* \"https://github.com/OpenZeppelin/openzeppelin-contracts/blob/master/contracts/token/ERC20/ERC20.sol\":10758:10790  Approval(owner, spender, amount) */\n      mload(0x40)\n      tag_186\n      swap2\n      swap1\n      tag_37\n      jump\t// in\n    tag_186:\n      mload(0x40)\n      dup1\n      swap2\n      sub\n      swap1\n      log3\n        /* \"https://github.com/OpenZeppelin/openzeppelin-contracts/blob/master/contracts/token/ERC20/ERC20.sol\":10457:10797  function _approve(address owner, address spender, uint256 amount) internal virtual {... */\n      pop\n      pop\n      pop\n      jump\t// out\n        /* \"https://github.com/OpenZeppelin/openzeppelin-contracts/blob/master/contracts/token/ERC20/ERC20.sol\":11078:11489  function _spendAllowance(address owner, address spender, uint256 amount) internal virtual {... */\n    tag_116:\n        /* \"https://github.com/OpenZeppelin/openzeppelin-contracts/blob/master/contracts/token/ERC20/ERC20.sol\":11178:11202  uint256 currentAllowance */\n      0x00\n        /* \"https://github.com/OpenZeppelin/openzeppelin-contracts/blob/master/contracts/token/ERC20/ERC20.sol\":11205:11230  allowance(owner, spender) */\n      tag_188\n        /* \"https://github.com/OpenZeppelin/openzeppelin-contracts/blob/master/contracts/token/ERC20/ERC20.sol\":11215:11220  owner */\n      dup5\n        /* \"https://github.com/OpenZeppelin/openzeppelin-contracts/blob/master/contracts/token/ERC20/ERC20.sol\":11222:11229  spender */\n      dup5\n        /* \"https://github.com/OpenZeppelin/openzeppelin-contracts/blob/master/contracts/token/ERC20/ERC20.sol\":11205:11214  allowance */\n      tag_94\n        /* \"https://github.com/OpenZeppelin/openzeppelin-contracts/blob/master/contracts/token/ERC20/ERC20.sol\":11205:11230  allowance(owner, spender) */\n      jump\t// in\n    tag_188:\n        /* \"https://github.com/OpenZeppelin/openzeppelin-contracts/blob/master/contracts/token/ERC20/ERC20.sol\":11178:11230  uint256 currentAllowance = allowance(owner, spender) */\n      swap1\n      pop\n        /* \"https://github.com/OpenZeppelin/openzeppelin-contracts/blob/master/contracts/token/ERC20/ERC20.sol\":11264:11281  type(uint256).max */\n      0xffffffffffffffffffffffffffffffffffffffffffffffffffffffffffffffff\n        /* \"https://github.com/OpenZeppelin/openzeppelin-contracts/blob/master/contracts/token/ERC20/ERC20.sol\":11244:11260  currentAllowance */\n      dup2\n        /* \"https://github.com/OpenZeppelin/openzeppelin-contracts/blob/master/contracts/token/ERC20/ERC20.sol\":11244:11281  currentAllowance != type(uint256).max */\n      eq\n        /* \"https://github.com/OpenZeppelin/openzeppelin-contracts/blob/master/contracts/token/ERC20/ERC20.sol\":11240:11483  if (currentAllowance != type(uint256).max) {... */\n      tag_189\n      jumpi\n        /* \"https://github.com/OpenZeppelin/openzeppelin-contracts/blob/master/contracts/token/ERC20/ERC20.sol\":11325:11331  amount */\n      dup2\n        /* \"https://github.com/OpenZeppelin/openzeppelin-contracts/blob/master/contracts/token/ERC20/ERC20.sol\":11305:11321  currentAllowance */\n      dup2\n        /* \"https://github.com/OpenZeppelin/openzeppelin-contracts/blob/master/contracts/token/ERC20/ERC20.sol\":11305:11331  currentAllowance >= amount */\n      lt\n      iszero\n        /* \"https://github.com/OpenZeppelin/openzeppelin-contracts/blob/master/contracts/token/ERC20/ERC20.sol\":11297:11365  require(currentAllowance >= amount, \"ERC20: insufficient allowance\") */\n      tag_190\n      jumpi\n      mload(0x40)\n      0x08c379a000000000000000000000000000000000000000000000000000000000\n      dup2\n      mstore\n      0x04\n      add\n      tag_191\n      swap1\n      tag_192\n      jump\t// in\n    tag_191:\n      mload(0x40)\n      dup1\n      swap2\n      sub\n      swap1\n      revert\n    tag_190:\n        /* \"https://github.com/OpenZeppelin/openzeppelin-contracts/blob/master/contracts/token/ERC20/ERC20.sol\":11407:11458  _approve(owner, spender, currentAllowance - amount) */\n      tag_193\n        /* \"https://github.com/OpenZeppelin/openzeppelin-contracts/blob/master/contracts/token/ERC20/ERC20.sol\":11416:11421  owner */\n      dup5\n        /* \"https://github.com/OpenZeppelin/openzeppelin-contracts/blob/master/contracts/token/ERC20/ERC20.sol\":11423:11430  spender */\n      dup5\n        /* \"https://github.com/OpenZeppelin/openzeppelin-contracts/blob/master/contracts/token/ERC20/ERC20.sol\":11451:11457  amount */\n      dup5\n        /* \"https://github.com/OpenZeppelin/openzeppelin-contracts/blob/master/contracts/token/ERC20/ERC20.sol\":11432:11448  currentAllowance */\n      dup5\n        /* \"https://github.com/OpenZeppelin/openzeppelin-contracts/blob/master/contracts/token/ERC20/ERC20.sol\":11432:11457  currentAllowance - amount */\n      sub\n        /* \"https://github.com/OpenZeppelin/openzeppelin-contracts/blob/master/contracts/token/ERC20/ERC20.sol\":11407:11415  _approve */\n      tag_111\n        /* \"https://github.com/OpenZeppelin/openzeppelin-contracts/blob/master/contracts/token/ERC20/ERC20.sol\":11407:11458  _approve(owner, spender, currentAllowance - amount) */\n      jump\t// in\n    tag_193:\n        /* \"https://github.com/OpenZeppelin/openzeppelin-contracts/blob/master/contracts/token/ERC20/ERC20.sol\":11240:11483  if (currentAllowance != type(uint256).max) {... */\n    tag_189:\n        /* \"https://github.com/OpenZeppelin/openzeppelin-contracts/blob/master/contracts/token/ERC20/ERC20.sol\":11168:11489  {... */\n      pop\n        /* \"https://github.com/OpenZeppelin/openzeppelin-contracts/blob/master/contracts/token/ERC20/ERC20.sol\":11078:11489  function _spendAllowance(address owner, address spender, uint256 amount) internal virtual {... */\n      pop\n      pop\n      pop\n      jump\t// out\n        /* \"https://github.com/OpenZeppelin/openzeppelin-contracts/blob/master/contracts/token/ERC20/ERC20.sol\":7456:8244  function _transfer(address from, address to, uint256 amount) internal virtual {... */\n    tag_118:\n        /* \"https://github.com/OpenZeppelin/openzeppelin-contracts/blob/master/contracts/token/ERC20/ERC20.sol\":7568:7569  0 */\n      0x00\n        /* \"https://github.com/OpenZeppelin/openzeppelin-contracts/blob/master/contracts/token/ERC20/ERC20.sol\":7552:7570  from != address(0) */\n      0xffffffffffffffffffffffffffffffffffffffff\n      and\n        /* \"https://github.com/OpenZeppelin/openzeppelin-contracts/blob/master/contracts/token/ERC20/ERC20.sol\":7552:7556  from */\n      dup4\n        /* \"https://github.com/OpenZeppelin/openzeppelin-contracts/blob/master/contracts/token/ERC20/ERC20.sol\":7552:7570  from != address(0) */\n      0xffffffffffffffffffffffffffffffffffffffff\n      and\n      sub\n        /* \"https://github.com/OpenZeppelin/openzeppelin-contracts/blob/master/contracts/token/ERC20/ERC20.sol\":7544:7612  require(from != address(0), \"ERC20: transfer from the zero address\") */\n      tag_195\n      jumpi\n      mload(0x40)\n      0x08c379a000000000000000000000000000000000000000000000000000000000\n      dup2\n      mstore\n      0x04\n      add\n      tag_196\n      swap1\n      tag_197\n      jump\t// in\n    tag_196:\n      mload(0x40)\n      dup1\n      swap2\n      sub\n      swap1\n      revert\n    tag_195:\n        /* \"https://github.com/OpenZeppelin/openzeppelin-contracts/blob/master/contracts/token/ERC20/ERC20.sol\":7644:7645  0 */\n      0x00\n        /* \"https://github.com/OpenZeppelin/openzeppelin-contracts/blob/master/contracts/token/ERC20/ERC20.sol\":7630:7646  to != address(0) */\n      0xffffffffffffffffffffffffffffffffffffffff\n      and\n        /* \"https://github.com/OpenZeppelin/openzeppelin-contracts/blob/master/contracts/token/ERC20/ERC20.sol\":7630:7632  to */\n      dup3\n        /* \"https://github.com/OpenZeppelin/openzeppelin-contracts/blob/master/contracts/token/ERC20/ERC20.sol\":7630:7646  to != address(0) */\n      0xffffffffffffffffffffffffffffffffffffffff\n      and\n      sub\n        /* \"https://github.com/OpenZeppelin/openzeppelin-contracts/blob/master/contracts/token/ERC20/ERC20.sol\":7622:7686  require(to != address(0), \"ERC20: transfer to the zero address\") */\n      tag_198\n      jumpi\n      mload(0x40)\n      0x08c379a000000000000000000000000000000000000000000000000000000000\n      dup2\n      mstore\n      0x04\n      add\n      tag_199\n      swap1\n      tag_200\n      jump\t// in\n    tag_199:\n      mload(0x40)\n      dup1\n      swap2\n      sub\n      swap1\n      revert\n    tag_198:\n        /* \"https://github.com/OpenZeppelin/openzeppelin-contracts/blob/master/contracts/token/ERC20/ERC20.sol\":7697:7735  _beforeTokenTransfer(from, to, amount) */\n      tag_201\n        /* \"https://github.com/OpenZeppelin/openzeppelin-contracts/blob/master/contracts/token/ERC20/ERC20.sol\":7718:7722  from */\n      dup4\n        /* \"https://github.com/OpenZeppelin/openzeppelin-contracts/blob/master/contracts/token/ERC20/ERC20.sol\":7724:7726  to */\n      dup4\n        /* \"https://github.com/OpenZeppelin/openzeppelin-contracts/blob/master/contracts/token/ERC20/ERC20.sol\":7728:7734  amount */\n      dup4\n        /* \"https://github.com/OpenZeppelin/openzeppelin-contracts/blob/master/contracts/token/ERC20/ERC20.sol\":7697:7717  _beforeTokenTransfer */\n      tag_202\n        /* \"https://github.com/OpenZeppelin/openzeppelin-contracts/blob/master/contracts/token/ERC20/ERC20.sol\":7697:7735  _beforeTokenTransfer(from, to, amount) */\n      jump\t// in\n    tag_201:\n        /* \"https://github.com/OpenZeppelin/openzeppelin-contracts/blob/master/contracts/token/ERC20/ERC20.sol\":7746:7765  uint256 fromBalance */\n      0x00\n        /* \"https://github.com/OpenZeppelin/openzeppelin-contracts/blob/master/contracts/token/ERC20/ERC20.sol\":7768:7777  _balances */\n      dup1\n        /* \"https://github.com/OpenZeppelin/openzeppelin-contracts/blob/master/contracts/token/ERC20/ERC20.sol\":7768:7783  _balances[from] */\n      0x00\n        /* \"https://github.com/OpenZeppelin/openzeppelin-contracts/blob/master/contracts/token/ERC20/ERC20.sol\":7778:7782  from */\n      dup6\n        /* \"https://github.com/OpenZeppelin/openzeppelin-contracts/blob/master/contracts/token/ERC20/ERC20.sol\":7768:7783  _balances[from] */\n      0xffffffffffffffffffffffffffffffffffffffff\n      and\n      0xffffffffffffffffffffffffffffffffffffffff\n      and\n      dup2\n      mstore\n      0x20\n      add\n      swap1\n      dup2\n      mstore\n      0x20\n      add\n      0x00\n      keccak256\n      sload\n        /* \"https://github.com/OpenZeppelin/openzeppelin-contracts/blob/master/contracts/token/ERC20/ERC20.sol\":7746:7783  uint256 fromBalance = _balances[from] */\n      swap1\n      pop\n        /* \"https://github.com/OpenZeppelin/openzeppelin-contracts/blob/master/contracts/token/ERC20/ERC20.sol\":7816:7822  amount */\n      dup2\n        /* \"https://github.com/OpenZeppelin/openzeppelin-contracts/blob/master/contracts/token/ERC20/ERC20.sol\":7801:7812  fromBalance */\n      dup2\n        /* \"https://github.com/OpenZeppelin/openzeppelin-contracts/blob/master/contracts/token/ERC20/ERC20.sol\":7801:7822  fromBalance >= amount */\n      lt\n      iszero\n        /* \"https://github.com/OpenZeppelin/openzeppelin-contracts/blob/master/contracts/token/ERC20/ERC20.sol\":7793:7865  require(fromBalance >= amount, \"ERC20: transfer amount exceeds balance\") */\n      tag_203\n      jumpi\n      mload(0x40)\n      0x08c379a000000000000000000000000000000000000000000000000000000000\n      dup2\n      mstore\n      0x04\n      add\n      tag_204\n      swap1\n      tag_205\n      jump\t// in\n    tag_204:\n      mload(0x40)\n      dup1\n      swap2\n      sub\n      swap1\n      revert\n    tag_203:\n        /* \"https://github.com/OpenZeppelin/openzeppelin-contracts/blob/master/contracts/token/ERC20/ERC20.sol\":7931:7937  amount */\n      dup2\n        /* \"https://github.com/OpenZeppelin/openzeppelin-contracts/blob/master/contracts/token/ERC20/ERC20.sol\":7917:7928  fromBalance */\n      dup2\n        /* \"https://github.com/OpenZeppelin/openzeppelin-contracts/blob/master/contracts/token/ERC20/ERC20.sol\":7917:7937  fromBalance - amount */\n      sub\n        /* \"https://github.com/OpenZeppelin/openzeppelin-contracts/blob/master/contracts/token/ERC20/ERC20.sol\":7899:7908  _balances */\n      0x00\n        /* \"https://github.com/OpenZeppelin/openzeppelin-contracts/blob/master/contracts/token/ERC20/ERC20.sol\":7899:7914  _balances[from] */\n      dup1\n        /* \"https://github.com/OpenZeppelin/openzeppelin-contracts/blob/master/contracts/token/ERC20/ERC20.sol\":7909:7913  from */\n      dup7\n        /* \"https://github.com/OpenZeppelin/openzeppelin-contracts/blob/master/contracts/token/ERC20/ERC20.sol\":7899:7914  _balances[from] */\n      0xffffffffffffffffffffffffffffffffffffffff\n      and\n      0xffffffffffffffffffffffffffffffffffffffff\n      and\n      dup2\n      mstore\n      0x20\n      add\n      swap1\n      dup2\n      mstore\n      0x20\n      add\n      0x00\n      keccak256\n        /* \"https://github.com/OpenZeppelin/openzeppelin-contracts/blob/master/contracts/token/ERC20/ERC20.sol\":7899:7937  _balances[from] = fromBalance - amount */\n      dup2\n      swap1\n      sstore\n      pop\n        /* \"https://github.com/OpenZeppelin/openzeppelin-contracts/blob/master/contracts/token/ERC20/ERC20.sol\":8131:8137  amount */\n      dup2\n        /* \"https://github.com/OpenZeppelin/openzeppelin-contracts/blob/master/contracts/token/ERC20/ERC20.sol\":8114:8123  _balances */\n      0x00\n        /* \"https://github.com/OpenZeppelin/openzeppelin-contracts/blob/master/contracts/token/ERC20/ERC20.sol\":8114:8127  _balances[to] */\n      dup1\n        /* \"https://github.com/OpenZeppelin/openzeppelin-contracts/blob/master/contracts/token/ERC20/ERC20.sol\":8124:8126  to */\n      dup6\n        /* \"https://github.com/OpenZeppelin/openzeppelin-contracts/blob/master/contracts/token/ERC20/ERC20.sol\":8114:8127  _balances[to] */\n      0xffffffffffffffffffffffffffffffffffffffff\n      and\n      0xffffffffffffffffffffffffffffffffffffffff\n      and\n      dup2\n      mstore\n      0x20\n      add\n      swap1\n      dup2\n      mstore\n      0x20\n      add\n      0x00\n      keccak256\n      0x00\n        /* \"https://github.com/OpenZeppelin/openzeppelin-contracts/blob/master/contracts/token/ERC20/ERC20.sol\":8114:8137  _balances[to] += amount */\n      dup3\n      dup3\n      sload\n      add\n      swap3\n      pop\n      pop\n      dup2\n      swap1\n      sstore\n      pop\n        /* \"https://github.com/OpenZeppelin/openzeppelin-contracts/blob/master/contracts/token/ERC20/ERC20.sol\":8178:8180  to */\n      dup3\n        /* \"https://github.com/OpenZeppelin/openzeppelin-contracts/blob/master/contracts/token/ERC20/ERC20.sol\":8163:8189  Transfer(from, to, amount) */\n      0xffffffffffffffffffffffffffffffffffffffff\n      and\n        /* \"https://github.com/OpenZeppelin/openzeppelin-contracts/blob/master/contracts/token/ERC20/ERC20.sol\":8172:8176  from */\n      dup5\n        /* \"https://github.com/OpenZeppelin/openzeppelin-contracts/blob/master/contracts/token/ERC20/ERC20.sol\":8163:8189  Transfer(from, to, amount) */\n      0xffffffffffffffffffffffffffffffffffffffff\n      and\n      0xddf252ad1be2c89b69c2b068fc378daa952ba7f163c4a11628f55a4df523b3ef\n        /* \"https://github.com/OpenZeppelin/openzeppelin-contracts/blob/master/contracts/token/ERC20/ERC20.sol\":8182:8188  amount */\n      dup5\n        /* \"https://github.com/OpenZeppelin/openzeppelin-contracts/blob/master/contracts/token/ERC20/ERC20.sol\":8163:8189  Transfer(from, to, amount) */\n      mload(0x40)\n      tag_206\n      swap2\n      swap1\n      tag_37\n      jump\t// in\n    tag_206:\n      mload(0x40)\n      dup1\n      swap2\n      sub\n      swap1\n      log3\n        /* \"https://github.com/OpenZeppelin/openzeppelin-contracts/blob/master/contracts/token/ERC20/ERC20.sol\":8200:8237  _afterTokenTransfer(from, to, amount) */\n      tag_207\n        /* \"https://github.com/OpenZeppelin/openzeppelin-contracts/blob/master/contracts/token/ERC20/ERC20.sol\":8220:8224  from */\n      dup5\n        /* \"https://github.com/OpenZeppelin/openzeppelin-contracts/blob/master/contracts/token/ERC20/ERC20.sol\":8226:8228  to */\n      dup5\n        /* \"https://github.com/OpenZeppelin/openzeppelin-contracts/blob/master/contracts/token/ERC20/ERC20.sol\":8230:8236  amount */\n      dup5\n        /* \"https://github.com/OpenZeppelin/openzeppelin-contracts/blob/master/contracts/token/ERC20/ERC20.sol\":8200:8219  _afterTokenTransfer */\n      tag_208\n        /* \"https://github.com/OpenZeppelin/openzeppelin-contracts/blob/master/contracts/token/ERC20/ERC20.sol\":8200:8237  _afterTokenTransfer(from, to, amount) */\n      jump\t// in\n    tag_207:\n        /* \"https://github.com/OpenZeppelin/openzeppelin-contracts/blob/master/contracts/token/ERC20/ERC20.sol\":7534:8244  {... */\n      pop\n        /* \"https://github.com/OpenZeppelin/openzeppelin-contracts/blob/master/contracts/token/ERC20/ERC20.sol\":7456:8244  function _transfer(address from, address to, uint256 amount) internal virtual {... */\n      pop\n      pop\n      pop\n      jump\t// out\n        /* \"https://github.com/OpenZeppelin/openzeppelin-contracts/blob/master/contracts/access/Ownable.sol\":1359:1489  function _checkOwner() internal view virtual {... */\n    tag_149:\n        /* \"https://github.com/OpenZeppelin/openzeppelin-contracts/blob/master/contracts/access/Ownable.sol\":1433:1445  _msgSender() */\n      tag_210\n        /* \"https://github.com/OpenZeppelin/openzeppelin-contracts/blob/master/contracts/access/Ownable.sol\":1433:1443  _msgSender */\n      tag_109\n        /* \"https://github.com/OpenZeppelin/openzeppelin-contracts/blob/master/contracts/access/Ownable.sol\":1433:1445  _msgSender() */\n      jump\t// in\n    tag_210:\n        /* \"https://github.com/OpenZeppelin/openzeppelin-contracts/blob/master/contracts/access/Ownable.sol\":1422:1445  owner() == _msgSender() */\n      0xffffffffffffffffffffffffffffffffffffffff\n      and\n        /* \"https://github.com/OpenZeppelin/openzeppelin-contracts/blob/master/contracts/access/Ownable.sol\":1422:1429  owner() */\n      tag_211\n        /* \"https://github.com/OpenZeppelin/openzeppelin-contracts/blob/master/contracts/access/Ownable.sol\":1422:1427  owner */\n      tag_73\n        /* \"https://github.com/OpenZeppelin/openzeppelin-contracts/blob/master/contracts/access/Ownable.sol\":1422:1429  owner() */\n      jump\t// in\n    tag_211:\n        /* \"https://github.com/OpenZeppelin/openzeppelin-contracts/blob/master/contracts/access/Ownable.sol\":1422:1445  owner() == _msgSender() */\n      0xffffffffffffffffffffffffffffffffffffffff\n      and\n      eq\n        /* \"https://github.com/OpenZeppelin/openzeppelin-contracts/blob/master/contracts/access/Ownable.sol\":1414:1482  require(owner() == _msgSender(), \"Ownable: caller is not the owner\") */\n      tag_212\n      jumpi\n      mload(0x40)\n      0x08c379a000000000000000000000000000000000000000000000000000000000\n      dup2\n      mstore\n      0x04\n      add\n      tag_213\n      swap1\n      tag_214\n      jump\t// in\n    tag_213:\n      mload(0x40)\n      dup1\n      swap2\n      sub\n      swap1\n      revert\n    tag_212:\n        /* \"https://github.com/OpenZeppelin/openzeppelin-contracts/blob/master/contracts/access/Ownable.sol\":1359:1489  function _checkOwner() internal view virtual {... */\n      jump\t// out\n        /* \"https://github.com/OpenZeppelin/openzeppelin-contracts/blob/master/contracts/access/Ownable.sol\":2426:2613  function _transferOwnership(address newOwner) internal virtual {... */\n    tag_152:\n        /* \"https://github.com/OpenZeppelin/openzeppelin-contracts/blob/master/contracts/access/Ownable.sol\":2499:2515  address oldOwner */\n      0x00\n        /* \"https://github.com/OpenZeppelin/openzeppelin-contracts/blob/master/contracts/access/Ownable.sol\":2518:2524  _owner */\n      0x05\n      0x00\n      swap1\n      sload\n      swap1\n      0x0100\n      exp\n      swap1\n      div\n      0xffffffffffffffffffffffffffffffffffffffff\n      and\n        /* \"https://github.com/OpenZeppelin/openzeppelin-contracts/blob/master/contracts/access/Ownable.sol\":2499:2524  address oldOwner = _owner */\n      swap1\n      pop\n        /* \"https://github.com/OpenZeppelin/openzeppelin-contracts/blob/master/contracts/access/Ownable.sol\":2543:2551  newOwner */\n      dup2\n        /* \"https://github.com/OpenZeppelin/openzeppelin-contracts/blob/master/contracts/access/Ownable.sol\":2534:2540  _owner */\n      0x05\n      0x00\n        /* \"https://github.com/OpenZeppelin/openzeppelin-contracts/blob/master/contracts/access/Ownable.sol\":2534:2551  _owner = newOwner */\n      0x0100\n      exp\n      dup2\n      sload\n      dup2\n      0xffffffffffffffffffffffffffffffffffffffff\n      mul\n      not\n      and\n      swap1\n      dup4\n      0xffffffffffffffffffffffffffffffffffffffff\n      and\n      mul\n      or\n      swap1\n      sstore\n      pop\n        /* \"https://github.com/OpenZeppelin/openzeppelin-contracts/blob/master/contracts/access/Ownable.sol\":2597:2605  newOwner */\n      dup2\n        /* \"https://github.com/OpenZeppelin/openzeppelin-contracts/blob/master/contracts/access/Ownable.sol\":2566:2606  OwnershipTransferred(oldOwner, newOwner) */\n      0xffffffffffffffffffffffffffffffffffffffff\n      and\n        /* \"https://github.com/OpenZeppelin/openzeppelin-contracts/blob/master/contracts/access/Ownable.sol\":2587:2595  oldOwner */\n      dup2\n        /* \"https://github.com/OpenZeppelin/openzeppelin-contracts/blob/master/contracts/access/Ownable.sol\":2566:2606  OwnershipTransferred(oldOwner, newOwner) */\n      0xffffffffffffffffffffffffffffffffffffffff\n      and\n      0x8be0079c531659141344cd1fd0a4f28419497f9722a3daafe3b4186f6b6457e0\n      mload(0x40)\n      mload(0x40)\n      dup1\n      swap2\n      sub\n      swap1\n      log3\n        /* \"https://github.com/OpenZeppelin/openzeppelin-contracts/blob/master/contracts/access/Ownable.sol\":2489:2613  {... */\n      pop\n        /* \"https://github.com/OpenZeppelin/openzeppelin-contracts/blob/master/contracts/access/Ownable.sol\":2426:2613  function _transferOwnership(address newOwner) internal virtual {... */\n      pop\n      jump\t// out\n        /* \"https://github.com/OpenZeppelin/openzeppelin-contracts/blob/master/contracts/token/ERC20/ERC20.sol\":12073:12164  function _beforeTokenTransfer(address from, address to, uint256 amount) internal virtual {} */\n    tag_202:\n      pop\n      pop\n      pop\n      jump\t// out\n        /* \"https://github.com/OpenZeppelin/openzeppelin-contracts/blob/master/contracts/token/ERC20/ERC20.sol\":12752:12842  function _afterTokenTransfer(address from, address to, uint256 amount) internal virtual {} */\n    tag_208:\n      pop\n      pop\n      pop\n      jump\t// out\n        /* \"#utility.yul\":7:106   */\n    tag_218:\n        /* \"#utility.yul\":59:65   */\n      0x00\n        /* \"#utility.yul\":93:98   */\n      dup2\n        /* \"#utility.yul\":87:99   */\n      mload\n        /* \"#utility.yul\":77:99   */\n      swap1\n      pop\n        /* \"#utility.yul\":7:106   */\n      swap2\n      swap1\n      pop\n      jump\t// out\n        /* \"#utility.yul\":112:281   */\n    tag_219:\n        /* \"#utility.yul\":196:207   */\n      0x00\n        /* \"#utility.yul\":230:236   */\n      dup3\n        /* \"#utility.yul\":225:228   */\n      dup3\n        /* \"#utility.yul\":218:237   */\n      mstore\n        /* \"#utility.yul\":270:274   */\n      0x20\n        /* \"#utility.yul\":265:268   */\n      dup3\n        /* \"#utility.yul\":261:275   */\n      add\n        /* \"#utility.yul\":246:275   */\n      swap1\n      pop\n        /* \"#utility.yul\":112:281   */\n      swap3\n      swap2\n      pop\n      pop\n      jump\t// out\n        /* \"#utility.yul\":287:533   */\n    tag_220:\n        /* \"#utility.yul\":368:369   */\n      0x00\n        /* \"#utility.yul\":378:491   */\n    tag_271:\n        /* \"#utility.yul\":392:398   */\n      dup4\n        /* \"#utility.yul\":389:390   */\n      dup2\n        /* \"#utility.yul\":386:399   */\n      lt\n        /* \"#utility.yul\":378:491   */\n      iszero\n      tag_273\n      jumpi\n        /* \"#utility.yul\":477:478   */\n      dup1\n        /* \"#utility.yul\":472:475   */\n      dup3\n        /* \"#utility.yul\":468:479   */\n      add\n        /* \"#utility.yul\":462:480   */\n      mload\n        /* \"#utility.yul\":458:459   */\n      dup2\n        /* \"#utility.yul\":453:456   */\n      dup5\n        /* \"#utility.yul\":449:460   */\n      add\n        /* \"#utility.yul\":442:481   */\n      mstore\n        /* \"#utility.yul\":414:416   */\n      0x20\n        /* \"#utility.yul\":411:412   */\n      dup2\n        /* \"#utility.yul\":407:417   */\n      add\n        /* \"#utility.yul\":402:417   */\n      swap1\n      pop\n        /* \"#utility.yul\":378:491   */\n      jump(tag_271)\n    tag_273:\n        /* \"#utility.yul\":525:526   */\n      0x00\n        /* \"#utility.yul\":516:522   */\n      dup5\n        /* \"#utility.yul\":511:514   */\n      dup5\n        /* \"#utility.yul\":507:523   */\n      add\n        /* \"#utility.yul\":500:527   */\n      mstore\n        /* \"#utility.yul\":349:533   */\n      pop\n        /* \"#utility.yul\":287:533   */\n      pop\n      pop\n      pop\n      jump\t// out\n        /* \"#utility.yul\":539:641   */\n    tag_221:\n        /* \"#utility.yul\":580:586   */\n      0x00\n        /* \"#utility.yul\":631:633   */\n      0x1f\n        /* \"#utility.yul\":627:634   */\n      not\n        /* \"#utility.yul\":622:624   */\n      0x1f\n        /* \"#utility.yul\":615:620   */\n      dup4\n        /* \"#utility.yul\":611:625   */\n      add\n        /* \"#utility.yul\":607:635   */\n      and\n        /* \"#utility.yul\":597:635   */\n      swap1\n      pop\n        /* \"#utility.yul\":539:641   */\n      swap2\n      swap1\n      pop\n      jump\t// out\n        /* \"#utility.yul\":647:1024   */\n    tag_222:\n        /* \"#utility.yul\":735:738   */\n      0x00\n        /* \"#utility.yul\":763:802   */\n      tag_276\n        /* \"#utility.yul\":796:801   */\n      dup3\n        /* \"#utility.yul\":763:802   */\n      tag_218\n      jump\t// in\n    tag_276:\n        /* \"#utility.yul\":818:889   */\n      tag_277\n        /* \"#utility.yul\":882:888   */\n      dup2\n        /* \"#utility.yul\":877:880   */\n      dup6\n        /* \"#utility.yul\":818:889   */\n      tag_219\n      jump\t// in\n    tag_277:\n        /* \"#utility.yul\":811:889   */\n      swap4\n      pop\n        /* \"#utility.yul\":898:963   */\n      tag_278\n        /* \"#utility.yul\":956:962   */\n      dup2\n        /* \"#utility.yul\":951:954   */\n      dup6\n        /* \"#utility.yul\":944:948   */\n      0x20\n        /* \"#utility.yul\":937:942   */\n      dup7\n        /* \"#utility.yul\":933:949   */\n      add\n        /* \"#utility.yul\":898:963   */\n      tag_220\n      jump\t// in\n    tag_278:\n        /* \"#utility.yul\":988:1017   */\n      tag_279\n        /* \"#utility.yul\":1010:1016   */\n      dup2\n        /* \"#utility.yul\":988:1017   */\n      tag_221\n      jump\t// in\n    tag_279:\n        /* \"#utility.yul\":983:986   */\n      dup5\n        /* \"#utility.yul\":979:1018   */\n      add\n        /* \"#utility.yul\":972:1018   */\n      swap2\n      pop\n        /* \"#utility.yul\":739:1024   */\n      pop\n        /* \"#utility.yul\":647:1024   */\n      swap3\n      swap2\n      pop\n      pop\n      jump\t// out\n        /* \"#utility.yul\":1030:1343   */\n    tag_25:\n        /* \"#utility.yul\":1143:1147   */\n      0x00\n        /* \"#utility.yul\":1181:1183   */\n      0x20\n        /* \"#utility.yul\":1170:1179   */\n      dup3\n        /* \"#utility.yul\":1166:1184   */\n      add\n        /* \"#utility.yul\":1158:1184   */\n      swap1\n      pop\n        /* \"#utility.yul\":1230:1239   */\n      dup2\n        /* \"#utility.yul\":1224:1228   */\n      dup2\n        /* \"#utility.yul\":1220:1240   */\n      sub\n        /* \"#utility.yul\":1216:1217   */\n      0x00\n        /* \"#utility.yul\":1205:1214   */\n      dup4\n        /* \"#utility.yul\":1201:1218   */\n      add\n        /* \"#utility.yul\":1194:1241   */\n      mstore\n        /* \"#utility.yul\":1258:1336   */\n      tag_281\n        /* \"#utility.yul\":1331:1335   */\n      dup2\n        /* \"#utility.yul\":1322:1328   */\n      dup5\n        /* \"#utility.yul\":1258:1336   */\n      tag_222\n      jump\t// in\n    tag_281:\n        /* \"#utility.yul\":1250:1336   */\n      swap1\n      pop\n        /* \"#utility.yul\":1030:1343   */\n      swap3\n      swap2\n      pop\n      pop\n      jump\t// out\n        /* \"#utility.yul\":1430:1547   */\n    tag_224:\n        /* \"#utility.yul\":1539:1540   */\n      0x00\n        /* \"#utility.yul\":1536:1537   */\n      dup1\n        /* \"#utility.yul\":1529:1541   */\n      revert\n        /* \"#utility.yul\":1676:1802   */\n    tag_226:\n        /* \"#utility.yul\":1713:1720   */\n      0x00\n        /* \"#utility.yul\":1753:1795   */\n      0xffffffffffffffffffffffffffffffffffffffff\n        /* \"#utility.yul\":1746:1751   */\n      dup3\n        /* \"#utility.yul\":1742:1796   */\n      and\n        /* \"#utility.yul\":1731:1796   */\n      swap1\n      pop\n        /* \"#utility.yul\":1676:1802   */\n      swap2\n      swap1\n      pop\n      jump\t// out\n        /* \"#utility.yul\":1808:1904   */\n    tag_227:\n        /* \"#utility.yul\":1845:1852   */\n      0x00\n        /* \"#utility.yul\":1874:1898   */\n      tag_287\n        /* \"#utility.yul\":1892:1897   */\n      dup3\n        /* \"#utility.yul\":1874:1898   */\n      tag_226\n      jump\t// in\n    tag_287:\n        /* \"#utility.yul\":1863:1898   */\n      swap1\n      pop\n        /* \"#utility.yul\":1808:1904   */\n      swap2\n      swap1\n      pop\n      jump\t// out\n        /* \"#utility.yul\":1910:2032   */\n    tag_228:\n        /* \"#utility.yul\":1983:2007   */\n      tag_289\n        /* \"#utility.yul\":2001:2006   */\n      dup2\n        /* \"#utility.yul\":1983:2007   */\n      tag_227\n      jump\t// in\n    tag_289:\n        /* \"#utility.yul\":1976:1981   */\n      dup2\n        /* \"#utility.yul\":1973:2008   */\n      eq\n        /* \"#utility.yul\":1963:2026   */\n      tag_290\n      jumpi\n        /* \"#utility.yul\":2022:2023   */\n      0x00\n        /* \"#utility.yul\":2019:2020   */\n      dup1\n        /* \"#utility.yul\":2012:2024   */\n      revert\n        /* \"#utility.yul\":1963:2026   */\n    tag_290:\n        /* \"#utility.yul\":1910:2032   */\n      pop\n      jump\t// out\n        /* \"#utility.yul\":2038:2177   */\n    tag_229:\n        /* \"#utility.yul\":2084:2089   */\n      0x00\n        /* \"#utility.yul\":2122:2128   */\n      dup2\n        /* \"#utility.yul\":2109:2129   */\n      calldataload\n        /* \"#utility.yul\":2100:2129   */\n      swap1\n      pop\n        /* \"#utility.yul\":2138:2171   */\n      tag_292\n        /* \"#utility.yul\":2165:2170   */\n      dup2\n        /* \"#utility.yul\":2138:2171   */\n      tag_228\n      jump\t// in\n    tag_292:\n        /* \"#utility.yul\":2038:2177   */\n      swap3\n      swap2\n      pop\n      pop\n      jump\t// out\n        /* \"#utility.yul\":2183:2260   */\n    tag_230:\n        /* \"#utility.yul\":2220:2227   */\n      0x00\n        /* \"#utility.yul\":2249:2254   */\n      dup2\n        /* \"#utility.yul\":2238:2254   */\n      swap1\n      pop\n        /* \"#utility.yul\":2183:2260   */\n      swap2\n      swap1\n      pop\n      jump\t// out\n        /* \"#utility.yul\":2266:2388   */\n    tag_231:\n        /* \"#utility.yul\":2339:2363   */\n      tag_295\n        /* \"#utility.yul\":2357:2362   */\n      dup2\n        /* \"#utility.yul\":2339:2363   */\n      tag_230\n      jump\t// in\n    tag_295:\n        /* \"#utility.yul\":2332:2337   */\n      dup2\n        /* \"#utility.yul\":2329:2364   */\n      eq\n        /* \"#utility.yul\":2319:2382   */\n      tag_296\n      jumpi\n        /* \"#utility.yul\":2378:2379   */\n      0x00\n        /* \"#utility.yul\":2375:2376   */\n      dup1\n        /* \"#utility.yul\":2368:2380   */\n      revert\n        /* \"#utility.yul\":2319:2382   */\n    tag_296:\n        /* \"#utility.yul\":2266:2388   */\n      pop\n      jump\t// out\n        /* \"#utility.yul\":2394:2533   */\n    tag_232:\n        /* \"#utility.yul\":2440:2445   */\n      0x00\n        /* \"#utility.yul\":2478:2484   */\n      dup2\n        /* \"#utility.yul\":2465:2485   */\n      calldataload\n        /* \"#utility.yul\":2456:2485   */\n      swap1\n      pop\n        /* \"#utility.yul\":2494:2527   */\n      tag_298\n        /* \"#utility.yul\":2521:2526   */\n      dup2\n        /* \"#utility.yul\":2494:2527   */\n      tag_231\n      jump\t// in\n    tag_298:\n        /* \"#utility.yul\":2394:2533   */\n      swap3\n      swap2\n      pop\n      pop\n      jump\t// out\n        /* \"#utility.yul\":2539:3013   */\n    tag_29:\n        /* \"#utility.yul\":2607:2613   */\n      0x00\n        /* \"#utility.yul\":2615:2621   */\n      dup1\n        /* \"#utility.yul\":2664:2666   */\n      0x40\n        /* \"#utility.yul\":2652:2661   */\n      dup4\n        /* \"#utility.yul\":2643:2650   */\n      dup6\n        /* \"#utility.yul\":2639:2662   */\n      sub\n        /* \"#utility.yul\":2635:2667   */\n      slt\n        /* \"#utility.yul\":2632:2751   */\n      iszero\n      tag_300\n      jumpi\n        /* \"#utility.yul\":2670:2749   */\n      tag_301\n      tag_224\n      jump\t// in\n    tag_301:\n        /* \"#utility.yul\":2632:2751   */\n    tag_300:\n        /* \"#utility.yul\":2790:2791   */\n      0x00\n        /* \"#utility.yul\":2815:2868   */\n      tag_302\n        /* \"#utility.yul\":2860:2867   */\n      dup6\n        /* \"#utility.yul\":2851:2857   */\n      dup3\n        /* \"#utility.yul\":2840:2849   */\n      dup7\n        /* \"#utility.yul\":2836:2858   */\n      add\n        /* \"#utility.yul\":2815:2868   */\n      tag_229\n      jump\t// in\n    tag_302:\n        /* \"#utility.yul\":2805:2868   */\n      swap3\n      pop\n        /* \"#utility.yul\":2761:2878   */\n      pop\n        /* \"#utility.yul\":2917:2919   */\n      0x20\n        /* \"#utility.yul\":2943:2996   */\n      tag_303\n        /* \"#utility.yul\":2988:2995   */\n      dup6\n        /* \"#utility.yul\":2979:2985   */\n      dup3\n        /* \"#utility.yul\":2968:2977   */\n      dup7\n        /* \"#utility.yul\":2964:2986   */\n      add\n        /* \"#utility.yul\":2943:2996   */\n      tag_232\n      jump\t// in\n    tag_303:\n        /* \"#utility.yul\":2933:2996   */\n      swap2\n      pop\n        /* \"#utility.yul\":2888:3006   */\n      pop\n        /* \"#utility.yul\":2539:3013   */\n      swap3\n      pop\n      swap3\n      swap1\n      pop\n      jump\t// out\n        /* \"#utility.yul\":3019:3109   */\n    tag_233:\n        /* \"#utility.yul\":3053:3060   */\n      0x00\n        /* \"#utility.yul\":3096:3101   */\n      dup2\n        /* \"#utility.yul\":3089:3102   */\n      iszero\n        /* \"#utility.yul\":3082:3103   */\n      iszero\n        /* \"#utility.yul\":3071:3103   */\n      swap1\n      pop\n        /* \"#utility.yul\":3019:3109   */\n      swap2\n      swap1\n      pop\n      jump\t// out\n        /* \"#utility.yul\":3115:3224   */\n    tag_234:\n        /* \"#utility.yul\":3196:3217   */\n      tag_306\n        /* \"#utility.yul\":3211:3216   */\n      dup2\n        /* \"#utility.yul\":3196:3217   */\n      tag_233\n      jump\t// in\n    tag_306:\n        /* \"#utility.yul\":3191:3194   */\n      dup3\n        /* \"#utility.yul\":3184:3218   */\n      mstore\n        /* \"#utility.yul\":3115:3224   */\n      pop\n      pop\n      jump\t// out\n        /* \"#utility.yul\":3230:3440   */\n    tag_32:\n        /* \"#utility.yul\":3317:3321   */\n      0x00\n        /* \"#utility.yul\":3355:3357   */\n      0x20\n        /* \"#utility.yul\":3344:3353   */\n      dup3\n        /* \"#utility.yul\":3340:3358   */\n      add\n        /* \"#utility.yul\":3332:3358   */\n      swap1\n      pop\n        /* \"#utility.yul\":3368:3433   */\n      tag_308\n        /* \"#utility.yul\":3430:3431   */\n      0x00\n        /* \"#utility.yul\":3419:3428   */\n      dup4\n        /* \"#utility.yul\":3415:3432   */\n      add\n        /* \"#utility.yul\":3406:3412   */\n      dup5\n        /* \"#utility.yul\":3368:3433   */\n      tag_234\n      jump\t// in\n    tag_308:\n        /* \"#utility.yul\":3230:3440   */\n      swap3\n      swap2\n      pop\n      pop\n      jump\t// out\n        /* \"#utility.yul\":3446:3564   */\n    tag_235:\n        /* \"#utility.yul\":3533:3557   */\n      tag_310\n        /* \"#utility.yul\":3551:3556   */\n      dup2\n        /* \"#utility.yul\":3533:3557   */\n      tag_230\n      jump\t// in\n    tag_310:\n        /* \"#utility.yul\":3528:3531   */\n      dup3\n        /* \"#utility.yul\":3521:3558   */\n      mstore\n        /* \"#utility.yul\":3446:3564   */\n      pop\n      pop\n      jump\t// out\n        /* \"#utility.yul\":3570:3792   */\n    tag_37:\n        /* \"#utility.yul\":3663:3667   */\n      0x00\n        /* \"#utility.yul\":3701:3703   */\n      0x20\n        /* \"#utility.yul\":3690:3699   */\n      dup3\n        /* \"#utility.yul\":3686:3704   */\n      add\n        /* \"#utility.yul\":3678:3704   */\n      swap1\n      pop\n        /* \"#utility.yul\":3714:3785   */\n      tag_312\n        /* \"#utility.yul\":3782:3783   */\n      0x00\n        /* \"#utility.yul\":3771:3780   */\n      dup4\n        /* \"#utility.yul\":3767:3784   */\n      add\n        /* \"#utility.yul\":3758:3764   */\n      dup5\n        /* \"#utility.yul\":3714:3785   */\n      tag_235\n      jump\t// in\n    tag_312:\n        /* \"#utility.yul\":3570:3792   */\n      swap3\n      swap2\n      pop\n      pop\n      jump\t// out\n        /* \"#utility.yul\":3798:4417   */\n    tag_41:\n        /* \"#utility.yul\":3875:3881   */\n      0x00\n        /* \"#utility.yul\":3883:3889   */\n      dup1\n        /* \"#utility.yul\":3891:3897   */\n      0x00\n        /* \"#utility.yul\":3940:3942   */\n      0x60\n        /* \"#utility.yul\":3928:3937   */\n      dup5\n        /* \"#utility.yul\":3919:3926   */\n      dup7\n        /* \"#utility.yul\":3915:3938   */\n      sub\n        /* \"#utility.yul\":3911:3943   */\n      slt\n        /* \"#utility.yul\":3908:4027   */\n      iszero\n      tag_314\n      jumpi\n        /* \"#utility.yul\":3946:4025   */\n      tag_315\n      tag_224\n      jump\t// in\n    tag_315:\n        /* \"#utility.yul\":3908:4027   */\n    tag_314:\n        /* \"#utility.yul\":4066:4067   */\n      0x00\n        /* \"#utility.yul\":4091:4144   */\n      tag_316\n        /* \"#utility.yul\":4136:4143   */\n      dup7\n        /* \"#utility.yul\":4127:4133   */\n      dup3\n        /* \"#utility.yul\":4116:4125   */\n      dup8\n        /* \"#utility.yul\":4112:4134   */\n      add\n        /* \"#utility.yul\":4091:4144   */\n      tag_229\n      jump\t// in\n    tag_316:\n        /* \"#utility.yul\":4081:4144   */\n      swap4\n      pop\n        /* \"#utility.yul\":4037:4154   */\n      pop\n        /* \"#utility.yul\":4193:4195   */\n      0x20\n        /* \"#utility.yul\":4219:4272   */\n      tag_317\n        /* \"#utility.yul\":4264:4271   */\n      dup7\n        /* \"#utility.yul\":4255:4261   */\n      dup3\n        /* \"#utility.yul\":4244:4253   */\n      dup8\n        /* \"#utility.yul\":4240:4262   */\n      add\n        /* \"#utility.yul\":4219:4272   */\n      tag_229\n      jump\t// in\n    tag_317:\n        /* \"#utility.yul\":4209:4272   */\n      swap3\n      pop\n        /* \"#utility.yul\":4164:4282   */\n      pop\n        /* \"#utility.yul\":4321:4323   */\n      0x40\n        /* \"#utility.yul\":4347:4400   */\n      tag_318\n        /* \"#utility.yul\":4392:4399   */\n      dup7\n        /* \"#utility.yul\":4383:4389   */\n      dup3\n        /* \"#utility.yul\":4372:4381   */\n      dup8\n        /* \"#utility.yul\":4368:4390   */\n      add\n        /* \"#utility.yul\":4347:4400   */\n      tag_232\n      jump\t// in\n    tag_318:\n        /* \"#utility.yul\":4337:4400   */\n      swap2\n      pop\n        /* \"#utility.yul\":4292:4410   */\n      pop\n        /* \"#utility.yul\":3798:4417   */\n      swap3\n      pop\n      swap3\n      pop\n      swap3\n      jump\t// out\n        /* \"#utility.yul\":4423:4509   */\n    tag_236:\n        /* \"#utility.yul\":4458:4465   */\n      0x00\n        /* \"#utility.yul\":4498:4502   */\n      0xff\n        /* \"#utility.yul\":4491:4496   */\n      dup3\n        /* \"#utility.yul\":4487:4503   */\n      and\n        /* \"#utility.yul\":4476:4503   */\n      swap1\n      pop\n        /* \"#utility.yul\":4423:4509   */\n      swap2\n      swap1\n      pop\n      jump\t// out\n        /* \"#utility.yul\":4515:4627   */\n    tag_237:\n        /* \"#utility.yul\":4598:4620   */\n      tag_321\n        /* \"#utility.yul\":4614:4619   */\n      dup2\n        /* \"#utility.yul\":4598:4620   */\n      tag_236\n      jump\t// in\n    tag_321:\n        /* \"#utility.yul\":4593:4596   */\n      dup3\n        /* \"#utility.yul\":4586:4621   */\n      mstore\n        /* \"#utility.yul\":4515:4627   */\n      pop\n      pop\n      jump\t// out\n        /* \"#utility.yul\":4633:4847   */\n    tag_48:\n        /* \"#utility.yul\":4722:4726   */\n      0x00\n        /* \"#utility.yul\":4760:4762   */\n      0x20\n        /* \"#utility.yul\":4749:4758   */\n      dup3\n        /* \"#utility.yul\":4745:4763   */\n      add\n        /* \"#utility.yul\":4737:4763   */\n      swap1\n      pop\n        /* \"#utility.yul\":4773:4840   */\n      tag_323\n        /* \"#utility.yul\":4837:4838   */\n      0x00\n        /* \"#utility.yul\":4826:4835   */\n      dup4\n        /* \"#utility.yul\":4822:4839   */\n      add\n        /* \"#utility.yul\":4813:4819   */\n      dup5\n        /* \"#utility.yul\":4773:4840   */\n      tag_237\n      jump\t// in\n    tag_323:\n        /* \"#utility.yul\":4633:4847   */\n      swap3\n      swap2\n      pop\n      pop\n      jump\t// out\n        /* \"#utility.yul\":4853:5182   */\n    tag_51:\n        /* \"#utility.yul\":4912:4918   */\n      0x00\n        /* \"#utility.yul\":4961:4963   */\n      0x20\n        /* \"#utility.yul\":4949:4958   */\n      dup3\n        /* \"#utility.yul\":4940:4947   */\n      dup5\n        /* \"#utility.yul\":4936:4959   */\n      sub\n        /* \"#utility.yul\":4932:4964   */\n      slt\n        /* \"#utility.yul\":4929:5048   */\n      iszero\n      tag_325\n      jumpi\n        /* \"#utility.yul\":4967:5046   */\n      tag_326\n      tag_224\n      jump\t// in\n    tag_326:\n        /* \"#utility.yul\":4929:5048   */\n    tag_325:\n        /* \"#utility.yul\":5087:5088   */\n      0x00\n        /* \"#utility.yul\":5112:5165   */\n      tag_327\n        /* \"#utility.yul\":5157:5164   */\n      dup5\n        /* \"#utility.yul\":5148:5154   */\n      dup3\n        /* \"#utility.yul\":5137:5146   */\n      dup6\n        /* \"#utility.yul\":5133:5155   */\n      add\n        /* \"#utility.yul\":5112:5165   */\n      tag_232\n      jump\t// in\n    tag_327:\n        /* \"#utility.yul\":5102:5165   */\n      swap2\n      pop\n        /* \"#utility.yul\":5058:5175   */\n      pop\n        /* \"#utility.yul\":4853:5182   */\n      swap3\n      swap2\n      pop\n      pop\n      jump\t// out\n        /* \"#utility.yul\":5188:5517   */\n    tag_65:\n        /* \"#utility.yul\":5247:5253   */\n      0x00\n        /* \"#utility.yul\":5296:5298   */\n      0x20\n        /* \"#utility.yul\":5284:5293   */\n      dup3\n        /* \"#utility.yul\":5275:5282   */\n      dup5\n        /* \"#utility.yul\":5271:5294   */\n      sub\n        /* \"#utility.yul\":5267:5299   */\n      slt\n        /* \"#utility.yul\":5264:5383   */\n      iszero\n      tag_329\n      jumpi\n        /* \"#utility.yul\":5302:5381   */\n      tag_330\n      tag_224\n      jump\t// in\n    tag_330:\n        /* \"#utility.yul\":5264:5383   */\n    tag_329:\n        /* \"#utility.yul\":5422:5423   */\n      0x00\n        /* \"#utility.yul\":5447:5500   */\n      tag_331\n        /* \"#utility.yul\":5492:5499   */\n      dup5\n        /* \"#utility.yul\":5483:5489   */\n      dup3\n        /* \"#utility.yul\":5472:5481   */\n      dup6\n        /* \"#utility.yul\":5468:5490   */\n      add\n        /* \"#utility.yul\":5447:5500   */\n      tag_229\n      jump\t// in\n    tag_331:\n        /* \"#utility.yul\":5437:5500   */\n      swap2\n      pop\n        /* \"#utility.yul\":5393:5510   */\n      pop\n        /* \"#utility.yul\":5188:5517   */\n      swap3\n      swap2\n      pop\n      pop\n      jump\t// out\n        /* \"#utility.yul\":5523:5641   */\n    tag_238:\n        /* \"#utility.yul\":5610:5634   */\n      tag_333\n        /* \"#utility.yul\":5628:5633   */\n      dup2\n        /* \"#utility.yul\":5610:5634   */\n      tag_227\n      jump\t// in\n    tag_333:\n        /* \"#utility.yul\":5605:5608   */\n      dup3\n        /* \"#utility.yul\":5598:5635   */\n      mstore\n        /* \"#utility.yul\":5523:5641   */\n      pop\n      pop\n      jump\t// out\n        /* \"#utility.yul\":5647:5869   */\n    tag_75:\n        /* \"#utility.yul\":5740:5744   */\n      0x00\n        /* \"#utility.yul\":5778:5780   */\n      0x20\n        /* \"#utility.yul\":5767:5776   */\n      dup3\n        /* \"#utility.yul\":5763:5781   */\n      add\n        /* \"#utility.yul\":5755:5781   */\n      swap1\n      pop\n        /* \"#utility.yul\":5791:5862   */\n      tag_335\n        /* \"#utility.yul\":5859:5860   */\n      0x00\n        /* \"#utility.yul\":5848:5857   */\n      dup4\n        /* \"#utility.yul\":5844:5861   */\n      add\n        /* \"#utility.yul\":5835:5841   */\n      dup5\n        /* \"#utility.yul\":5791:5862   */\n      tag_238\n      jump\t// in\n    tag_335:\n        /* \"#utility.yul\":5647:5869   */\n      swap3\n      swap2\n      pop\n      pop\n      jump\t// out\n        /* \"#utility.yul\":5875:6349   */\n    tag_93:\n        /* \"#utility.yul\":5943:5949   */\n      0x00\n        /* \"#utility.yul\":5951:5957   */\n      dup1\n        /* \"#utility.yul\":6000:6002   */\n      0x40\n        /* \"#utility.yul\":5988:5997   */\n      dup4\n        /* \"#utility.yul\":5979:5986   */\n      dup6\n        /* \"#utility.yul\":5975:5998   */\n      sub\n        /* \"#utility.yul\":5971:6003   */\n      slt\n        /* \"#utility.yul\":5968:6087   */\n      iszero\n      tag_337\n      jumpi\n        /* \"#utility.yul\":6006:6085   */\n      tag_338\n      tag_224\n      jump\t// in\n    tag_338:\n        /* \"#utility.yul\":5968:6087   */\n    tag_337:\n        /* \"#utility.yul\":6126:6127   */\n      0x00\n        /* \"#utility.yul\":6151:6204   */\n      tag_339\n        /* \"#utility.yul\":6196:6203   */\n      dup6\n        /* \"#utility.yul\":6187:6193   */\n      dup3\n        /* \"#utility.yul\":6176:6185   */\n      dup7\n        /* \"#utility.yul\":6172:6194   */\n      add\n        /* \"#utility.yul\":6151:6204   */\n      tag_229\n      jump\t// in\n    tag_339:\n        /* \"#utility.yul\":6141:6204   */\n      swap3\n      pop\n        /* \"#utility.yul\":6097:6214   */\n      pop\n        /* \"#utility.yul\":6253:6255   */\n      0x20\n        /* \"#utility.yul\":6279:6332   */\n      tag_340\n        /* \"#utility.yul\":6324:6331   */\n      dup6\n        /* \"#utility.yul\":6315:6321   */\n      dup3\n        /* \"#utility.yul\":6304:6313   */\n      dup7\n        /* \"#utility.yul\":6300:6322   */\n      add\n        /* \"#utility.yul\":6279:6332   */\n      tag_229\n      jump\t// in\n    tag_340:\n        /* \"#utility.yul\":6269:6332   */\n      swap2\n      pop\n        /* \"#utility.yul\":6224:6342   */\n      pop\n        /* \"#utility.yul\":5875:6349   */\n      swap3\n      pop\n      swap3\n      swap1\n      pop\n      jump\t// out\n        /* \"#utility.yul\":6355:6535   */\n    tag_239:\n        /* \"#utility.yul\":6403:6480   */\n      0x4e487b7100000000000000000000000000000000000000000000000000000000\n        /* \"#utility.yul\":6400:6401   */\n      0x00\n        /* \"#utility.yul\":6393:6481   */\n      mstore\n        /* \"#utility.yul\":6500:6504   */\n      0x22\n        /* \"#utility.yul\":6497:6498   */\n      0x04\n        /* \"#utility.yul\":6490:6505   */\n      mstore\n        /* \"#utility.yul\":6524:6528   */\n      0x24\n        /* \"#utility.yul\":6521:6522   */\n      0x00\n        /* \"#utility.yul\":6514:6529   */\n      revert\n        /* \"#utility.yul\":6541:6861   */\n    tag_102:\n        /* \"#utility.yul\":6585:6591   */\n      0x00\n        /* \"#utility.yul\":6622:6623   */\n      0x02\n        /* \"#utility.yul\":6616:6620   */\n      dup3\n        /* \"#utility.yul\":6612:6624   */\n      div\n        /* \"#utility.yul\":6602:6624   */\n      swap1\n      pop\n        /* \"#utility.yul\":6669:6670   */\n      0x01\n        /* \"#utility.yul\":6663:6667   */\n      dup3\n        /* \"#utility.yul\":6659:6671   */\n      and\n        /* \"#utility.yul\":6690:6708   */\n      dup1\n        /* \"#utility.yul\":6680:6761   */\n      tag_343\n      jumpi\n        /* \"#utility.yul\":6746:6750   */\n      0x7f\n        /* \"#utility.yul\":6738:6744   */\n      dup3\n        /* \"#utility.yul\":6734:6751   */\n      and\n        /* \"#utility.yul\":6724:6751   */\n      swap2\n      pop\n        /* \"#utility.yul\":6680:6761   */\n    tag_343:\n        /* \"#utility.yul\":6808:6810   */\n      0x20\n        /* \"#utility.yul\":6800:6806   */\n      dup3\n        /* \"#utility.yul\":6797:6811   */\n      lt\n        /* \"#utility.yul\":6777:6795   */\n      dup2\n        /* \"#utility.yul\":6774:6812   */\n      sub\n        /* \"#utility.yul\":6771:6855   */\n      tag_344\n      jumpi\n        /* \"#utility.yul\":6827:6845   */\n      tag_345\n      tag_239\n      jump\t// in\n    tag_345:\n        /* \"#utility.yul\":6771:6855   */\n    tag_344:\n        /* \"#utility.yul\":6592:6861   */\n      pop\n        /* \"#utility.yul\":6541:6861   */\n      swap2\n      swap1\n      pop\n      jump\t// out\n        /* \"#utility.yul\":6867:7044   */\n    tag_240:\n        /* \"#utility.yul\":7007:7036   */\n      0x596f75206e65656420746f2073656e6420736f6d652065746865720000000000\n        /* \"#utility.yul\":7003:7004   */\n      0x00\n        /* \"#utility.yul\":6995:7001   */\n      dup3\n        /* \"#utility.yul\":6991:7005   */\n      add\n        /* \"#utility.yul\":6984:7037   */\n      mstore\n        /* \"#utility.yul\":6867:7044   */\n      pop\n      jump\t// out\n        /* \"#utility.yul\":7050:7416   */\n    tag_241:\n        /* \"#utility.yul\":7192:7195   */\n      0x00\n        /* \"#utility.yul\":7213:7280   */\n      tag_348\n        /* \"#utility.yul\":7277:7279   */\n      0x1b\n        /* \"#utility.yul\":7272:7275   */\n      dup4\n        /* \"#utility.yul\":7213:7280   */\n      tag_219\n      jump\t// in\n    tag_348:\n        /* \"#utility.yul\":7206:7280   */\n      swap2\n      pop\n        /* \"#utility.yul\":7289:7382   */\n      tag_349\n        /* \"#utility.yul\":7378:7381   */\n      dup3\n        /* \"#utility.yul\":7289:7382   */\n      tag_240\n      jump\t// in\n    tag_349:\n        /* \"#utility.yul\":7407:7409   */\n      0x20\n        /* \"#utility.yul\":7402:7405   */\n      dup3\n        /* \"#utility.yul\":7398:7410   */\n      add\n        /* \"#utility.yul\":7391:7410   */\n      swap1\n      pop\n        /* \"#utility.yul\":7050:7416   */\n      swap2\n      swap1\n      pop\n      jump\t// out\n        /* \"#utility.yul\":7422:7841   */\n    tag_124:\n        /* \"#utility.yul\":7588:7592   */\n      0x00\n        /* \"#utility.yul\":7626:7628   */\n      0x20\n        /* \"#utility.yul\":7615:7624   */\n      dup3\n        /* \"#utility.yul\":7611:7629   */\n      add\n        /* \"#utility.yul\":7603:7629   */\n      swap1\n      pop\n        /* \"#utility.yul\":7675:7684   */\n      dup2\n        /* \"#utility.yul\":7669:7673   */\n      dup2\n        /* \"#utility.yul\":7665:7685   */\n      sub\n        /* \"#utility.yul\":7661:7662   */\n      0x00\n        /* \"#utility.yul\":7650:7659   */\n      dup4\n        /* \"#utility.yul\":7646:7663   */\n      add\n        /* \"#utility.yul\":7639:7686   */\n      mstore\n        /* \"#utility.yul\":7703:7834   */\n      tag_351\n        /* \"#utility.yul\":7829:7833   */\n      dup2\n        /* \"#utility.yul\":7703:7834   */\n      tag_241\n      jump\t// in\n    tag_351:\n        /* \"#utility.yul\":7695:7834   */\n      swap1\n      pop\n        /* \"#utility.yul\":7422:7841   */\n      swap2\n      swap1\n      pop\n      jump\t// out\n        /* \"#utility.yul\":7847:8029   */\n    tag_242:\n        /* \"#utility.yul\":7987:8021   */\n      0x4e6f7420656e6f75676820746f6b656e7320696e207468652072657365727665\n        /* \"#utility.yul\":7983:7984   */\n      0x00\n        /* \"#utility.yul\":7975:7981   */\n      dup3\n        /* \"#utility.yul\":7971:7985   */\n      add\n        /* \"#utility.yul\":7964:8022   */\n      mstore\n        /* \"#utility.yul\":7847:8029   */\n      pop\n      jump\t// out\n        /* \"#utility.yul\":8035:8401   */\n    tag_243:\n        /* \"#utility.yul\":8177:8180   */\n      0x00\n        /* \"#utility.yul\":8198:8265   */\n      tag_354\n        /* \"#utility.yul\":8262:8264   */\n      0x20\n        /* \"#utility.yul\":8257:8260   */\n      dup4\n        /* \"#utility.yul\":8198:8265   */\n      tag_219\n      jump\t// in\n    tag_354:\n        /* \"#utility.yul\":8191:8265   */\n      swap2\n      pop\n        /* \"#utility.yul\":8274:8367   */\n      tag_355\n        /* \"#utility.yul\":8363:8366   */\n      dup3\n        /* \"#utility.yul\":8274:8367   */\n      tag_242\n      jump\t// in\n    tag_355:\n        /* \"#utility.yul\":8392:8394   */\n      0x20\n        /* \"#utility.yul\":8387:8390   */\n      dup3\n        /* \"#utility.yul\":8383:8395   */\n      add\n        /* \"#utility.yul\":8376:8395   */\n      swap1\n      pop\n        /* \"#utility.yul\":8035:8401   */\n      swap2\n      swap1\n      pop\n      jump\t// out\n        /* \"#utility.yul\":8407:8826   */\n    tag_127:\n        /* \"#utility.yul\":8573:8577   */\n      0x00\n        /* \"#utility.yul\":8611:8613   */\n      0x20\n        /* \"#utility.yul\":8600:8609   */\n      dup3\n        /* \"#utility.yul\":8596:8614   */\n      add\n        /* \"#utility.yul\":8588:8614   */\n      swap1\n      pop\n        /* \"#utility.yul\":8660:8669   */\n      dup2\n        /* \"#utility.yul\":8654:8658   */\n      dup2\n        /* \"#utility.yul\":8650:8670   */\n      sub\n        /* \"#utility.yul\":8646:8647   */\n      0x00\n        /* \"#utility.yul\":8635:8644   */\n      dup4\n        /* \"#utility.yul\":8631:8648   */\n      add\n        /* \"#utility.yul\":8624:8671   */\n      mstore\n        /* \"#utility.yul\":8688:8819   */\n      tag_357\n        /* \"#utility.yul\":8814:8818   */\n      dup2\n        /* \"#utility.yul\":8688:8819   */\n      tag_243\n      jump\t// in\n    tag_357:\n        /* \"#utility.yul\":8680:8819   */\n      swap1\n      pop\n        /* \"#utility.yul\":8407:8826   */\n      swap2\n      swap1\n      pop\n      jump\t// out\n        /* \"#utility.yul\":8832:9012   */\n    tag_244:\n        /* \"#utility.yul\":8880:8957   */\n      0x4e487b7100000000000000000000000000000000000000000000000000000000\n        /* \"#utility.yul\":8877:8878   */\n      0x00\n        /* \"#utility.yul\":8870:8958   */\n      mstore\n        /* \"#utility.yul\":8977:8981   */\n      0x11\n        /* \"#utility.yul\":8974:8975   */\n      0x04\n        /* \"#utility.yul\":8967:8982   */\n      mstore\n        /* \"#utility.yul\":9001:9005   */\n      0x24\n        /* \"#utility.yul\":8998:8999   */\n      0x00\n        /* \"#utility.yul\":8991:9006   */\n      revert\n        /* \"#utility.yul\":9018:9209   */\n    tag_134:\n        /* \"#utility.yul\":9058:9061   */\n      0x00\n        /* \"#utility.yul\":9077:9097   */\n      tag_360\n        /* \"#utility.yul\":9095:9096   */\n      dup3\n        /* \"#utility.yul\":9077:9097   */\n      tag_230\n      jump\t// in\n    tag_360:\n        /* \"#utility.yul\":9072:9097   */\n      swap2\n      pop\n        /* \"#utility.yul\":9111:9131   */\n      tag_361\n        /* \"#utility.yul\":9129:9130   */\n      dup4\n        /* \"#utility.yul\":9111:9131   */\n      tag_230\n      jump\t// in\n    tag_361:\n        /* \"#utility.yul\":9106:9131   */\n      swap3\n      pop\n        /* \"#utility.yul\":9154:9155   */\n      dup3\n        /* \"#utility.yul\":9151:9152   */\n      dup3\n        /* \"#utility.yul\":9147:9156   */\n      add\n        /* \"#utility.yul\":9140:9156   */\n      swap1\n      pop\n        /* \"#utility.yul\":9175:9178   */\n      dup1\n        /* \"#utility.yul\":9172:9173   */\n      dup3\n        /* \"#utility.yul\":9169:9179   */\n      gt\n        /* \"#utility.yul\":9166:9202   */\n      iszero\n      tag_362\n      jumpi\n        /* \"#utility.yul\":9182:9200   */\n      tag_363\n      tag_244\n      jump\t// in\n    tag_363:\n        /* \"#utility.yul\":9166:9202   */\n    tag_362:\n        /* \"#utility.yul\":9018:9209   */\n      swap3\n      swap2\n      pop\n      pop\n      jump\t// out\n        /* \"#utility.yul\":9215:9439   */\n    tag_245:\n        /* \"#utility.yul\":9355:9389   */\n      0x596f75206e65656420746f2073656c6c206174206c6561737420736f6d652074\n        /* \"#utility.yul\":9351:9352   */\n      0x00\n        /* \"#utility.yul\":9343:9349   */\n      dup3\n        /* \"#utility.yul\":9339:9353   */\n      add\n        /* \"#utility.yul\":9332:9390   */\n      mstore\n        /* \"#utility.yul\":9424:9431   */\n      0x6f6b656e73000000000000000000000000000000000000000000000000000000\n        /* \"#utility.yul\":9419:9421   */\n      0x20\n        /* \"#utility.yul\":9411:9417   */\n      dup3\n        /* \"#utility.yul\":9407:9422   */\n      add\n        /* \"#utility.yul\":9400:9432   */\n      mstore\n        /* \"#utility.yul\":9215:9439   */\n      pop\n      jump\t// out\n        /* \"#utility.yul\":9445:9811   */\n    tag_246:\n        /* \"#utility.yul\":9587:9590   */\n      0x00\n        /* \"#utility.yul\":9608:9675   */\n      tag_366\n        /* \"#utility.yul\":9672:9674   */\n      0x25\n        /* \"#utility.yul\":9667:9670   */\n      dup4\n        /* \"#utility.yul\":9608:9675   */\n      tag_219\n      jump\t// in\n    tag_366:\n        /* \"#utility.yul\":9601:9675   */\n      swap2\n      pop\n        /* \"#utility.yul\":9684:9777   */\n      tag_367\n        /* \"#utility.yul\":9773:9776   */\n      dup3\n        /* \"#utility.yul\":9684:9777   */\n      tag_245\n      jump\t// in\n    tag_367:\n        /* \"#utility.yul\":9802:9804   */\n      0x40\n        /* \"#utility.yul\":9797:9800   */\n      dup3\n        /* \"#utility.yul\":9793:9805   */\n      add\n        /* \"#utility.yul\":9786:9805   */\n      swap1\n      pop\n        /* \"#utility.yul\":9445:9811   */\n      swap2\n      swap1\n      pop\n      jump\t// out\n        /* \"#utility.yul\":9817:10236   */\n    tag_138:\n        /* \"#utility.yul\":9983:9987   */\n      0x00\n        /* \"#utility.yul\":10021:10023   */\n      0x20\n        /* \"#utility.yul\":10010:10019   */\n      dup3\n        /* \"#utility.yul\":10006:10024   */\n      add\n        /* \"#utility.yul\":9998:10024   */\n      swap1\n      pop\n        /* \"#utility.yul\":10070:10079   */\n      dup2\n        /* \"#utility.yul\":10064:10068   */\n      dup2\n        /* \"#utility.yul\":10060:10080   */\n      sub\n        /* \"#utility.yul\":10056:10057   */\n      0x00\n        /* \"#utility.yul\":10045:10054   */\n      dup4\n        /* \"#utility.yul\":10041:10058   */\n      add\n        /* \"#utility.yul\":10034:10081   */\n      mstore\n        /* \"#utility.yul\":10098:10229   */\n      tag_369\n        /* \"#utility.yul\":10224:10228   */\n      dup2\n        /* \"#utility.yul\":10098:10229   */\n      tag_246\n      jump\t// in\n    tag_369:\n        /* \"#utility.yul\":10090:10229   */\n      swap1\n      pop\n        /* \"#utility.yul\":9817:10236   */\n      swap2\n      swap1\n      pop\n      jump\t// out\n        /* \"#utility.yul\":10242:10417   */\n    tag_247:\n        /* \"#utility.yul\":10382:10409   */\n      0x436865636b2074686520746f6b656e20616c6c6f77616e636500000000000000\n        /* \"#utility.yul\":10378:10379   */\n      0x00\n        /* \"#utility.yul\":10370:10376   */\n      dup3\n        /* \"#utility.yul\":10366:10380   */\n      add\n        /* \"#utility.yul\":10359:10410   */\n      mstore\n        /* \"#utility.yul\":10242:10417   */\n      pop\n      jump\t// out\n        /* \"#utility.yul\":10423:10789   */\n    tag_248:\n        /* \"#utility.yul\":10565:10568   */\n      0x00\n        /* \"#utility.yul\":10586:10653   */\n      tag_372\n        /* \"#utility.yul\":10650:10652   */\n      0x19\n        /* \"#utility.yul\":10645:10648   */\n      dup4\n        /* \"#utility.yul\":10586:10653   */\n      tag_219\n      jump\t// in\n    tag_372:\n        /* \"#utility.yul\":10579:10653   */\n      swap2\n      pop\n        /* \"#utility.yul\":10662:10755   */\n      tag_373\n        /* \"#utility.yul\":10751:10754   */\n      dup3\n        /* \"#utility.yul\":10662:10755   */\n      tag_247\n      jump\t// in\n    tag_373:\n        /* \"#utility.yul\":10780:10782   */\n      0x20\n        /* \"#utility.yul\":10775:10778   */\n      dup3\n        /* \"#utility.yul\":10771:10783   */\n      add\n        /* \"#utility.yul\":10764:10783   */\n      swap1\n      pop\n        /* \"#utility.yul\":10423:10789   */\n      swap2\n      swap1\n      pop\n      jump\t// out\n        /* \"#utility.yul\":10795:11214   */\n    tag_142:\n        /* \"#utility.yul\":10961:10965   */\n      0x00\n        /* \"#utility.yul\":10999:11001   */\n      0x20\n        /* \"#utility.yul\":10988:10997   */\n      dup3\n        /* \"#utility.yul\":10984:11002   */\n      add\n        /* \"#utility.yul\":10976:11002   */\n      swap1\n      pop\n        /* \"#utility.yul\":11048:11057   */\n      dup2\n        /* \"#utility.yul\":11042:11046   */\n      dup2\n        /* \"#utility.yul\":11038:11058   */\n      sub\n        /* \"#utility.yul\":11034:11035   */\n      0x00\n        /* \"#utility.yul\":11023:11032   */\n      dup4\n        /* \"#utility.yul\":11019:11036   */\n      add\n        /* \"#utility.yul\":11012:11059   */\n      mstore\n        /* \"#utility.yul\":11076:11207   */\n      tag_375\n        /* \"#utility.yul\":11202:11206   */\n      dup2\n        /* \"#utility.yul\":11076:11207   */\n      tag_248\n      jump\t// in\n    tag_375:\n        /* \"#utility.yul\":11068:11207   */\n      swap1\n      pop\n        /* \"#utility.yul\":10795:11214   */\n      swap2\n      swap1\n      pop\n      jump\t// out\n        /* \"#utility.yul\":11220:11444   */\n    tag_249:\n        /* \"#utility.yul\":11360:11394   */\n      0x45524332303a2064656372656173656420616c6c6f77616e63652062656c6f77\n        /* \"#utility.yul\":11356:11357   */\n      0x00\n        /* \"#utility.yul\":11348:11354   */\n      dup3\n        /* \"#utility.yul\":11344:11358   */\n      add\n        /* \"#utility.yul\":11337:11395   */\n      mstore\n        /* \"#utility.yul\":11429:11436   */\n      0x207a65726f000000000000000000000000000000000000000000000000000000\n        /* \"#utility.yul\":11424:11426   */\n      0x20\n        /* \"#utility.yul\":11416:11422   */\n      dup3\n        /* \"#utility.yul\":11412:11427   */\n      add\n        /* \"#utility.yul\":11405:11437   */\n      mstore\n        /* \"#utility.yul\":11220:11444   */\n      pop\n      jump\t// out\n        /* \"#utility.yul\":11450:11816   */\n    tag_250:\n        /* \"#utility.yul\":11592:11595   */\n      0x00\n        /* \"#utility.yul\":11613:11680   */\n      tag_378\n        /* \"#utility.yul\":11677:11679   */\n      0x25\n        /* \"#utility.yul\":11672:11675   */\n      dup4\n        /* \"#utility.yul\":11613:11680   */\n      tag_219\n      jump\t// in\n    tag_378:\n        /* \"#utility.yul\":11606:11680   */\n      swap2\n      pop\n        /* \"#utility.yul\":11689:11782   */\n      tag_379\n        /* \"#utility.yul\":11778:11781   */\n      dup3\n        /* \"#utility.yul\":11689:11782   */\n      tag_249\n      jump\t// in\n    tag_379:\n        /* \"#utility.yul\":11807:11809   */\n      0x40\n        /* \"#utility.yul\":11802:11805   */\n      dup3\n        /* \"#utility.yul\":11798:11810   */\n      add\n        /* \"#utility.yul\":11791:11810   */\n      swap1\n      pop\n        /* \"#utility.yul\":11450:11816   */\n      swap2\n      swap1\n      pop\n      jump\t// out\n        /* \"#utility.yul\":11822:12241   */\n    tag_165:\n        /* \"#utility.yul\":11988:11992   */\n      0x00\n        /* \"#utility.yul\":12026:12028   */\n      0x20\n        /* \"#utility.yul\":12015:12024   */\n      dup3\n        /* \"#utility.yul\":12011:12029   */\n      add\n        /* \"#utility.yul\":12003:12029   */\n      swap1\n      pop\n        /* \"#utility.yul\":12075:12084   */\n      dup2\n        /* \"#utility.yul\":12069:12073   */\n      dup2\n        /* \"#utility.yul\":12065:12085   */\n      sub\n        /* \"#utility.yul\":12061:12062   */\n      0x00\n        /* \"#utility.yul\":12050:12059   */\n      dup4\n        /* \"#utility.yul\":12046:12063   */\n      add\n        /* \"#utility.yul\":12039:12086   */\n      mstore\n        /* \"#utility.yul\":12103:12234   */\n      tag_381\n        /* \"#utility.yul\":12229:12233   */\n      dup2\n        /* \"#utility.yul\":12103:12234   */\n      tag_250\n      jump\t// in\n    tag_381:\n        /* \"#utility.yul\":12095:12234   */\n      swap1\n      pop\n        /* \"#utility.yul\":11822:12241   */\n      swap2\n      swap1\n      pop\n      jump\t// out\n        /* \"#utility.yul\":12247:12472   */\n    tag_251:\n        /* \"#utility.yul\":12387:12421   */\n      0x4f776e61626c653a206e6577206f776e657220697320746865207a65726f2061\n        /* \"#utility.yul\":12383:12384   */\n      0x00\n        /* \"#utility.yul\":12375:12381   */\n      dup3\n        /* \"#utility.yul\":12371:12385   */\n      add\n        /* \"#utility.yul\":12364:12422   */\n      mstore\n        /* \"#utility.yul\":12456:12464   */\n      0x6464726573730000000000000000000000000000000000000000000000000000\n        /* \"#utility.yul\":12451:12453   */\n      0x20\n        /* \"#utility.yul\":12443:12449   */\n      dup3\n        /* \"#utility.yul\":12439:12454   */\n      add\n        /* \"#utility.yul\":12432:12465   */\n      mstore\n        /* \"#utility.yul\":12247:12472   */\n      pop\n      jump\t// out\n        /* \"#utility.yul\":12478:12844   */\n    tag_252:\n        /* \"#utility.yul\":12620:12623   */\n      0x00\n        /* \"#utility.yul\":12641:12708   */\n      tag_384\n        /* \"#utility.yul\":12705:12707   */\n      0x26\n        /* \"#utility.yul\":12700:12703   */\n      dup4\n        /* \"#utility.yul\":12641:12708   */\n      tag_219\n      jump\t// in\n    tag_384:\n        /* \"#utility.yul\":12634:12708   */\n      swap2\n      pop\n        /* \"#utility.yul\":12717:12810   */\n      tag_385\n        /* \"#utility.yul\":12806:12809   */\n      dup3\n        /* \"#utility.yul\":12717:12810   */\n      tag_251\n      jump\t// in\n    tag_385:\n        /* \"#utility.yul\":12835:12837   */\n      0x40\n        /* \"#utility.yul\":12830:12833   */\n      dup3\n        /* \"#utility.yul\":12826:12838   */\n      add\n        /* \"#utility.yul\":12819:12838   */\n      swap1\n      pop\n        /* \"#utility.yul\":12478:12844   */\n      swap2\n      swap1\n      pop\n      jump\t// out\n        /* \"#utility.yul\":12850:13269   */\n    tag_176:\n        /* \"#utility.yul\":13016:13020   */\n      0x00\n        /* \"#utility.yul\":13054:13056   */\n      0x20\n        /* \"#utility.yul\":13043:13052   */\n      dup3\n        /* \"#utility.yul\":13039:13057   */\n      add\n        /* \"#utility.yul\":13031:13057   */\n      swap1\n      pop\n        /* \"#utility.yul\":13103:13112   */\n      dup2\n        /* \"#utility.yul\":13097:13101   */\n      dup2\n        /* \"#utility.yul\":13093:13113   */\n      sub\n        /* \"#utility.yul\":13089:13090   */\n      0x00\n        /* \"#utility.yul\":13078:13087   */\n      dup4\n        /* \"#utility.yul\":13074:13091   */\n      add\n        /* \"#utility.yul\":13067:13114   */\n      mstore\n        /* \"#utility.yul\":13131:13262   */\n      tag_387\n        /* \"#utility.yul\":13257:13261   */\n      dup2\n        /* \"#utility.yul\":13131:13262   */\n      tag_252\n      jump\t// in\n    tag_387:\n        /* \"#utility.yul\":13123:13262   */\n      swap1\n      pop\n        /* \"#utility.yul\":12850:13269   */\n      swap2\n      swap1\n      pop\n      jump\t// out\n        /* \"#utility.yul\":13275:13498   */\n    tag_253:\n        /* \"#utility.yul\":13415:13449   */\n      0x45524332303a20617070726f76652066726f6d20746865207a65726f20616464\n        /* \"#utility.yul\":13411:13412   */\n      0x00\n        /* \"#utility.yul\":13403:13409   */\n      dup3\n        /* \"#utility.yul\":13399:13413   */\n      add\n        /* \"#utility.yul\":13392:13450   */\n      mstore\n        /* \"#utility.yul\":13484:13490   */\n      0x7265737300000000000000000000000000000000000000000000000000000000\n        /* \"#utility.yul\":13479:13481   */\n      0x20\n        /* \"#utility.yul\":13471:13477   */\n      dup3\n        /* \"#utility.yul\":13467:13482   */\n      add\n        /* \"#utility.yul\":13460:13491   */\n      mstore\n        /* \"#utility.yul\":13275:13498   */\n      pop\n      jump\t// out\n        /* \"#utility.yul\":13504:13870   */\n    tag_254:\n        /* \"#utility.yul\":13646:13649   */\n      0x00\n        /* \"#utility.yul\":13667:13734   */\n      tag_390\n        /* \"#utility.yul\":13731:13733   */\n      0x24\n        /* \"#utility.yul\":13726:13729   */\n      dup4\n        /* \"#utility.yul\":13667:13734   */\n      tag_219\n      jump\t// in\n    tag_390:\n        /* \"#utility.yul\":13660:13734   */\n      swap2\n      pop\n        /* \"#utility.yul\":13743:13836   */\n      tag_391\n        /* \"#utility.yul\":13832:13835   */\n      dup3\n        /* \"#utility.yul\":13743:13836   */\n      tag_253\n      jump\t// in\n    tag_391:\n        /* \"#utility.yul\":13861:13863   */\n      0x40\n        /* \"#utility.yul\":13856:13859   */\n      dup3\n        /* \"#utility.yul\":13852:13864   */\n      add\n        /* \"#utility.yul\":13845:13864   */\n      swap1\n      pop\n        /* \"#utility.yul\":13504:13870   */\n      swap2\n      swap1\n      pop\n      jump\t// out\n        /* \"#utility.yul\":13876:14295   */\n    tag_182:\n        /* \"#utility.yul\":14042:14046   */\n      0x00\n        /* \"#utility.yul\":14080:14082   */\n      0x20\n        /* \"#utility.yul\":14069:14078   */\n      dup3\n        /* \"#utility.yul\":14065:14083   */\n      add\n        /* \"#utility.yul\":14057:14083   */\n      swap1\n      pop\n        /* \"#utility.yul\":14129:14138   */\n      dup2\n        /* \"#utility.yul\":14123:14127   */\n      dup2\n        /* \"#utility.yul\":14119:14139   */\n      sub\n        /* \"#utility.yul\":14115:14116   */\n      0x00\n        /* \"#utility.yul\":14104:14113   */\n      dup4\n        /* \"#utility.yul\":14100:14117   */\n      add\n        /* \"#utility.yul\":14093:14140   */\n      mstore\n        /* \"#utility.yul\":14157:14288   */\n      tag_393\n        /* \"#utility.yul\":14283:14287   */\n      dup2\n        /* \"#utility.yul\":14157:14288   */\n      tag_254\n      jump\t// in\n    tag_393:\n        /* \"#utility.yul\":14149:14288   */\n      swap1\n      pop\n        /* \"#utility.yul\":13876:14295   */\n      swap2\n      swap1\n      pop\n      jump\t// out\n        /* \"#utility.yul\":14301:14522   */\n    tag_255:\n        /* \"#utility.yul\":14441:14475   */\n      0x45524332303a20617070726f766520746f20746865207a65726f206164647265\n        /* \"#utility.yul\":14437:14438   */\n      0x00\n        /* \"#utility.yul\":14429:14435   */\n      dup3\n        /* \"#utility.yul\":14425:14439   */\n      add\n        /* \"#utility.yul\":14418:14476   */\n      mstore\n        /* \"#utility.yul\":14510:14514   */\n      0x7373000000000000000000000000000000000000000000000000000000000000\n        /* \"#utility.yul\":14505:14507   */\n      0x20\n        /* \"#utility.yul\":14497:14503   */\n      dup3\n        /* \"#utility.yul\":14493:14508   */\n      add\n        /* \"#utility.yul\":14486:14515   */\n      mstore\n        /* \"#utility.yul\":14301:14522   */\n      pop\n      jump\t// out\n        /* \"#utility.yul\":14528:14894   */\n    tag_256:\n        /* \"#utility.yul\":14670:14673   */\n      0x00\n        /* \"#utility.yul\":14691:14758   */\n      tag_396\n        /* \"#utility.yul\":14755:14757   */\n      0x22\n        /* \"#utility.yul\":14750:14753   */\n      dup4\n        /* \"#utility.yul\":14691:14758   */\n      tag_219\n      jump\t// in\n    tag_396:\n        /* \"#utility.yul\":14684:14758   */\n      swap2\n      pop\n        /* \"#utility.yul\":14767:14860   */\n      tag_397\n        /* \"#utility.yul\":14856:14859   */\n      dup3\n        /* \"#utility.yul\":14767:14860   */\n      tag_255\n      jump\t// in\n    tag_397:\n        /* \"#utility.yul\":14885:14887   */\n      0x40\n        /* \"#utility.yul\":14880:14883   */\n      dup3\n        /* \"#utility.yul\":14876:14888   */\n      add\n        /* \"#utility.yul\":14869:14888   */\n      swap1\n      pop\n        /* \"#utility.yul\":14528:14894   */\n      swap2\n      swap1\n      pop\n      jump\t// out\n        /* \"#utility.yul\":14900:15319   */\n    tag_185:\n        /* \"#utility.yul\":15066:15070   */\n      0x00\n        /* \"#utility.yul\":15104:15106   */\n      0x20\n        /* \"#utility.yul\":15093:15102   */\n      dup3\n        /* \"#utility.yul\":15089:15107   */\n      add\n        /* \"#utility.yul\":15081:15107   */\n      swap1\n      pop\n        /* \"#utility.yul\":15153:15162   */\n      dup2\n        /* \"#utility.yul\":15147:15151   */\n      dup2\n        /* \"#utility.yul\":15143:15163   */\n      sub\n        /* \"#utility.yul\":15139:15140   */\n      0x00\n        /* \"#utility.yul\":15128:15137   */\n      dup4\n        /* \"#utility.yul\":15124:15141   */\n      add\n        /* \"#utility.yul\":15117:15164   */\n      mstore\n        /* \"#utility.yul\":15181:15312   */\n      tag_399\n        /* \"#utility.yul\":15307:15311   */\n      dup2\n        /* \"#utility.yul\":15181:15312   */\n      tag_256\n      jump\t// in\n    tag_399:\n        /* \"#utility.yul\":15173:15312   */\n      swap1\n      pop\n        /* \"#utility.yul\":14900:15319   */\n      swap2\n      swap1\n      pop\n      jump\t// out\n        /* \"#utility.yul\":15325:15504   */\n    tag_257:\n        /* \"#utility.yul\":15465:15496   */\n      0x45524332303a20696e73756666696369656e7420616c6c6f77616e6365000000\n        /* \"#utility.yul\":15461:15462   */\n      0x00\n        /* \"#utility.yul\":15453:15459   */\n      dup3\n        /* \"#utility.yul\":15449:15463   */\n      add\n        /* \"#utility.yul\":15442:15497   */\n      mstore\n        /* \"#utility.yul\":15325:15504   */\n      pop\n      jump\t// out\n        /* \"#utility.yul\":15510:15876   */\n    tag_258:\n        /* \"#utility.yul\":15652:15655   */\n      0x00\n        /* \"#utility.yul\":15673:15740   */\n      tag_402\n        /* \"#utility.yul\":15737:15739   */\n      0x1d\n        /* \"#utility.yul\":15732:15735   */\n      dup4\n        /* \"#utility.yul\":15673:15740   */\n      tag_219\n      jump\t// in\n    tag_402:\n        /* \"#utility.yul\":15666:15740   */\n      swap2\n      pop\n        /* \"#utility.yul\":15749:15842   */\n      tag_403\n        /* \"#utility.yul\":15838:15841   */\n      dup3\n        /* \"#utility.yul\":15749:15842   */\n      tag_257\n      jump\t// in\n    tag_403:\n        /* \"#utility.yul\":15867:15869   */\n      0x20\n        /* \"#utility.yul\":15862:15865   */\n      dup3\n        /* \"#utility.yul\":15858:15870   */\n      add\n        /* \"#utility.yul\":15851:15870   */\n      swap1\n      pop\n        /* \"#utility.yul\":15510:15876   */\n      swap2\n      swap1\n      pop\n      jump\t// out\n        /* \"#utility.yul\":15882:16301   */\n    tag_192:\n        /* \"#utility.yul\":16048:16052   */\n      0x00\n        /* \"#utility.yul\":16086:16088   */\n      0x20\n        /* \"#utility.yul\":16075:16084   */\n      dup3\n        /* \"#utility.yul\":16071:16089   */\n      add\n        /* \"#utility.yul\":16063:16089   */\n      swap1\n      pop\n        /* \"#utility.yul\":16135:16144   */\n      dup2\n        /* \"#utility.yul\":16129:16133   */\n      dup2\n        /* \"#utility.yul\":16125:16145   */\n      sub\n        /* \"#utility.yul\":16121:16122   */\n      0x00\n        /* \"#utility.yul\":16110:16119   */\n      dup4\n        /* \"#utility.yul\":16106:16123   */\n      add\n        /* \"#utility.yul\":16099:16146   */\n      mstore\n        /* \"#utility.yul\":16163:16294   */\n      tag_405\n        /* \"#utility.yul\":16289:16293   */\n      dup2\n        /* \"#utility.yul\":16163:16294   */\n      tag_258\n      jump\t// in\n    tag_405:\n        /* \"#utility.yul\":16155:16294   */\n      swap1\n      pop\n        /* \"#utility.yul\":15882:16301   */\n      swap2\n      swap1\n      pop\n      jump\t// out\n        /* \"#utility.yul\":16307:16531   */\n    tag_259:\n        /* \"#utility.yul\":16447:16481   */\n      0x45524332303a207472616e736665722066726f6d20746865207a65726f206164\n        /* \"#utility.yul\":16443:16444   */\n      0x00\n        /* \"#utility.yul\":16435:16441   */\n      dup3\n        /* \"#utility.yul\":16431:16445   */\n      add\n        /* \"#utility.yul\":16424:16482   */\n      mstore\n        /* \"#utility.yul\":16516:16523   */\n      0x6472657373000000000000000000000000000000000000000000000000000000\n        /* \"#utility.yul\":16511:16513   */\n      0x20\n        /* \"#utility.yul\":16503:16509   */\n      dup3\n        /* \"#utility.yul\":16499:16514   */\n      add\n        /* \"#utility.yul\":16492:16524   */\n      mstore\n        /* \"#utility.yul\":16307:16531   */\n      pop\n      jump\t// out\n        /* \"#utility.yul\":16537:16903   */\n    tag_260:\n        /* \"#utility.yul\":16679:16682   */\n      0x00\n        /* \"#utility.yul\":16700:16767   */\n      tag_408\n        /* \"#utility.yul\":16764:16766   */\n      0x25\n        /* \"#utility.yul\":16759:16762   */\n      dup4\n        /* \"#utility.yul\":16700:16767   */\n      tag_219\n      jump\t// in\n    tag_408:\n        /* \"#utility.yul\":16693:16767   */\n      swap2\n      pop\n        /* \"#utility.yul\":16776:16869   */\n      tag_409\n        /* \"#utility.yul\":16865:16868   */\n      dup3\n        /* \"#utility.yul\":16776:16869   */\n      tag_259\n      jump\t// in\n    tag_409:\n        /* \"#utility.yul\":16894:16896   */\n      0x40\n        /* \"#utility.yul\":16889:16892   */\n      dup3\n        /* \"#utility.yul\":16885:16897   */\n      add\n        /* \"#utility.yul\":16878:16897   */\n      swap1\n      pop\n        /* \"#utility.yul\":16537:16903   */\n      swap2\n      swap1\n      pop\n      jump\t// out\n        /* \"#utility.yul\":16909:17328   */\n    tag_197:\n        /* \"#utility.yul\":17075:17079   */\n      0x00\n        /* \"#utility.yul\":17113:17115   */\n      0x20\n        /* \"#utility.yul\":17102:17111   */\n      dup3\n        /* \"#utility.yul\":17098:17116   */\n      add\n        /* \"#utility.yul\":17090:17116   */\n      swap1\n      pop\n        /* \"#utility.yul\":17162:17171   */\n      dup2\n        /* \"#utility.yul\":17156:17160   */\n      dup2\n        /* \"#utility.yul\":17152:17172   */\n      sub\n        /* \"#utility.yul\":17148:17149   */\n      0x00\n        /* \"#utility.yul\":17137:17146   */\n      dup4\n        /* \"#utility.yul\":17133:17150   */\n      add\n        /* \"#utility.yul\":17126:17173   */\n      mstore\n        /* \"#utility.yul\":17190:17321   */\n      tag_411\n        /* \"#utility.yul\":17316:17320   */\n      dup2\n        /* \"#utility.yul\":17190:17321   */\n      tag_260\n      jump\t// in\n    tag_411:\n        /* \"#utility.yul\":17182:17321   */\n      swap1\n      pop\n        /* \"#utility.yul\":16909:17328   */\n      swap2\n      swap1\n      pop\n      jump\t// out\n        /* \"#utility.yul\":17334:17556   */\n    tag_261:\n        /* \"#utility.yul\":17474:17508   */\n      0x45524332303a207472616e7366657220746f20746865207a65726f2061646472\n        /* \"#utility.yul\":17470:17471   */\n      0x00\n        /* \"#utility.yul\":17462:17468   */\n      dup3\n        /* \"#utility.yul\":17458:17472   */\n      add\n        /* \"#utility.yul\":17451:17509   */\n      mstore\n        /* \"#utility.yul\":17543:17548   */\n      0x6573730000000000000000000000000000000000000000000000000000000000\n        /* \"#utility.yul\":17538:17540   */\n      0x20\n        /* \"#utility.yul\":17530:17536   */\n      dup3\n        /* \"#utility.yul\":17526:17541   */\n      add\n        /* \"#utility.yul\":17519:17549   */\n      mstore\n        /* \"#utility.yul\":17334:17556   */\n      pop\n      jump\t// out\n        /* \"#utility.yul\":17562:17928   */\n    tag_262:\n        /* \"#utility.yul\":17704:17707   */\n      0x00\n        /* \"#utility.yul\":17725:17792   */\n      tag_414\n        /* \"#utility.yul\":17789:17791   */\n      0x23\n        /* \"#utility.yul\":17784:17787   */\n      dup4\n        /* \"#utility.yul\":17725:17792   */\n      tag_219\n      jump\t// in\n    tag_414:\n        /* \"#utility.yul\":17718:17792   */\n      swap2\n      pop\n        /* \"#utility.yul\":17801:17894   */\n      tag_415\n        /* \"#utility.yul\":17890:17893   */\n      dup3\n        /* \"#utility.yul\":17801:17894   */\n      tag_261\n      jump\t// in\n    tag_415:\n        /* \"#utility.yul\":17919:17921   */\n      0x40\n        /* \"#utility.yul\":17914:17917   */\n      dup3\n        /* \"#utility.yul\":17910:17922   */\n      add\n        /* \"#utility.yul\":17903:17922   */\n      swap1\n      pop\n        /* \"#utility.yul\":17562:17928   */\n      swap2\n      swap1\n      pop\n      jump\t// out\n        /* \"#utility.yul\":17934:18353   */\n    tag_200:\n        /* \"#utility.yul\":18100:18104   */\n      0x00\n        /* \"#utility.yul\":18138:18140   */\n      0x20\n        /* \"#utility.yul\":18127:18136   */\n      dup3\n        /* \"#utility.yul\":18123:18141   */\n      add\n        /* \"#utility.yul\":18115:18141   */\n      swap1\n      pop\n        /* \"#utility.yul\":18187:18196   */\n      dup2\n        /* \"#utility.yul\":18181:18185   */\n      dup2\n        /* \"#utility.yul\":18177:18197   */\n      sub\n        /* \"#utility.yul\":18173:18174   */\n      0x00\n        /* \"#utility.yul\":18162:18171   */\n      dup4\n        /* \"#utility.yul\":18158:18175   */\n      add\n        /* \"#utility.yul\":18151:18198   */\n      mstore\n        /* \"#utility.yul\":18215:18346   */\n      tag_417\n        /* \"#utility.yul\":18341:18345   */\n      dup2\n        /* \"#utility.yul\":18215:18346   */\n      tag_262\n      jump\t// in\n    tag_417:\n        /* \"#utility.yul\":18207:18346   */\n      swap1\n      pop\n        /* \"#utility.yul\":17934:18353   */\n      swap2\n      swap1\n      pop\n      jump\t// out\n        /* \"#utility.yul\":18359:18584   */\n    tag_263:\n        /* \"#utility.yul\":18499:18533   */\n      0x45524332303a207472616e7366657220616d6f756e7420657863656564732062\n        /* \"#utility.yul\":18495:18496   */\n      0x00\n        /* \"#utility.yul\":18487:18493   */\n      dup3\n        /* \"#utility.yul\":18483:18497   */\n      add\n        /* \"#utility.yul\":18476:18534   */\n      mstore\n        /* \"#utility.yul\":18568:18576   */\n      0x616c616e63650000000000000000000000000000000000000000000000000000\n        /* \"#utility.yul\":18563:18565   */\n      0x20\n        /* \"#utility.yul\":18555:18561   */\n      dup3\n        /* \"#utility.yul\":18551:18566   */\n      add\n        /* \"#utility.yul\":18544:18577   */\n      mstore\n        /* \"#utility.yul\":18359:18584   */\n      pop\n      jump\t// out\n        /* \"#utility.yul\":18590:18956   */\n    tag_264:\n        /* \"#utility.yul\":18732:18735   */\n      0x00\n        /* \"#utility.yul\":18753:18820   */\n      tag_420\n        /* \"#utility.yul\":18817:18819   */\n      0x26\n        /* \"#utility.yul\":18812:18815   */\n      dup4\n        /* \"#utility.yul\":18753:18820   */\n      tag_219\n      jump\t// in\n    tag_420:\n        /* \"#utility.yul\":18746:18820   */\n      swap2\n      pop\n        /* \"#utility.yul\":18829:18922   */\n      tag_421\n        /* \"#utility.yul\":18918:18921   */\n      dup3\n        /* \"#utility.yul\":18829:18922   */\n      tag_263\n      jump\t// in\n    tag_421:\n        /* \"#utility.yul\":18947:18949   */\n      0x40\n        /* \"#utility.yul\":18942:18945   */\n      dup3\n        /* \"#utility.yul\":18938:18950   */\n      add\n        /* \"#utility.yul\":18931:18950   */\n      swap1\n      pop\n        /* \"#utility.yul\":18590:18956   */\n      swap2\n      swap1\n      pop\n      jump\t// out\n        /* \"#utility.yul\":18962:19381   */\n    tag_205:\n        /* \"#utility.yul\":19128:19132   */\n      0x00\n        /* \"#utility.yul\":19166:19168   */\n      0x20\n        /* \"#utility.yul\":19155:19164   */\n      dup3\n        /* \"#utility.yul\":19151:19169   */\n      add\n        /* \"#utility.yul\":19143:19169   */\n      swap1\n      pop\n        /* \"#utility.yul\":19215:19224   */\n      dup2\n        /* \"#utility.yul\":19209:19213   */\n      dup2\n        /* \"#utility.yul\":19205:19225   */\n      sub\n        /* \"#utility.yul\":19201:19202   */\n      0x00\n        /* \"#utility.yul\":19190:19199   */\n      dup4\n        /* \"#utility.yul\":19186:19203   */\n      add\n        /* \"#utility.yul\":19179:19226   */\n      mstore\n        /* \"#utility.yul\":19243:19374   */\n      tag_423\n        /* \"#utility.yul\":19369:19373   */\n      dup2\n        /* \"#utility.yul\":19243:19374   */\n      tag_264\n      jump\t// in\n    tag_423:\n        /* \"#utility.yul\":19235:19374   */\n      swap1\n      pop\n        /* \"#utility.yul\":18962:19381   */\n      swap2\n      swap1\n      pop\n      jump\t// out\n        /* \"#utility.yul\":19387:19569   */\n    tag_265:\n        /* \"#utility.yul\":19527:19561   */\n      0x4f776e61626c653a2063616c6c6572206973206e6f7420746865206f776e6572\n        /* \"#utility.yul\":19523:19524   */\n      0x00\n        /* \"#utility.yul\":19515:19521   */\n      dup3\n        /* \"#utility.yul\":19511:19525   */\n      add\n        /* \"#utility.yul\":19504:19562   */\n      mstore\n        /* \"#utility.yul\":19387:19569   */\n      pop\n      jump\t// out\n        /* \"#utility.yul\":19575:19941   */\n    tag_266:\n        /* \"#utility.yul\":19717:19720   */\n      0x00\n        /* \"#utility.yul\":19738:19805   */\n      tag_426\n        /* \"#utility.yul\":19802:19804   */\n      0x20\n        /* \"#utility.yul\":19797:19800   */\n      dup4\n        /* \"#utility.yul\":19738:19805   */\n      tag_219\n      jump\t// in\n    tag_426:\n        /* \"#utility.yul\":19731:19805   */\n      swap2\n      pop\n        /* \"#utility.yul\":19814:19907   */\n      tag_427\n        /* \"#utility.yul\":19903:19906   */\n      dup3\n        /* \"#utility.yul\":19814:19907   */\n      tag_265\n      jump\t// in\n    tag_427:\n        /* \"#utility.yul\":19932:19934   */\n      0x20\n        /* \"#utility.yul\":19927:19930   */\n      dup3\n        /* \"#utility.yul\":19923:19935   */\n      add\n        /* \"#utility.yul\":19916:19935   */\n      swap1\n      pop\n        /* \"#utility.yul\":19575:19941   */\n      swap2\n      swap1\n      pop\n      jump\t// out\n        /* \"#utility.yul\":19947:20366   */\n    tag_214:\n        /* \"#utility.yul\":20113:20117   */\n      0x00\n        /* \"#utility.yul\":20151:20153   */\n      0x20\n        /* \"#utility.yul\":20140:20149   */\n      dup3\n        /* \"#utility.yul\":20136:20154   */\n      add\n        /* \"#utility.yul\":20128:20154   */\n      swap1\n      pop\n        /* \"#utility.yul\":20200:20209   */\n      dup2\n        /* \"#utility.yul\":20194:20198   */\n      dup2\n        /* \"#utility.yul\":20190:20210   */\n      sub\n        /* \"#utility.yul\":20186:20187   */\n      0x00\n        /* \"#utility.yul\":20175:20184   */\n      dup4\n        /* \"#utility.yul\":20171:20188   */\n      add\n        /* \"#utility.yul\":20164:20211   */\n      mstore\n        /* \"#utility.yul\":20228:20359   */\n      tag_429\n        /* \"#utility.yul\":20354:20358   */\n      dup2\n        /* \"#utility.yul\":20228:20359   */\n      tag_266\n      jump\t// in\n    tag_429:\n        /* \"#utility.yul\":20220:20359   */\n      swap1\n      pop\n        /* \"#utility.yul\":19947:20366   */\n      swap2\n      swap1\n      pop\n      jump\t// out\n\n    auxdata: 0xa2646970667358221220a7f5a01c69badef8b7e69b4e72634d78966d86668107cf2bacbee30d5646926f64736f6c63430008120033\n}\n",
				"bytecode": {
					"linkReferences": {},
					"object": "60806040523480156200001157600080fd5b50604051620025973803806200259783398181016040528101906200003791906200054f565b6040518060400160405280600781526020017f4d79546f6b656e000000000000000000000000000000000000000000000000008152506040518060400160405280600281526020017f4d540000000000000000000000000000000000000000000000000000000000008152508160039081620000b4919062000806565b508060049081620000c6919062000806565b505050620000e9620000dd6200011460201b60201c565b6200011c60201b60201c565b620000fb3382620001e260201b60201c565b6200010c826200034f60201b60201c565b505062000b12565b600033905090565b6000600560009054906101000a900473ffffffffffffffffffffffffffffffffffffffff16905081600560006101000a81548173ffffffffffffffffffffffffffffffffffffffff021916908373ffffffffffffffffffffffffffffffffffffffff1602179055508173ffffffffffffffffffffffffffffffffffffffff168173ffffffffffffffffffffffffffffffffffffffff167f8be0079c531659141344cd1fd0a4f28419497f9722a3daafe3b4186f6b6457e060405160405180910390a35050565b600073ffffffffffffffffffffffffffffffffffffffff168273ffffffffffffffffffffffffffffffffffffffff160362000254576040517f08c379a00000000000000000000000000000000000000000000000000000000081526004016200024b906200094e565b60405180910390fd5b6200026860008383620003e560201b60201c565b80600260008282546200027c91906200099f565b92505081905550806000808473ffffffffffffffffffffffffffffffffffffffff1673ffffffffffffffffffffffffffffffffffffffff168152602001908152602001600020600082825401925050819055508173ffffffffffffffffffffffffffffffffffffffff16600073ffffffffffffffffffffffffffffffffffffffff167fddf252ad1be2c89b69c2b068fc378daa952ba7f163c4a11628f55a4df523b3ef836040516200032f9190620009eb565b60405180910390a36200034b60008383620003ea60201b60201c565b5050565b6200035f620003ef60201b60201c565b600073ffffffffffffffffffffffffffffffffffffffff168173ffffffffffffffffffffffffffffffffffffffff1603620003d1576040517f08c379a0000000000000000000000000000000000000000000000000000000008152600401620003c89062000a7e565b60405180910390fd5b620003e2816200011c60201b60201c565b50565b505050565b505050565b620003ff6200011460201b60201c565b73ffffffffffffffffffffffffffffffffffffffff16620004256200048060201b60201c565b73ffffffffffffffffffffffffffffffffffffffff16146200047e576040517f08c379a0000000000000000000000000000000000000000000000000000000008152600401620004759062000af0565b60405180910390fd5b565b6000600560009054906101000a900473ffffffffffffffffffffffffffffffffffffffff16905090565b600080fd5b600073ffffffffffffffffffffffffffffffffffffffff82169050919050565b6000620004dc82620004af565b9050919050565b620004ee81620004cf565b8114620004fa57600080fd5b50565b6000815190506200050e81620004e3565b92915050565b6000819050919050565b620005298162000514565b81146200053557600080fd5b50565b60008151905062000549816200051e565b92915050565b60008060408385031215620005695762000568620004aa565b5b60006200057985828601620004fd565b92505060206200058c8582860162000538565b9150509250929050565b600081519050919050565b7f4e487b7100000000000000000000000000000000000000000000000000000000600052604160045260246000fd5b7f4e487b7100000000000000000000000000000000000000000000000000000000600052602260045260246000fd5b600060028204905060018216806200061857607f821691505b6020821081036200062e576200062d620005d0565b5b50919050565b60008190508160005260206000209050919050565b60006020601f8301049050919050565b600082821b905092915050565b600060088302620006987fffffffffffffffffffffffffffffffffffffffffffffffffffffffffffffffff8262000659565b620006a4868362000659565b95508019841693508086168417925050509392505050565b6000819050919050565b6000620006e7620006e1620006db8462000514565b620006bc565b62000514565b9050919050565b6000819050919050565b6200070383620006c6565b6200071b6200071282620006ee565b84845462000666565b825550505050565b600090565b6200073262000723565b6200073f818484620006f8565b505050565b5b8181101562000767576200075b60008262000728565b60018101905062000745565b5050565b601f821115620007b657620007808162000634565b6200078b8462000649565b810160208510156200079b578190505b620007b3620007aa8562000649565b83018262000744565b50505b505050565b600082821c905092915050565b6000620007db60001984600802620007bb565b1980831691505092915050565b6000620007f68383620007c8565b9150826002028217905092915050565b620008118262000596565b67ffffffffffffffff8111156200082d576200082c620005a1565b5b620008398254620005ff565b620008468282856200076b565b600060209050601f8311600181146200087e576000841562000869578287015190505b620008758582620007e8565b865550620008e5565b601f1984166200088e8662000634565b60005b82811015620008b85784890151825560018201915060208501945060208101905062000891565b86831015620008d85784890151620008d4601f891682620007c8565b8355505b6001600288020188555050505b505050505050565b600082825260208201905092915050565b7f45524332303a206d696e7420746f20746865207a65726f206164647265737300600082015250565b600062000936601f83620008ed565b91506200094382620008fe565b602082019050919050565b60006020820190508181036000830152620009698162000927565b9050919050565b7f4e487b7100000000000000000000000000000000000000000000000000000000600052601160045260246000fd5b6000620009ac8262000514565b9150620009b98362000514565b9250828201905080821115620009d457620009d362000970565b5b92915050565b620009e58162000514565b82525050565b600060208201905062000a026000830184620009da565b92915050565b7f4f776e61626c653a206e6577206f776e657220697320746865207a65726f206160008201527f6464726573730000000000000000000000000000000000000000000000000000602082015250565b600062000a66602683620008ed565b915062000a738262000a08565b604082019050919050565b6000602082019050818103600083015262000a998162000a57565b9050919050565b7f4f776e61626c653a2063616c6c6572206973206e6f7420746865206f776e6572600082015250565b600062000ad8602083620008ed565b915062000ae58262000aa0565b602082019050919050565b6000602082019050818103600083015262000b0b8162000ac9565b9050919050565b611a758062000b226000396000f3fe6080604052600436106100f35760003560e01c806370a082311161008a578063a457c2d711610059578063a457c2d71461031f578063a9059cbb1461035c578063dd62ed3e14610399578063f2fde38b146103d6576100f3565b806370a0823114610275578063715018a6146102b25780638da5cb5b146102c957806395d89b41146102f4576100f3565b8063313ce567116100c6578063313ce567146101c85780633610724e146101f3578063395093511461020f5780636c11bcd31461024c576100f3565b806306fdde03146100f8578063095ea7b31461012357806318160ddd1461016057806323b872dd1461018b575b600080fd5b34801561010457600080fd5b5061010d6103ff565b60405161011a9190611027565b60405180910390f35b34801561012f57600080fd5b5061014a600480360381019061014591906110e2565b610491565b604051610157919061113d565b60405180910390f35b34801561016c57600080fd5b506101756104b4565b6040516101829190611167565b60405180910390f35b34801561019757600080fd5b506101b260048036038101906101ad9190611182565b6104be565b6040516101bf919061113d565b60405180910390f35b3480156101d457600080fd5b506101dd6104ed565b6040516101ea91906111f1565b60405180910390f35b61020d6004803603810190610208919061120c565b6104f6565b005b34801561021b57600080fd5b50610236600480360381019061023191906110e2565b610598565b604051610243919061113d565b60405180910390f35b34801561025857600080fd5b50610273600480360381019061026e919061120c565b6105cf565b005b34801561028157600080fd5b5061029c60048036038101906102979190611239565b6106ba565b6040516102a99190611167565b60405180910390f35b3480156102be57600080fd5b506102c7610702565b005b3480156102d557600080fd5b506102de610716565b6040516102eb9190611275565b60405180910390f35b34801561030057600080fd5b50610309610740565b6040516103169190611027565b60405180910390f35b34801561032b57600080fd5b50610346600480360381019061034191906110e2565b6107d2565b604051610353919061113d565b60405180910390f35b34801561036857600080fd5b50610383600480360381019061037e91906110e2565b610849565b604051610390919061113d565b60405180910390f35b3480156103a557600080fd5b506103c060048036038101906103bb9190611290565b61086c565b6040516103cd9190611167565b60405180910390f35b3480156103e257600080fd5b506103fd60048036038101906103f89190611239565b6108f3565b005b60606003805461040e906112ff565b80601f016020809104026020016040519081016040528092919081815260200182805461043a906112ff565b80156104875780601f1061045c57610100808354040283529160200191610487565b820191906000526020600020905b81548152906001019060200180831161046a57829003601f168201915b5050505050905090565b60008061049c610976565b90506104a981858561097e565b600191505092915050565b6000600254905090565b6000806104c9610976565b90506104d6858285610b47565b6104e1858585610bd3565b60019150509392505050565b60006012905090565b6000610501306106ba565b905060008211610546576040517f08c379a000000000000000000000000000000000000000000000000000000000815260040161053d9061137c565b60405180910390fd5b80821115610589576040517f08c379a0000000000000000000000000000000000000000000000000000000008152600401610580906113e8565b60405180910390fd5b6105933383610849565b505050565b6000806105a3610976565b90506105c48185856105b5858961086c565b6105bf9190611437565b61097e565b600191505092915050565b60008111610612576040517f08c379a0000000000000000000000000000000000000000000000000000000008152600401610609906114dd565b60405180910390fd5b600061061e333061086c565b905081811015610663576040517f08c379a000000000000000000000000000000000000000000000000000000000815260040161065a90611549565b60405180910390fd5b61066e3330846104be565b503373ffffffffffffffffffffffffffffffffffffffff166108fc839081150290604051600060405180830381858888f193505050501580156106b5573d6000803e3d6000fd5b505050565b60008060008373ffffffffffffffffffffffffffffffffffffffff1673ffffffffffffffffffffffffffffffffffffffff168152602001908152602001600020549050919050565b61070a610e49565b6107146000610ec7565b565b6000600560009054906101000a900473ffffffffffffffffffffffffffffffffffffffff16905090565b60606004805461074f906112ff565b80601f016020809104026020016040519081016040528092919081815260200182805461077b906112ff565b80156107c85780601f1061079d576101008083540402835291602001916107c8565b820191906000526020600020905b8154815290600101906020018083116107ab57829003601f168201915b5050505050905090565b6000806107dd610976565b905060006107eb828661086c565b905083811015610830576040517f08c379a0000000000000000000000000000000000000000000000000000000008152600401610827906115db565b60405180910390fd5b61083d828686840361097e565b60019250505092915050565b600080610854610976565b9050610861818585610bd3565b600191505092915050565b6000600160008473ffffffffffffffffffffffffffffffffffffffff1673ffffffffffffffffffffffffffffffffffffffff16815260200190815260200160002060008373ffffffffffffffffffffffffffffffffffffffff1673ffffffffffffffffffffffffffffffffffffffff16815260200190815260200160002054905092915050565b6108fb610e49565b600073ffffffffffffffffffffffffffffffffffffffff168173ffffffffffffffffffffffffffffffffffffffff160361096a576040517f08c379a00000000000000000000000000000000000000000000000000000000081526004016109619061166d565b60405180910390fd5b61097381610ec7565b50565b600033905090565b600073ffffffffffffffffffffffffffffffffffffffff168373ffffffffffffffffffffffffffffffffffffffff16036109ed576040517f08c379a00000000000000000000000000000000000000000000000000000000081526004016109e4906116ff565b60405180910390fd5b600073ffffffffffffffffffffffffffffffffffffffff168273ffffffffffffffffffffffffffffffffffffffff1603610a5c576040517f08c379a0000000000000000000000000000000000000000000000000000000008152600401610a5390611791565b60405180910390fd5b80600160008573ffffffffffffffffffffffffffffffffffffffff1673ffffffffffffffffffffffffffffffffffffffff16815260200190815260200160002060008473ffffffffffffffffffffffffffffffffffffffff1673ffffffffffffffffffffffffffffffffffffffff168152602001908152602001600020819055508173ffffffffffffffffffffffffffffffffffffffff168373ffffffffffffffffffffffffffffffffffffffff167f8c5be1e5ebec7d5bd14f71427d1e84f3dd0314c0f7b2291e5b200ac8c7c3b92583604051610b3a9190611167565b60405180910390a3505050565b6000610b53848461086c565b90507fffffffffffffffffffffffffffffffffffffffffffffffffffffffffffffffff8114610bcd5781811015610bbf576040517f08c379a0000000000000000000000000000000000000000000000000000000008152600401610bb6906117fd565b60405180910390fd5b610bcc848484840361097e565b5b50505050565b600073ffffffffffffffffffffffffffffffffffffffff168373ffffffffffffffffffffffffffffffffffffffff1603610c42576040517f08c379a0000000000000000000000000000000000000000000000000000000008152600401610c399061188f565b60405180910390fd5b600073ffffffffffffffffffffffffffffffffffffffff168273ffffffffffffffffffffffffffffffffffffffff1603610cb1576040517f08c379a0000000000000000000000000000000000000000000000000000000008152600401610ca890611921565b60405180910390fd5b610cbc838383610f8d565b60008060008573ffffffffffffffffffffffffffffffffffffffff1673ffffffffffffffffffffffffffffffffffffffff16815260200190815260200160002054905081811015610d42576040517f08c379a0000000000000000000000000000000000000000000000000000000008152600401610d39906119b3565b60405180910390fd5b8181036000808673ffffffffffffffffffffffffffffffffffffffff1673ffffffffffffffffffffffffffffffffffffffff16815260200190815260200160002081905550816000808573ffffffffffffffffffffffffffffffffffffffff1673ffffffffffffffffffffffffffffffffffffffff168152602001908152602001600020600082825401925050819055508273ffffffffffffffffffffffffffffffffffffffff168473ffffffffffffffffffffffffffffffffffffffff167fddf252ad1be2c89b69c2b068fc378daa952ba7f163c4a11628f55a4df523b3ef84604051610e309190611167565b60405180910390a3610e43848484610f92565b50505050565b610e51610976565b73ffffffffffffffffffffffffffffffffffffffff16610e6f610716565b73ffffffffffffffffffffffffffffffffffffffff1614610ec5576040517f08c379a0000000000000000000000000000000000000000000000000000000008152600401610ebc90611a1f565b60405180910390fd5b565b6000600560009054906101000a900473ffffffffffffffffffffffffffffffffffffffff16905081600560006101000a81548173ffffffffffffffffffffffffffffffffffffffff021916908373ffffffffffffffffffffffffffffffffffffffff1602179055508173ffffffffffffffffffffffffffffffffffffffff168173ffffffffffffffffffffffffffffffffffffffff167f8be0079c531659141344cd1fd0a4f28419497f9722a3daafe3b4186f6b6457e060405160405180910390a35050565b505050565b505050565b600081519050919050565b600082825260208201905092915050565b60005b83811015610fd1578082015181840152602081019050610fb6565b60008484015250505050565b6000601f19601f8301169050919050565b6000610ff982610f97565b6110038185610fa2565b9350611013818560208601610fb3565b61101c81610fdd565b840191505092915050565b600060208201905081810360008301526110418184610fee565b905092915050565b600080fd5b600073ffffffffffffffffffffffffffffffffffffffff82169050919050565b60006110798261104e565b9050919050565b6110898161106e565b811461109457600080fd5b50565b6000813590506110a681611080565b92915050565b6000819050919050565b6110bf816110ac565b81146110ca57600080fd5b50565b6000813590506110dc816110b6565b92915050565b600080604083850312156110f9576110f8611049565b5b600061110785828601611097565b9250506020611118858286016110cd565b9150509250929050565b60008115159050919050565b61113781611122565b82525050565b6000602082019050611152600083018461112e565b92915050565b611161816110ac565b82525050565b600060208201905061117c6000830184611158565b92915050565b60008060006060848603121561119b5761119a611049565b5b60006111a986828701611097565b93505060206111ba86828701611097565b92505060406111cb868287016110cd565b9150509250925092565b600060ff82169050919050565b6111eb816111d5565b82525050565b600060208201905061120660008301846111e2565b92915050565b60006020828403121561122257611221611049565b5b6000611230848285016110cd565b91505092915050565b60006020828403121561124f5761124e611049565b5b600061125d84828501611097565b91505092915050565b61126f8161106e565b82525050565b600060208201905061128a6000830184611266565b92915050565b600080604083850312156112a7576112a6611049565b5b60006112b585828601611097565b92505060206112c685828601611097565b9150509250929050565b7f4e487b7100000000000000000000000000000000000000000000000000000000600052602260045260246000fd5b6000600282049050600182168061131757607f821691505b60208210810361132a576113296112d0565b5b50919050565b7f596f75206e65656420746f2073656e6420736f6d652065746865720000000000600082015250565b6000611366601b83610fa2565b915061137182611330565b602082019050919050565b6000602082019050818103600083015261139581611359565b9050919050565b7f4e6f7420656e6f75676820746f6b656e7320696e207468652072657365727665600082015250565b60006113d2602083610fa2565b91506113dd8261139c565b602082019050919050565b60006020820190508181036000830152611401816113c5565b9050919050565b7f4e487b7100000000000000000000000000000000000000000000000000000000600052601160045260246000fd5b6000611442826110ac565b915061144d836110ac565b925082820190508082111561146557611464611408565b5b92915050565b7f596f75206e65656420746f2073656c6c206174206c6561737420736f6d65207460008201527f6f6b656e73000000000000000000000000000000000000000000000000000000602082015250565b60006114c7602583610fa2565b91506114d28261146b565b604082019050919050565b600060208201905081810360008301526114f6816114ba565b9050919050565b7f436865636b2074686520746f6b656e20616c6c6f77616e636500000000000000600082015250565b6000611533601983610fa2565b915061153e826114fd565b602082019050919050565b6000602082019050818103600083015261156281611526565b9050919050565b7f45524332303a2064656372656173656420616c6c6f77616e63652062656c6f7760008201527f207a65726f000000000000000000000000000000000000000000000000000000602082015250565b60006115c5602583610fa2565b91506115d082611569565b604082019050919050565b600060208201905081810360008301526115f4816115b8565b9050919050565b7f4f776e61626c653a206e6577206f776e657220697320746865207a65726f206160008201527f6464726573730000000000000000000000000000000000000000000000000000602082015250565b6000611657602683610fa2565b9150611662826115fb565b604082019050919050565b600060208201905081810360008301526116868161164a565b9050919050565b7f45524332303a20617070726f76652066726f6d20746865207a65726f2061646460008201527f7265737300000000000000000000000000000000000000000000000000000000602082015250565b60006116e9602483610fa2565b91506116f48261168d565b604082019050919050565b60006020820190508181036000830152611718816116dc565b9050919050565b7f45524332303a20617070726f766520746f20746865207a65726f20616464726560008201527f7373000000000000000000000000000000000000000000000000000000000000602082015250565b600061177b602283610fa2565b91506117868261171f565b604082019050919050565b600060208201905081810360008301526117aa8161176e565b9050919050565b7f45524332303a20696e73756666696369656e7420616c6c6f77616e6365000000600082015250565b60006117e7601d83610fa2565b91506117f2826117b1565b602082019050919050565b60006020820190508181036000830152611816816117da565b9050919050565b7f45524332303a207472616e736665722066726f6d20746865207a65726f20616460008201527f6472657373000000000000000000000000000000000000000000000000000000602082015250565b6000611879602583610fa2565b91506118848261181d565b604082019050919050565b600060208201905081810360008301526118a88161186c565b9050919050565b7f45524332303a207472616e7366657220746f20746865207a65726f206164647260008201527f6573730000000000000000000000000000000000000000000000000000000000602082015250565b600061190b602383610fa2565b9150611916826118af565b604082019050919050565b6000602082019050818103600083015261193a816118fe565b9050919050565b7f45524332303a207472616e7366657220616d6f756e742065786365656473206260008201527f616c616e63650000000000000000000000000000000000000000000000000000602082015250565b600061199d602683610fa2565b91506119a882611941565b604082019050919050565b600060208201905081810360008301526119cc81611990565b9050919050565b7f4f776e61626c653a2063616c6c6572206973206e6f7420746865206f776e6572600082015250565b6000611a09602083610fa2565b9150611a14826119d3565b602082019050919050565b60006020820190508181036000830152611a38816119fc565b905091905056fea2646970667358221220a7f5a01c69badef8b7e69b4e72634d78966d86668107cf2bacbee30d5646926f64736f6c63430008120033",
					"opcodes": "PUSH1 0x80 PUSH1 0x40 MSTORE CALLVALUE DUP1 ISZERO PUSH3 0x11 JUMPI PUSH1 0x0 DUP1 REVERT JUMPDEST POP PUSH1 0x40 MLOAD PUSH3 0x2597 CODESIZE SUB DUP1 PUSH3 0x2597 DUP4 CODECOPY DUP2 DUP2 ADD PUSH1 0x40 MSTORE DUP2 ADD SWAP1 PUSH3 0x37 SWAP2 SWAP1 PUSH3 0x54F JUMP JUMPDEST PUSH1 0x40 MLOAD DUP1 PUSH1 0x40 ADD PUSH1 0x40 MSTORE DUP1 PUSH1 0x7 DUP2 MSTORE PUSH1 0x20 ADD PUSH32 0x4D79546F6B656E00000000000000000000000000000000000000000000000000 DUP2 MSTORE POP PUSH1 0x40 MLOAD DUP1 PUSH1 0x40 ADD PUSH1 0x40 MSTORE DUP1 PUSH1 0x2 DUP2 MSTORE PUSH1 0x20 ADD PUSH32 0x4D54000000000000000000000000000000000000000000000000000000000000 DUP2 MSTORE POP DUP2 PUSH1 0x3 SWAP1 DUP2 PUSH3 0xB4 SWAP2 SWAP1 PUSH3 0x806 JUMP JUMPDEST POP DUP1 PUSH1 0x4 SWAP1 DUP2 PUSH3 0xC6 SWAP2 SWAP1 PUSH3 0x806 JUMP JUMPDEST POP POP POP PUSH3 0xE9 PUSH3 0xDD PUSH3 0x114 PUSH1 0x20 SHL PUSH1 0x20 SHR JUMP JUMPDEST PUSH3 0x11C PUSH1 0x20 SHL PUSH1 0x20 SHR JUMP JUMPDEST PUSH3 0xFB CALLER DUP3 PUSH3 0x1E2 PUSH1 0x20 SHL PUSH1 0x20 SHR JUMP JUMPDEST PUSH3 0x10C DUP3 PUSH3 0x34F PUSH1 0x20 SHL PUSH1 0x20 SHR JUMP JUMPDEST POP POP PUSH3 0xB12 JUMP JUMPDEST PUSH1 0x0 CALLER SWAP1 POP SWAP1 JUMP JUMPDEST PUSH1 0x0 PUSH1 0x5 PUSH1 0x0 SWAP1 SLOAD SWAP1 PUSH2 0x100 EXP SWAP1 DIV PUSH20 0xFFFFFFFFFFFFFFFFFFFFFFFFFFFFFFFFFFFFFFFF AND SWAP1 POP DUP2 PUSH1 0x5 PUSH1 0x0 PUSH2 0x100 EXP DUP2 SLOAD DUP2 PUSH20 0xFFFFFFFFFFFFFFFFFFFFFFFFFFFFFFFFFFFFFFFF MUL NOT AND SWAP1 DUP4 PUSH20 0xFFFFFFFFFFFFFFFFFFFFFFFFFFFFFFFFFFFFFFFF AND MUL OR SWAP1 SSTORE POP DUP2 PUSH20 0xFFFFFFFFFFFFFFFFFFFFFFFFFFFFFFFFFFFFFFFF AND DUP2 PUSH20 0xFFFFFFFFFFFFFFFFFFFFFFFFFFFFFFFFFFFFFFFF AND PUSH32 0x8BE0079C531659141344CD1FD0A4F28419497F9722A3DAAFE3B4186F6B6457E0 PUSH1 0x40 MLOAD PUSH1 0x40 MLOAD DUP1 SWAP2 SUB SWAP1 LOG3 POP POP JUMP JUMPDEST PUSH1 0x0 PUSH20 0xFFFFFFFFFFFFFFFFFFFFFFFFFFFFFFFFFFFFFFFF AND DUP3 PUSH20 0xFFFFFFFFFFFFFFFFFFFFFFFFFFFFFFFFFFFFFFFF AND SUB PUSH3 0x254 JUMPI PUSH1 0x40 MLOAD PUSH32 0x8C379A000000000000000000000000000000000000000000000000000000000 DUP2 MSTORE PUSH1 0x4 ADD PUSH3 0x24B SWAP1 PUSH3 0x94E JUMP JUMPDEST PUSH1 0x40 MLOAD DUP1 SWAP2 SUB SWAP1 REVERT JUMPDEST PUSH3 0x268 PUSH1 0x0 DUP4 DUP4 PUSH3 0x3E5 PUSH1 0x20 SHL PUSH1 0x20 SHR JUMP JUMPDEST DUP1 PUSH1 0x2 PUSH1 0x0 DUP3 DUP3 SLOAD PUSH3 0x27C SWAP2 SWAP1 PUSH3 0x99F JUMP JUMPDEST SWAP3 POP POP DUP2 SWAP1 SSTORE POP DUP1 PUSH1 0x0 DUP1 DUP5 PUSH20 0xFFFFFFFFFFFFFFFFFFFFFFFFFFFFFFFFFFFFFFFF AND PUSH20 0xFFFFFFFFFFFFFFFFFFFFFFFFFFFFFFFFFFFFFFFF AND DUP2 MSTORE PUSH1 0x20 ADD SWAP1 DUP2 MSTORE PUSH1 0x20 ADD PUSH1 0x0 KECCAK256 PUSH1 0x0 DUP3 DUP3 SLOAD ADD SWAP3 POP POP DUP2 SWAP1 SSTORE POP DUP2 PUSH20 0xFFFFFFFFFFFFFFFFFFFFFFFFFFFFFFFFFFFFFFFF AND PUSH1 0x0 PUSH20 0xFFFFFFFFFFFFFFFFFFFFFFFFFFFFFFFFFFFFFFFF AND PUSH32 0xDDF252AD1BE2C89B69C2B068FC378DAA952BA7F163C4A11628F55A4DF523B3EF DUP4 PUSH1 0x40 MLOAD PUSH3 0x32F SWAP2 SWAP1 PUSH3 0x9EB JUMP JUMPDEST PUSH1 0x40 MLOAD DUP1 SWAP2 SUB SWAP1 LOG3 PUSH3 0x34B PUSH1 0x0 DUP4 DUP4 PUSH3 0x3EA PUSH1 0x20 SHL PUSH1 0x20 SHR JUMP JUMPDEST POP POP JUMP JUMPDEST PUSH3 0x35F PUSH3 0x3EF PUSH1 0x20 SHL PUSH1 0x20 SHR JUMP JUMPDEST PUSH1 0x0 PUSH20 0xFFFFFFFFFFFFFFFFFFFFFFFFFFFFFFFFFFFFFFFF AND DUP2 PUSH20 0xFFFFFFFFFFFFFFFFFFFFFFFFFFFFFFFFFFFFFFFF AND SUB PUSH3 0x3D1 JUMPI PUSH1 0x40 MLOAD PUSH32 0x8C379A000000000000000000000000000000000000000000000000000000000 DUP2 MSTORE PUSH1 0x4 ADD PUSH3 0x3C8 SWAP1 PUSH3 0xA7E JUMP JUMPDEST PUSH1 0x40 MLOAD DUP1 SWAP2 SUB SWAP1 REVERT JUMPDEST PUSH3 0x3E2 DUP2 PUSH3 0x11C PUSH1 0x20 SHL PUSH1 0x20 SHR JUMP JUMPDEST POP JUMP JUMPDEST POP POP POP JUMP JUMPDEST POP POP POP JUMP JUMPDEST PUSH3 0x3FF PUSH3 0x114 PUSH1 0x20 SHL PUSH1 0x20 SHR JUMP JUMPDEST PUSH20 0xFFFFFFFFFFFFFFFFFFFFFFFFFFFFFFFFFFFFFFFF AND PUSH3 0x425 PUSH3 0x480 PUSH1 0x20 SHL PUSH1 0x20 SHR JUMP JUMPDEST PUSH20 0xFFFFFFFFFFFFFFFFFFFFFFFFFFFFFFFFFFFFFFFF AND EQ PUSH3 0x47E JUMPI PUSH1 0x40 MLOAD PUSH32 0x8C379A000000000000000000000000000000000000000000000000000000000 DUP2 MSTORE PUSH1 0x4 ADD PUSH3 0x475 SWAP1 PUSH3 0xAF0 JUMP JUMPDEST PUSH1 0x40 MLOAD DUP1 SWAP2 SUB SWAP1 REVERT JUMPDEST JUMP JUMPDEST PUSH1 0x0 PUSH1 0x5 PUSH1 0x0 SWAP1 SLOAD SWAP1 PUSH2 0x100 EXP SWAP1 DIV PUSH20 0xFFFFFFFFFFFFFFFFFFFFFFFFFFFFFFFFFFFFFFFF AND SWAP1 POP SWAP1 JUMP JUMPDEST PUSH1 0x0 DUP1 REVERT JUMPDEST PUSH1 0x0 PUSH20 0xFFFFFFFFFFFFFFFFFFFFFFFFFFFFFFFFFFFFFFFF DUP3 AND SWAP1 POP SWAP2 SWAP1 POP JUMP JUMPDEST PUSH1 0x0 PUSH3 0x4DC DUP3 PUSH3 0x4AF JUMP JUMPDEST SWAP1 POP SWAP2 SWAP1 POP JUMP JUMPDEST PUSH3 0x4EE DUP2 PUSH3 0x4CF JUMP JUMPDEST DUP2 EQ PUSH3 0x4FA JUMPI PUSH1 0x0 DUP1 REVERT JUMPDEST POP JUMP JUMPDEST PUSH1 0x0 DUP2 MLOAD SWAP1 POP PUSH3 0x50E DUP2 PUSH3 0x4E3 JUMP JUMPDEST SWAP3 SWAP2 POP POP JUMP JUMPDEST PUSH1 0x0 DUP2 SWAP1 POP SWAP2 SWAP1 POP JUMP JUMPDEST PUSH3 0x529 DUP2 PUSH3 0x514 JUMP JUMPDEST DUP2 EQ PUSH3 0x535 JUMPI PUSH1 0x0 DUP1 REVERT JUMPDEST POP JUMP JUMPDEST PUSH1 0x0 DUP2 MLOAD SWAP1 POP PUSH3 0x549 DUP2 PUSH3 0x51E JUMP JUMPDEST SWAP3 SWAP2 POP POP JUMP JUMPDEST PUSH1 0x0 DUP1 PUSH1 0x40 DUP4 DUP6 SUB SLT ISZERO PUSH3 0x569 JUMPI PUSH3 0x568 PUSH3 0x4AA JUMP JUMPDEST JUMPDEST PUSH1 0x0 PUSH3 0x579 DUP6 DUP3 DUP7 ADD PUSH3 0x4FD JUMP JUMPDEST SWAP3 POP POP PUSH1 0x20 PUSH3 0x58C DUP6 DUP3 DUP7 ADD PUSH3 0x538 JUMP JUMPDEST SWAP2 POP POP SWAP3 POP SWAP3 SWAP1 POP JUMP JUMPDEST PUSH1 0x0 DUP2 MLOAD SWAP1 POP SWAP2 SWAP1 POP JUMP JUMPDEST PUSH32 0x4E487B7100000000000000000000000000000000000000000000000000000000 PUSH1 0x0 MSTORE PUSH1 0x41 PUSH1 0x4 MSTORE PUSH1 0x24 PUSH1 0x0 REVERT JUMPDEST PUSH32 0x4E487B7100000000000000000000000000000000000000000000000000000000 PUSH1 0x0 MSTORE PUSH1 0x22 PUSH1 0x4 MSTORE PUSH1 0x24 PUSH1 0x0 REVERT JUMPDEST PUSH1 0x0 PUSH1 0x2 DUP3 DIV SWAP1 POP PUSH1 0x1 DUP3 AND DUP1 PUSH3 0x618 JUMPI PUSH1 0x7F DUP3 AND SWAP2 POP JUMPDEST PUSH1 0x20 DUP3 LT DUP2 SUB PUSH3 0x62E JUMPI PUSH3 0x62D PUSH3 0x5D0 JUMP JUMPDEST JUMPDEST POP SWAP2 SWAP1 POP JUMP JUMPDEST PUSH1 0x0 DUP2 SWAP1 POP DUP2 PUSH1 0x0 MSTORE PUSH1 0x20 PUSH1 0x0 KECCAK256 SWAP1 POP SWAP2 SWAP1 POP JUMP JUMPDEST PUSH1 0x0 PUSH1 0x20 PUSH1 0x1F DUP4 ADD DIV SWAP1 POP SWAP2 SWAP1 POP JUMP JUMPDEST PUSH1 0x0 DUP3 DUP3 SHL SWAP1 POP SWAP3 SWAP2 POP POP JUMP JUMPDEST PUSH1 0x0 PUSH1 0x8 DUP4 MUL PUSH3 0x698 PUSH32 0xFFFFFFFFFFFFFFFFFFFFFFFFFFFFFFFFFFFFFFFFFFFFFFFFFFFFFFFFFFFFFFFF DUP3 PUSH3 0x659 JUMP JUMPDEST PUSH3 0x6A4 DUP7 DUP4 PUSH3 0x659 JUMP JUMPDEST SWAP6 POP DUP1 NOT DUP5 AND SWAP4 POP DUP1 DUP7 AND DUP5 OR SWAP3 POP POP POP SWAP4 SWAP3 POP POP POP JUMP JUMPDEST PUSH1 0x0 DUP2 SWAP1 POP SWAP2 SWAP1 POP JUMP JUMPDEST PUSH1 0x0 PUSH3 0x6E7 PUSH3 0x6E1 PUSH3 0x6DB DUP5 PUSH3 0x514 JUMP JUMPDEST PUSH3 0x6BC JUMP JUMPDEST PUSH3 0x514 JUMP JUMPDEST SWAP1 POP SWAP2 SWAP1 POP JUMP JUMPDEST PUSH1 0x0 DUP2 SWAP1 POP SWAP2 SWAP1 POP JUMP JUMPDEST PUSH3 0x703 DUP4 PUSH3 0x6C6 JUMP JUMPDEST PUSH3 0x71B PUSH3 0x712 DUP3 PUSH3 0x6EE JUMP JUMPDEST DUP5 DUP5 SLOAD PUSH3 0x666 JUMP JUMPDEST DUP3 SSTORE POP POP POP POP JUMP JUMPDEST PUSH1 0x0 SWAP1 JUMP JUMPDEST PUSH3 0x732 PUSH3 0x723 JUMP JUMPDEST PUSH3 0x73F DUP2 DUP5 DUP5 PUSH3 0x6F8 JUMP JUMPDEST POP POP POP JUMP JUMPDEST JUMPDEST DUP2 DUP2 LT ISZERO PUSH3 0x767 JUMPI PUSH3 0x75B PUSH1 0x0 DUP3 PUSH3 0x728 JUMP JUMPDEST PUSH1 0x1 DUP2 ADD SWAP1 POP PUSH3 0x745 JUMP JUMPDEST POP POP JUMP JUMPDEST PUSH1 0x1F DUP3 GT ISZERO PUSH3 0x7B6 JUMPI PUSH3 0x780 DUP2 PUSH3 0x634 JUMP JUMPDEST PUSH3 0x78B DUP5 PUSH3 0x649 JUMP JUMPDEST DUP2 ADD PUSH1 0x20 DUP6 LT ISZERO PUSH3 0x79B JUMPI DUP2 SWAP1 POP JUMPDEST PUSH3 0x7B3 PUSH3 0x7AA DUP6 PUSH3 0x649 JUMP JUMPDEST DUP4 ADD DUP3 PUSH3 0x744 JUMP JUMPDEST POP POP JUMPDEST POP POP POP JUMP JUMPDEST PUSH1 0x0 DUP3 DUP3 SHR SWAP1 POP SWAP3 SWAP2 POP POP JUMP JUMPDEST PUSH1 0x0 PUSH3 0x7DB PUSH1 0x0 NOT DUP5 PUSH1 0x8 MUL PUSH3 0x7BB JUMP JUMPDEST NOT DUP1 DUP4 AND SWAP2 POP POP SWAP3 SWAP2 POP POP JUMP JUMPDEST PUSH1 0x0 PUSH3 0x7F6 DUP4 DUP4 PUSH3 0x7C8 JUMP JUMPDEST SWAP2 POP DUP3 PUSH1 0x2 MUL DUP3 OR SWAP1 POP SWAP3 SWAP2 POP POP JUMP JUMPDEST PUSH3 0x811 DUP3 PUSH3 0x596 JUMP JUMPDEST PUSH8 0xFFFFFFFFFFFFFFFF DUP2 GT ISZERO PUSH3 0x82D JUMPI PUSH3 0x82C PUSH3 0x5A1 JUMP JUMPDEST JUMPDEST PUSH3 0x839 DUP3 SLOAD PUSH3 0x5FF JUMP JUMPDEST PUSH3 0x846 DUP3 DUP3 DUP6 PUSH3 0x76B JUMP JUMPDEST PUSH1 0x0 PUSH1 0x20 SWAP1 POP PUSH1 0x1F DUP4 GT PUSH1 0x1 DUP2 EQ PUSH3 0x87E JUMPI PUSH1 0x0 DUP5 ISZERO PUSH3 0x869 JUMPI DUP3 DUP8 ADD MLOAD SWAP1 POP JUMPDEST PUSH3 0x875 DUP6 DUP3 PUSH3 0x7E8 JUMP JUMPDEST DUP7 SSTORE POP PUSH3 0x8E5 JUMP JUMPDEST PUSH1 0x1F NOT DUP5 AND PUSH3 0x88E DUP7 PUSH3 0x634 JUMP JUMPDEST PUSH1 0x0 JUMPDEST DUP3 DUP2 LT ISZERO PUSH3 0x8B8 JUMPI DUP5 DUP10 ADD MLOAD DUP3 SSTORE PUSH1 0x1 DUP3 ADD SWAP2 POP PUSH1 0x20 DUP6 ADD SWAP5 POP PUSH1 0x20 DUP2 ADD SWAP1 POP PUSH3 0x891 JUMP JUMPDEST DUP7 DUP4 LT ISZERO PUSH3 0x8D8 JUMPI DUP5 DUP10 ADD MLOAD PUSH3 0x8D4 PUSH1 0x1F DUP10 AND DUP3 PUSH3 0x7C8 JUMP JUMPDEST DUP4 SSTORE POP JUMPDEST PUSH1 0x1 PUSH1 0x2 DUP9 MUL ADD DUP9 SSTORE POP POP POP JUMPDEST POP POP POP POP POP POP JUMP JUMPDEST PUSH1 0x0 DUP3 DUP3 MSTORE PUSH1 0x20 DUP3 ADD SWAP1 POP SWAP3 SWAP2 POP POP JUMP JUMPDEST PUSH32 0x45524332303A206D696E7420746F20746865207A65726F206164647265737300 PUSH1 0x0 DUP3 ADD MSTORE POP JUMP JUMPDEST PUSH1 0x0 PUSH3 0x936 PUSH1 0x1F DUP4 PUSH3 0x8ED JUMP JUMPDEST SWAP2 POP PUSH3 0x943 DUP3 PUSH3 0x8FE JUMP JUMPDEST PUSH1 0x20 DUP3 ADD SWAP1 POP SWAP2 SWAP1 POP JUMP JUMPDEST PUSH1 0x0 PUSH1 0x20 DUP3 ADD SWAP1 POP DUP2 DUP2 SUB PUSH1 0x0 DUP4 ADD MSTORE PUSH3 0x969 DUP2 PUSH3 0x927 JUMP JUMPDEST SWAP1 POP SWAP2 SWAP1 POP JUMP JUMPDEST PUSH32 0x4E487B7100000000000000000000000000000000000000000000000000000000 PUSH1 0x0 MSTORE PUSH1 0x11 PUSH1 0x4 MSTORE PUSH1 0x24 PUSH1 0x0 REVERT JUMPDEST PUSH1 0x0 PUSH3 0x9AC DUP3 PUSH3 0x514 JUMP JUMPDEST SWAP2 POP PUSH3 0x9B9 DUP4 PUSH3 0x514 JUMP JUMPDEST SWAP3 POP DUP3 DUP3 ADD SWAP1 POP DUP1 DUP3 GT ISZERO PUSH3 0x9D4 JUMPI PUSH3 0x9D3 PUSH3 0x970 JUMP JUMPDEST JUMPDEST SWAP3 SWAP2 POP POP JUMP JUMPDEST PUSH3 0x9E5 DUP2 PUSH3 0x514 JUMP JUMPDEST DUP3 MSTORE POP POP JUMP JUMPDEST PUSH1 0x0 PUSH1 0x20 DUP3 ADD SWAP1 POP PUSH3 0xA02 PUSH1 0x0 DUP4 ADD DUP5 PUSH3 0x9DA JUMP JUMPDEST SWAP3 SWAP2 POP POP JUMP JUMPDEST PUSH32 0x4F776E61626C653A206E6577206F776E657220697320746865207A65726F2061 PUSH1 0x0 DUP3 ADD MSTORE PUSH32 0x6464726573730000000000000000000000000000000000000000000000000000 PUSH1 0x20 DUP3 ADD MSTORE POP JUMP JUMPDEST PUSH1 0x0 PUSH3 0xA66 PUSH1 0x26 DUP4 PUSH3 0x8ED JUMP JUMPDEST SWAP2 POP PUSH3 0xA73 DUP3 PUSH3 0xA08 JUMP JUMPDEST PUSH1 0x40 DUP3 ADD SWAP1 POP SWAP2 SWAP1 POP JUMP JUMPDEST PUSH1 0x0 PUSH1 0x20 DUP3 ADD SWAP1 POP DUP2 DUP2 SUB PUSH1 0x0 DUP4 ADD MSTORE PUSH3 0xA99 DUP2 PUSH3 0xA57 JUMP JUMPDEST SWAP1 POP SWAP2 SWAP1 POP JUMP JUMPDEST PUSH32 0x4F776E61626C653A2063616C6C6572206973206E6F7420746865206F776E6572 PUSH1 0x0 DUP3 ADD MSTORE POP JUMP JUMPDEST PUSH1 0x0 PUSH3 0xAD8 PUSH1 0x20 DUP4 PUSH3 0x8ED JUMP JUMPDEST SWAP2 POP PUSH3 0xAE5 DUP3 PUSH3 0xAA0 JUMP JUMPDEST PUSH1 0x20 DUP3 ADD SWAP1 POP SWAP2 SWAP1 POP JUMP JUMPDEST PUSH1 0x0 PUSH1 0x20 DUP3 ADD SWAP1 POP DUP2 DUP2 SUB PUSH1 0x0 DUP4 ADD MSTORE PUSH3 0xB0B DUP2 PUSH3 0xAC9 JUMP JUMPDEST SWAP1 POP SWAP2 SWAP1 POP JUMP JUMPDEST PUSH2 0x1A75 DUP1 PUSH3 0xB22 PUSH1 0x0 CODECOPY PUSH1 0x0 RETURN INVALID PUSH1 0x80 PUSH1 0x40 MSTORE PUSH1 0x4 CALLDATASIZE LT PUSH2 0xF3 JUMPI PUSH1 0x0 CALLDATALOAD PUSH1 0xE0 SHR DUP1 PUSH4 0x70A08231 GT PUSH2 0x8A JUMPI DUP1 PUSH4 0xA457C2D7 GT PUSH2 0x59 JUMPI DUP1 PUSH4 0xA457C2D7 EQ PUSH2 0x31F JUMPI DUP1 PUSH4 0xA9059CBB EQ PUSH2 0x35C JUMPI DUP1 PUSH4 0xDD62ED3E EQ PUSH2 0x399 JUMPI DUP1 PUSH4 0xF2FDE38B EQ PUSH2 0x3D6 JUMPI PUSH2 0xF3 JUMP JUMPDEST DUP1 PUSH4 0x70A08231 EQ PUSH2 0x275 JUMPI DUP1 PUSH4 0x715018A6 EQ PUSH2 0x2B2 JUMPI DUP1 PUSH4 0x8DA5CB5B EQ PUSH2 0x2C9 JUMPI DUP1 PUSH4 0x95D89B41 EQ PUSH2 0x2F4 JUMPI PUSH2 0xF3 JUMP JUMPDEST DUP1 PUSH4 0x313CE567 GT PUSH2 0xC6 JUMPI DUP1 PUSH4 0x313CE567 EQ PUSH2 0x1C8 JUMPI DUP1 PUSH4 0x3610724E EQ PUSH2 0x1F3 JUMPI DUP1 PUSH4 0x39509351 EQ PUSH2 0x20F JUMPI DUP1 PUSH4 0x6C11BCD3 EQ PUSH2 0x24C JUMPI PUSH2 0xF3 JUMP JUMPDEST DUP1 PUSH4 0x6FDDE03 EQ PUSH2 0xF8 JUMPI DUP1 PUSH4 0x95EA7B3 EQ PUSH2 0x123 JUMPI DUP1 PUSH4 0x18160DDD EQ PUSH2 0x160 JUMPI DUP1 PUSH4 0x23B872DD EQ PUSH2 0x18B JUMPI JUMPDEST PUSH1 0x0 DUP1 REVERT JUMPDEST CALLVALUE DUP1 ISZERO PUSH2 0x104 JUMPI PUSH1 0x0 DUP1 REVERT JUMPDEST POP PUSH2 0x10D PUSH2 0x3FF JUMP JUMPDEST PUSH1 0x40 MLOAD PUSH2 0x11A SWAP2 SWAP1 PUSH2 0x1027 JUMP JUMPDEST PUSH1 0x40 MLOAD DUP1 SWAP2 SUB SWAP1 RETURN JUMPDEST CALLVALUE DUP1 ISZERO PUSH2 0x12F JUMPI PUSH1 0x0 DUP1 REVERT JUMPDEST POP PUSH2 0x14A PUSH1 0x4 DUP1 CALLDATASIZE SUB DUP2 ADD SWAP1 PUSH2 0x145 SWAP2 SWAP1 PUSH2 0x10E2 JUMP JUMPDEST PUSH2 0x491 JUMP JUMPDEST PUSH1 0x40 MLOAD PUSH2 0x157 SWAP2 SWAP1 PUSH2 0x113D JUMP JUMPDEST PUSH1 0x40 MLOAD DUP1 SWAP2 SUB SWAP1 RETURN JUMPDEST CALLVALUE DUP1 ISZERO PUSH2 0x16C JUMPI PUSH1 0x0 DUP1 REVERT JUMPDEST POP PUSH2 0x175 PUSH2 0x4B4 JUMP JUMPDEST PUSH1 0x40 MLOAD PUSH2 0x182 SWAP2 SWAP1 PUSH2 0x1167 JUMP JUMPDEST PUSH1 0x40 MLOAD DUP1 SWAP2 SUB SWAP1 RETURN JUMPDEST CALLVALUE DUP1 ISZERO PUSH2 0x197 JUMPI PUSH1 0x0 DUP1 REVERT JUMPDEST POP PUSH2 0x1B2 PUSH1 0x4 DUP1 CALLDATASIZE SUB DUP2 ADD SWAP1 PUSH2 0x1AD SWAP2 SWAP1 PUSH2 0x1182 JUMP JUMPDEST PUSH2 0x4BE JUMP JUMPDEST PUSH1 0x40 MLOAD PUSH2 0x1BF SWAP2 SWAP1 PUSH2 0x113D JUMP JUMPDEST PUSH1 0x40 MLOAD DUP1 SWAP2 SUB SWAP1 RETURN JUMPDEST CALLVALUE DUP1 ISZERO PUSH2 0x1D4 JUMPI PUSH1 0x0 DUP1 REVERT JUMPDEST POP PUSH2 0x1DD PUSH2 0x4ED JUMP JUMPDEST PUSH1 0x40 MLOAD PUSH2 0x1EA SWAP2 SWAP1 PUSH2 0x11F1 JUMP JUMPDEST PUSH1 0x40 MLOAD DUP1 SWAP2 SUB SWAP1 RETURN JUMPDEST PUSH2 0x20D PUSH1 0x4 DUP1 CALLDATASIZE SUB DUP2 ADD SWAP1 PUSH2 0x208 SWAP2 SWAP1 PUSH2 0x120C JUMP JUMPDEST PUSH2 0x4F6 JUMP JUMPDEST STOP JUMPDEST CALLVALUE DUP1 ISZERO PUSH2 0x21B JUMPI PUSH1 0x0 DUP1 REVERT JUMPDEST POP PUSH2 0x236 PUSH1 0x4 DUP1 CALLDATASIZE SUB DUP2 ADD SWAP1 PUSH2 0x231 SWAP2 SWAP1 PUSH2 0x10E2 JUMP JUMPDEST PUSH2 0x598 JUMP JUMPDEST PUSH1 0x40 MLOAD PUSH2 0x243 SWAP2 SWAP1 PUSH2 0x113D JUMP JUMPDEST PUSH1 0x40 MLOAD DUP1 SWAP2 SUB SWAP1 RETURN JUMPDEST CALLVALUE DUP1 ISZERO PUSH2 0x258 JUMPI PUSH1 0x0 DUP1 REVERT JUMPDEST POP PUSH2 0x273 PUSH1 0x4 DUP1 CALLDATASIZE SUB DUP2 ADD SWAP1 PUSH2 0x26E SWAP2 SWAP1 PUSH2 0x120C JUMP JUMPDEST PUSH2 0x5CF JUMP JUMPDEST STOP JUMPDEST CALLVALUE DUP1 ISZERO PUSH2 0x281 JUMPI PUSH1 0x0 DUP1 REVERT JUMPDEST POP PUSH2 0x29C PUSH1 0x4 DUP1 CALLDATASIZE SUB DUP2 ADD SWAP1 PUSH2 0x297 SWAP2 SWAP1 PUSH2 0x1239 JUMP JUMPDEST PUSH2 0x6BA JUMP JUMPDEST PUSH1 0x40 MLOAD PUSH2 0x2A9 SWAP2 SWAP1 PUSH2 0x1167 JUMP JUMPDEST PUSH1 0x40 MLOAD DUP1 SWAP2 SUB SWAP1 RETURN JUMPDEST CALLVALUE DUP1 ISZERO PUSH2 0x2BE JUMPI PUSH1 0x0 DUP1 REVERT JUMPDEST POP PUSH2 0x2C7 PUSH2 0x702 JUMP JUMPDEST STOP JUMPDEST CALLVALUE DUP1 ISZERO PUSH2 0x2D5 JUMPI PUSH1 0x0 DUP1 REVERT JUMPDEST POP PUSH2 0x2DE PUSH2 0x716 JUMP JUMPDEST PUSH1 0x40 MLOAD PUSH2 0x2EB SWAP2 SWAP1 PUSH2 0x1275 JUMP JUMPDEST PUSH1 0x40 MLOAD DUP1 SWAP2 SUB SWAP1 RETURN JUMPDEST CALLVALUE DUP1 ISZERO PUSH2 0x300 JUMPI PUSH1 0x0 DUP1 REVERT JUMPDEST POP PUSH2 0x309 PUSH2 0x740 JUMP JUMPDEST PUSH1 0x40 MLOAD PUSH2 0x316 SWAP2 SWAP1 PUSH2 0x1027 JUMP JUMPDEST PUSH1 0x40 MLOAD DUP1 SWAP2 SUB SWAP1 RETURN JUMPDEST CALLVALUE DUP1 ISZERO PUSH2 0x32B JUMPI PUSH1 0x0 DUP1 REVERT JUMPDEST POP PUSH2 0x346 PUSH1 0x4 DUP1 CALLDATASIZE SUB DUP2 ADD SWAP1 PUSH2 0x341 SWAP2 SWAP1 PUSH2 0x10E2 JUMP JUMPDEST PUSH2 0x7D2 JUMP JUMPDEST PUSH1 0x40 MLOAD PUSH2 0x353 SWAP2 SWAP1 PUSH2 0x113D JUMP JUMPDEST PUSH1 0x40 MLOAD DUP1 SWAP2 SUB SWAP1 RETURN JUMPDEST CALLVALUE DUP1 ISZERO PUSH2 0x368 JUMPI PUSH1 0x0 DUP1 REVERT JUMPDEST POP PUSH2 0x383 PUSH1 0x4 DUP1 CALLDATASIZE SUB DUP2 ADD SWAP1 PUSH2 0x37E SWAP2 SWAP1 PUSH2 0x10E2 JUMP JUMPDEST PUSH2 0x849 JUMP JUMPDEST PUSH1 0x40 MLOAD PUSH2 0x390 SWAP2 SWAP1 PUSH2 0x113D JUMP JUMPDEST PUSH1 0x40 MLOAD DUP1 SWAP2 SUB SWAP1 RETURN JUMPDEST CALLVALUE DUP1 ISZERO PUSH2 0x3A5 JUMPI PUSH1 0x0 DUP1 REVERT JUMPDEST POP PUSH2 0x3C0 PUSH1 0x4 DUP1 CALLDATASIZE SUB DUP2 ADD SWAP1 PUSH2 0x3BB SWAP2 SWAP1 PUSH2 0x1290 JUMP JUMPDEST PUSH2 0x86C JUMP JUMPDEST PUSH1 0x40 MLOAD PUSH2 0x3CD SWAP2 SWAP1 PUSH2 0x1167 JUMP JUMPDEST PUSH1 0x40 MLOAD DUP1 SWAP2 SUB SWAP1 RETURN JUMPDEST CALLVALUE DUP1 ISZERO PUSH2 0x3E2 JUMPI PUSH1 0x0 DUP1 REVERT JUMPDEST POP PUSH2 0x3FD PUSH1 0x4 DUP1 CALLDATASIZE SUB DUP2 ADD SWAP1 PUSH2 0x3F8 SWAP2 SWAP1 PUSH2 0x1239 JUMP JUMPDEST PUSH2 0x8F3 JUMP JUMPDEST STOP JUMPDEST PUSH1 0x60 PUSH1 0x3 DUP1 SLOAD PUSH2 0x40E SWAP1 PUSH2 0x12FF JUMP JUMPDEST DUP1 PUSH1 0x1F ADD PUSH1 0x20 DUP1 SWAP2 DIV MUL PUSH1 0x20 ADD PUSH1 0x40 MLOAD SWAP1 DUP2 ADD PUSH1 0x40 MSTORE DUP1 SWAP3 SWAP2 SWAP1 DUP2 DUP2 MSTORE PUSH1 0x20 ADD DUP3 DUP1 SLOAD PUSH2 0x43A SWAP1 PUSH2 0x12FF JUMP JUMPDEST DUP1 ISZERO PUSH2 0x487 JUMPI DUP1 PUSH1 0x1F LT PUSH2 0x45C JUMPI PUSH2 0x100 DUP1 DUP4 SLOAD DIV MUL DUP4 MSTORE SWAP2 PUSH1 0x20 ADD SWAP2 PUSH2 0x487 JUMP JUMPDEST DUP3 ADD SWAP2 SWAP1 PUSH1 0x0 MSTORE PUSH1 0x20 PUSH1 0x0 KECCAK256 SWAP1 JUMPDEST DUP2 SLOAD DUP2 MSTORE SWAP1 PUSH1 0x1 ADD SWAP1 PUSH1 0x20 ADD DUP1 DUP4 GT PUSH2 0x46A JUMPI DUP3 SWAP1 SUB PUSH1 0x1F AND DUP3 ADD SWAP2 JUMPDEST POP POP POP POP POP SWAP1 POP SWAP1 JUMP JUMPDEST PUSH1 0x0 DUP1 PUSH2 0x49C PUSH2 0x976 JUMP JUMPDEST SWAP1 POP PUSH2 0x4A9 DUP2 DUP6 DUP6 PUSH2 0x97E JUMP JUMPDEST PUSH1 0x1 SWAP2 POP POP SWAP3 SWAP2 POP POP JUMP JUMPDEST PUSH1 0x0 PUSH1 0x2 SLOAD SWAP1 POP SWAP1 JUMP JUMPDEST PUSH1 0x0 DUP1 PUSH2 0x4C9 PUSH2 0x976 JUMP JUMPDEST SWAP1 POP PUSH2 0x4D6 DUP6 DUP3 DUP6 PUSH2 0xB47 JUMP JUMPDEST PUSH2 0x4E1 DUP6 DUP6 DUP6 PUSH2 0xBD3 JUMP JUMPDEST PUSH1 0x1 SWAP2 POP POP SWAP4 SWAP3 POP POP POP JUMP JUMPDEST PUSH1 0x0 PUSH1 0x12 SWAP1 POP SWAP1 JUMP JUMPDEST PUSH1 0x0 PUSH2 0x501 ADDRESS PUSH2 0x6BA JUMP JUMPDEST SWAP1 POP PUSH1 0x0 DUP3 GT PUSH2 0x546 JUMPI PUSH1 0x40 MLOAD PUSH32 0x8C379A000000000000000000000000000000000000000000000000000000000 DUP2 MSTORE PUSH1 0x4 ADD PUSH2 0x53D SWAP1 PUSH2 0x137C JUMP JUMPDEST PUSH1 0x40 MLOAD DUP1 SWAP2 SUB SWAP1 REVERT JUMPDEST DUP1 DUP3 GT ISZERO PUSH2 0x589 JUMPI PUSH1 0x40 MLOAD PUSH32 0x8C379A000000000000000000000000000000000000000000000000000000000 DUP2 MSTORE PUSH1 0x4 ADD PUSH2 0x580 SWAP1 PUSH2 0x13E8 JUMP JUMPDEST PUSH1 0x40 MLOAD DUP1 SWAP2 SUB SWAP1 REVERT JUMPDEST PUSH2 0x593 CALLER DUP4 PUSH2 0x849 JUMP JUMPDEST POP POP POP JUMP JUMPDEST PUSH1 0x0 DUP1 PUSH2 0x5A3 PUSH2 0x976 JUMP JUMPDEST SWAP1 POP PUSH2 0x5C4 DUP2 DUP6 DUP6 PUSH2 0x5B5 DUP6 DUP10 PUSH2 0x86C JUMP JUMPDEST PUSH2 0x5BF SWAP2 SWAP1 PUSH2 0x1437 JUMP JUMPDEST PUSH2 0x97E JUMP JUMPDEST PUSH1 0x1 SWAP2 POP POP SWAP3 SWAP2 POP POP JUMP JUMPDEST PUSH1 0x0 DUP2 GT PUSH2 0x612 JUMPI PUSH1 0x40 MLOAD PUSH32 0x8C379A000000000000000000000000000000000000000000000000000000000 DUP2 MSTORE PUSH1 0x4 ADD PUSH2 0x609 SWAP1 PUSH2 0x14DD JUMP JUMPDEST PUSH1 0x40 MLOAD DUP1 SWAP2 SUB SWAP1 REVERT JUMPDEST PUSH1 0x0 PUSH2 0x61E CALLER ADDRESS PUSH2 0x86C JUMP JUMPDEST SWAP1 POP DUP2 DUP2 LT ISZERO PUSH2 0x663 JUMPI PUSH1 0x40 MLOAD PUSH32 0x8C379A000000000000000000000000000000000000000000000000000000000 DUP2 MSTORE PUSH1 0x4 ADD PUSH2 0x65A SWAP1 PUSH2 0x1549 JUMP JUMPDEST PUSH1 0x40 MLOAD DUP1 SWAP2 SUB SWAP1 REVERT JUMPDEST PUSH2 0x66E CALLER ADDRESS DUP5 PUSH2 0x4BE JUMP JUMPDEST POP CALLER PUSH20 0xFFFFFFFFFFFFFFFFFFFFFFFFFFFFFFFFFFFFFFFF AND PUSH2 0x8FC DUP4 SWAP1 DUP2 ISZERO MUL SWAP1 PUSH1 0x40 MLOAD PUSH1 0x0 PUSH1 0x40 MLOAD DUP1 DUP4 SUB DUP2 DUP6 DUP9 DUP9 CALL SWAP4 POP POP POP POP ISZERO DUP1 ISZERO PUSH2 0x6B5 JUMPI RETURNDATASIZE PUSH1 0x0 DUP1 RETURNDATACOPY RETURNDATASIZE PUSH1 0x0 REVERT JUMPDEST POP POP POP JUMP JUMPDEST PUSH1 0x0 DUP1 PUSH1 0x0 DUP4 PUSH20 0xFFFFFFFFFFFFFFFFFFFFFFFFFFFFFFFFFFFFFFFF AND PUSH20 0xFFFFFFFFFFFFFFFFFFFFFFFFFFFFFFFFFFFFFFFF AND DUP2 MSTORE PUSH1 0x20 ADD SWAP1 DUP2 MSTORE PUSH1 0x20 ADD PUSH1 0x0 KECCAK256 SLOAD SWAP1 POP SWAP2 SWAP1 POP JUMP JUMPDEST PUSH2 0x70A PUSH2 0xE49 JUMP JUMPDEST PUSH2 0x714 PUSH1 0x0 PUSH2 0xEC7 JUMP JUMPDEST JUMP JUMPDEST PUSH1 0x0 PUSH1 0x5 PUSH1 0x0 SWAP1 SLOAD SWAP1 PUSH2 0x100 EXP SWAP1 DIV PUSH20 0xFFFFFFFFFFFFFFFFFFFFFFFFFFFFFFFFFFFFFFFF AND SWAP1 POP SWAP1 JUMP JUMPDEST PUSH1 0x60 PUSH1 0x4 DUP1 SLOAD PUSH2 0x74F SWAP1 PUSH2 0x12FF JUMP JUMPDEST DUP1 PUSH1 0x1F ADD PUSH1 0x20 DUP1 SWAP2 DIV MUL PUSH1 0x20 ADD PUSH1 0x40 MLOAD SWAP1 DUP2 ADD PUSH1 0x40 MSTORE DUP1 SWAP3 SWAP2 SWAP1 DUP2 DUP2 MSTORE PUSH1 0x20 ADD DUP3 DUP1 SLOAD PUSH2 0x77B SWAP1 PUSH2 0x12FF JUMP JUMPDEST DUP1 ISZERO PUSH2 0x7C8 JUMPI DUP1 PUSH1 0x1F LT PUSH2 0x79D JUMPI PUSH2 0x100 DUP1 DUP4 SLOAD DIV MUL DUP4 MSTORE SWAP2 PUSH1 0x20 ADD SWAP2 PUSH2 0x7C8 JUMP JUMPDEST DUP3 ADD SWAP2 SWAP1 PUSH1 0x0 MSTORE PUSH1 0x20 PUSH1 0x0 KECCAK256 SWAP1 JUMPDEST DUP2 SLOAD DUP2 MSTORE SWAP1 PUSH1 0x1 ADD SWAP1 PUSH1 0x20 ADD DUP1 DUP4 GT PUSH2 0x7AB JUMPI DUP3 SWAP1 SUB PUSH1 0x1F AND DUP3 ADD SWAP2 JUMPDEST POP POP POP POP POP SWAP1 POP SWAP1 JUMP JUMPDEST PUSH1 0x0 DUP1 PUSH2 0x7DD PUSH2 0x976 JUMP JUMPDEST SWAP1 POP PUSH1 0x0 PUSH2 0x7EB DUP3 DUP7 PUSH2 0x86C JUMP JUMPDEST SWAP1 POP DUP4 DUP2 LT ISZERO PUSH2 0x830 JUMPI PUSH1 0x40 MLOAD PUSH32 0x8C379A000000000000000000000000000000000000000000000000000000000 DUP2 MSTORE PUSH1 0x4 ADD PUSH2 0x827 SWAP1 PUSH2 0x15DB JUMP JUMPDEST PUSH1 0x40 MLOAD DUP1 SWAP2 SUB SWAP1 REVERT JUMPDEST PUSH2 0x83D DUP3 DUP7 DUP7 DUP5 SUB PUSH2 0x97E JUMP JUMPDEST PUSH1 0x1 SWAP3 POP POP POP SWAP3 SWAP2 POP POP JUMP JUMPDEST PUSH1 0x0 DUP1 PUSH2 0x854 PUSH2 0x976 JUMP JUMPDEST SWAP1 POP PUSH2 0x861 DUP2 DUP6 DUP6 PUSH2 0xBD3 JUMP JUMPDEST PUSH1 0x1 SWAP2 POP POP SWAP3 SWAP2 POP POP JUMP JUMPDEST PUSH1 0x0 PUSH1 0x1 PUSH1 0x0 DUP5 PUSH20 0xFFFFFFFFFFFFFFFFFFFFFFFFFFFFFFFFFFFFFFFF AND PUSH20 0xFFFFFFFFFFFFFFFFFFFFFFFFFFFFFFFFFFFFFFFF AND DUP2 MSTORE PUSH1 0x20 ADD SWAP1 DUP2 MSTORE PUSH1 0x20 ADD PUSH1 0x0 KECCAK256 PUSH1 0x0 DUP4 PUSH20 0xFFFFFFFFFFFFFFFFFFFFFFFFFFFFFFFFFFFFFFFF AND PUSH20 0xFFFFFFFFFFFFFFFFFFFFFFFFFFFFFFFFFFFFFFFF AND DUP2 MSTORE PUSH1 0x20 ADD SWAP1 DUP2 MSTORE PUSH1 0x20 ADD PUSH1 0x0 KECCAK256 SLOAD SWAP1 POP SWAP3 SWAP2 POP POP JUMP JUMPDEST PUSH2 0x8FB PUSH2 0xE49 JUMP JUMPDEST PUSH1 0x0 PUSH20 0xFFFFFFFFFFFFFFFFFFFFFFFFFFFFFFFFFFFFFFFF AND DUP2 PUSH20 0xFFFFFFFFFFFFFFFFFFFFFFFFFFFFFFFFFFFFFFFF AND SUB PUSH2 0x96A JUMPI PUSH1 0x40 MLOAD PUSH32 0x8C379A000000000000000000000000000000000000000000000000000000000 DUP2 MSTORE PUSH1 0x4 ADD PUSH2 0x961 SWAP1 PUSH2 0x166D JUMP JUMPDEST PUSH1 0x40 MLOAD DUP1 SWAP2 SUB SWAP1 REVERT JUMPDEST PUSH2 0x973 DUP2 PUSH2 0xEC7 JUMP JUMPDEST POP JUMP JUMPDEST PUSH1 0x0 CALLER SWAP1 POP SWAP1 JUMP JUMPDEST PUSH1 0x0 PUSH20 0xFFFFFFFFFFFFFFFFFFFFFFFFFFFFFFFFFFFFFFFF AND DUP4 PUSH20 0xFFFFFFFFFFFFFFFFFFFFFFFFFFFFFFFFFFFFFFFF AND SUB PUSH2 0x9ED JUMPI PUSH1 0x40 MLOAD PUSH32 0x8C379A000000000000000000000000000000000000000000000000000000000 DUP2 MSTORE PUSH1 0x4 ADD PUSH2 0x9E4 SWAP1 PUSH2 0x16FF JUMP JUMPDEST PUSH1 0x40 MLOAD DUP1 SWAP2 SUB SWAP1 REVERT JUMPDEST PUSH1 0x0 PUSH20 0xFFFFFFFFFFFFFFFFFFFFFFFFFFFFFFFFFFFFFFFF AND DUP3 PUSH20 0xFFFFFFFFFFFFFFFFFFFFFFFFFFFFFFFFFFFFFFFF AND SUB PUSH2 0xA5C JUMPI PUSH1 0x40 MLOAD PUSH32 0x8C379A000000000000000000000000000000000000000000000000000000000 DUP2 MSTORE PUSH1 0x4 ADD PUSH2 0xA53 SWAP1 PUSH2 0x1791 JUMP JUMPDEST PUSH1 0x40 MLOAD DUP1 SWAP2 SUB SWAP1 REVERT JUMPDEST DUP1 PUSH1 0x1 PUSH1 0x0 DUP6 PUSH20 0xFFFFFFFFFFFFFFFFFFFFFFFFFFFFFFFFFFFFFFFF AND PUSH20 0xFFFFFFFFFFFFFFFFFFFFFFFFFFFFFFFFFFFFFFFF AND DUP2 MSTORE PUSH1 0x20 ADD SWAP1 DUP2 MSTORE PUSH1 0x20 ADD PUSH1 0x0 KECCAK256 PUSH1 0x0 DUP5 PUSH20 0xFFFFFFFFFFFFFFFFFFFFFFFFFFFFFFFFFFFFFFFF AND PUSH20 0xFFFFFFFFFFFFFFFFFFFFFFFFFFFFFFFFFFFFFFFF AND DUP2 MSTORE PUSH1 0x20 ADD SWAP1 DUP2 MSTORE PUSH1 0x20 ADD PUSH1 0x0 KECCAK256 DUP2 SWAP1 SSTORE POP DUP2 PUSH20 0xFFFFFFFFFFFFFFFFFFFFFFFFFFFFFFFFFFFFFFFF AND DUP4 PUSH20 0xFFFFFFFFFFFFFFFFFFFFFFFFFFFFFFFFFFFFFFFF AND PUSH32 0x8C5BE1E5EBEC7D5BD14F71427D1E84F3DD0314C0F7B2291E5B200AC8C7C3B925 DUP4 PUSH1 0x40 MLOAD PUSH2 0xB3A SWAP2 SWAP1 PUSH2 0x1167 JUMP JUMPDEST PUSH1 0x40 MLOAD DUP1 SWAP2 SUB SWAP1 LOG3 POP POP POP JUMP JUMPDEST PUSH1 0x0 PUSH2 0xB53 DUP5 DUP5 PUSH2 0x86C JUMP JUMPDEST SWAP1 POP PUSH32 0xFFFFFFFFFFFFFFFFFFFFFFFFFFFFFFFFFFFFFFFFFFFFFFFFFFFFFFFFFFFFFFFF DUP2 EQ PUSH2 0xBCD JUMPI DUP2 DUP2 LT ISZERO PUSH2 0xBBF JUMPI PUSH1 0x40 MLOAD PUSH32 0x8C379A000000000000000000000000000000000000000000000000000000000 DUP2 MSTORE PUSH1 0x4 ADD PUSH2 0xBB6 SWAP1 PUSH2 0x17FD JUMP JUMPDEST PUSH1 0x40 MLOAD DUP1 SWAP2 SUB SWAP1 REVERT JUMPDEST PUSH2 0xBCC DUP5 DUP5 DUP5 DUP5 SUB PUSH2 0x97E JUMP JUMPDEST JUMPDEST POP POP POP POP JUMP JUMPDEST PUSH1 0x0 PUSH20 0xFFFFFFFFFFFFFFFFFFFFFFFFFFFFFFFFFFFFFFFF AND DUP4 PUSH20 0xFFFFFFFFFFFFFFFFFFFFFFFFFFFFFFFFFFFFFFFF AND SUB PUSH2 0xC42 JUMPI PUSH1 0x40 MLOAD PUSH32 0x8C379A000000000000000000000000000000000000000000000000000000000 DUP2 MSTORE PUSH1 0x4 ADD PUSH2 0xC39 SWAP1 PUSH2 0x188F JUMP JUMPDEST PUSH1 0x40 MLOAD DUP1 SWAP2 SUB SWAP1 REVERT JUMPDEST PUSH1 0x0 PUSH20 0xFFFFFFFFFFFFFFFFFFFFFFFFFFFFFFFFFFFFFFFF AND DUP3 PUSH20 0xFFFFFFFFFFFFFFFFFFFFFFFFFFFFFFFFFFFFFFFF AND SUB PUSH2 0xCB1 JUMPI PUSH1 0x40 MLOAD PUSH32 0x8C379A000000000000000000000000000000000000000000000000000000000 DUP2 MSTORE PUSH1 0x4 ADD PUSH2 0xCA8 SWAP1 PUSH2 0x1921 JUMP JUMPDEST PUSH1 0x40 MLOAD DUP1 SWAP2 SUB SWAP1 REVERT JUMPDEST PUSH2 0xCBC DUP4 DUP4 DUP4 PUSH2 0xF8D JUMP JUMPDEST PUSH1 0x0 DUP1 PUSH1 0x0 DUP6 PUSH20 0xFFFFFFFFFFFFFFFFFFFFFFFFFFFFFFFFFFFFFFFF AND PUSH20 0xFFFFFFFFFFFFFFFFFFFFFFFFFFFFFFFFFFFFFFFF AND DUP2 MSTORE PUSH1 0x20 ADD SWAP1 DUP2 MSTORE PUSH1 0x20 ADD PUSH1 0x0 KECCAK256 SLOAD SWAP1 POP DUP2 DUP2 LT ISZERO PUSH2 0xD42 JUMPI PUSH1 0x40 MLOAD PUSH32 0x8C379A000000000000000000000000000000000000000000000000000000000 DUP2 MSTORE PUSH1 0x4 ADD PUSH2 0xD39 SWAP1 PUSH2 0x19B3 JUMP JUMPDEST PUSH1 0x40 MLOAD DUP1 SWAP2 SUB SWAP1 REVERT JUMPDEST DUP2 DUP2 SUB PUSH1 0x0 DUP1 DUP7 PUSH20 0xFFFFFFFFFFFFFFFFFFFFFFFFFFFFFFFFFFFFFFFF AND PUSH20 0xFFFFFFFFFFFFFFFFFFFFFFFFFFFFFFFFFFFFFFFF AND DUP2 MSTORE PUSH1 0x20 ADD SWAP1 DUP2 MSTORE PUSH1 0x20 ADD PUSH1 0x0 KECCAK256 DUP2 SWAP1 SSTORE POP DUP2 PUSH1 0x0 DUP1 DUP6 PUSH20 0xFFFFFFFFFFFFFFFFFFFFFFFFFFFFFFFFFFFFFFFF AND PUSH20 0xFFFFFFFFFFFFFFFFFFFFFFFFFFFFFFFFFFFFFFFF AND DUP2 MSTORE PUSH1 0x20 ADD SWAP1 DUP2 MSTORE PUSH1 0x20 ADD PUSH1 0x0 KECCAK256 PUSH1 0x0 DUP3 DUP3 SLOAD ADD SWAP3 POP POP DUP2 SWAP1 SSTORE POP DUP3 PUSH20 0xFFFFFFFFFFFFFFFFFFFFFFFFFFFFFFFFFFFFFFFF AND DUP5 PUSH20 0xFFFFFFFFFFFFFFFFFFFFFFFFFFFFFFFFFFFFFFFF AND PUSH32 0xDDF252AD1BE2C89B69C2B068FC378DAA952BA7F163C4A11628F55A4DF523B3EF DUP5 PUSH1 0x40 MLOAD PUSH2 0xE30 SWAP2 SWAP1 PUSH2 0x1167 JUMP JUMPDEST PUSH1 0x40 MLOAD DUP1 SWAP2 SUB SWAP1 LOG3 PUSH2 0xE43 DUP5 DUP5 DUP5 PUSH2 0xF92 JUMP JUMPDEST POP POP POP POP JUMP JUMPDEST PUSH2 0xE51 PUSH2 0x976 JUMP JUMPDEST PUSH20 0xFFFFFFFFFFFFFFFFFFFFFFFFFFFFFFFFFFFFFFFF AND PUSH2 0xE6F PUSH2 0x716 JUMP JUMPDEST PUSH20 0xFFFFFFFFFFFFFFFFFFFFFFFFFFFFFFFFFFFFFFFF AND EQ PUSH2 0xEC5 JUMPI PUSH1 0x40 MLOAD PUSH32 0x8C379A000000000000000000000000000000000000000000000000000000000 DUP2 MSTORE PUSH1 0x4 ADD PUSH2 0xEBC SWAP1 PUSH2 0x1A1F JUMP JUMPDEST PUSH1 0x40 MLOAD DUP1 SWAP2 SUB SWAP1 REVERT JUMPDEST JUMP JUMPDEST PUSH1 0x0 PUSH1 0x5 PUSH1 0x0 SWAP1 SLOAD SWAP1 PUSH2 0x100 EXP SWAP1 DIV PUSH20 0xFFFFFFFFFFFFFFFFFFFFFFFFFFFFFFFFFFFFFFFF AND SWAP1 POP DUP2 PUSH1 0x5 PUSH1 0x0 PUSH2 0x100 EXP DUP2 SLOAD DUP2 PUSH20 0xFFFFFFFFFFFFFFFFFFFFFFFFFFFFFFFFFFFFFFFF MUL NOT AND SWAP1 DUP4 PUSH20 0xFFFFFFFFFFFFFFFFFFFFFFFFFFFFFFFFFFFFFFFF AND MUL OR SWAP1 SSTORE POP DUP2 PUSH20 0xFFFFFFFFFFFFFFFFFFFFFFFFFFFFFFFFFFFFFFFF AND DUP2 PUSH20 0xFFFFFFFFFFFFFFFFFFFFFFFFFFFFFFFFFFFFFFFF AND PUSH32 0x8BE0079C531659141344CD1FD0A4F28419497F9722A3DAAFE3B4186F6B6457E0 PUSH1 0x40 MLOAD PUSH1 0x40 MLOAD DUP1 SWAP2 SUB SWAP1 LOG3 POP POP JUMP JUMPDEST POP POP POP JUMP JUMPDEST POP POP POP JUMP JUMPDEST PUSH1 0x0 DUP2 MLOAD SWAP1 POP SWAP2 SWAP1 POP JUMP JUMPDEST PUSH1 0x0 DUP3 DUP3 MSTORE PUSH1 0x20 DUP3 ADD SWAP1 POP SWAP3 SWAP2 POP POP JUMP JUMPDEST PUSH1 0x0 JUMPDEST DUP4 DUP2 LT ISZERO PUSH2 0xFD1 JUMPI DUP1 DUP3 ADD MLOAD DUP2 DUP5 ADD MSTORE PUSH1 0x20 DUP2 ADD SWAP1 POP PUSH2 0xFB6 JUMP JUMPDEST PUSH1 0x0 DUP5 DUP5 ADD MSTORE POP POP POP POP JUMP JUMPDEST PUSH1 0x0 PUSH1 0x1F NOT PUSH1 0x1F DUP4 ADD AND SWAP1 POP SWAP2 SWAP1 POP JUMP JUMPDEST PUSH1 0x0 PUSH2 0xFF9 DUP3 PUSH2 0xF97 JUMP JUMPDEST PUSH2 0x1003 DUP2 DUP6 PUSH2 0xFA2 JUMP JUMPDEST SWAP4 POP PUSH2 0x1013 DUP2 DUP6 PUSH1 0x20 DUP7 ADD PUSH2 0xFB3 JUMP JUMPDEST PUSH2 0x101C DUP2 PUSH2 0xFDD JUMP JUMPDEST DUP5 ADD SWAP2 POP POP SWAP3 SWAP2 POP POP JUMP JUMPDEST PUSH1 0x0 PUSH1 0x20 DUP3 ADD SWAP1 POP DUP2 DUP2 SUB PUSH1 0x0 DUP4 ADD MSTORE PUSH2 0x1041 DUP2 DUP5 PUSH2 0xFEE JUMP JUMPDEST SWAP1 POP SWAP3 SWAP2 POP POP JUMP JUMPDEST PUSH1 0x0 DUP1 REVERT JUMPDEST PUSH1 0x0 PUSH20 0xFFFFFFFFFFFFFFFFFFFFFFFFFFFFFFFFFFFFFFFF DUP3 AND SWAP1 POP SWAP2 SWAP1 POP JUMP JUMPDEST PUSH1 0x0 PUSH2 0x1079 DUP3 PUSH2 0x104E JUMP JUMPDEST SWAP1 POP SWAP2 SWAP1 POP JUMP JUMPDEST PUSH2 0x1089 DUP2 PUSH2 0x106E JUMP JUMPDEST DUP2 EQ PUSH2 0x1094 JUMPI PUSH1 0x0 DUP1 REVERT JUMPDEST POP JUMP JUMPDEST PUSH1 0x0 DUP2 CALLDATALOAD SWAP1 POP PUSH2 0x10A6 DUP2 PUSH2 0x1080 JUMP JUMPDEST SWAP3 SWAP2 POP POP JUMP JUMPDEST PUSH1 0x0 DUP2 SWAP1 POP SWAP2 SWAP1 POP JUMP JUMPDEST PUSH2 0x10BF DUP2 PUSH2 0x10AC JUMP JUMPDEST DUP2 EQ PUSH2 0x10CA JUMPI PUSH1 0x0 DUP1 REVERT JUMPDEST POP JUMP JUMPDEST PUSH1 0x0 DUP2 CALLDATALOAD SWAP1 POP PUSH2 0x10DC DUP2 PUSH2 0x10B6 JUMP JUMPDEST SWAP3 SWAP2 POP POP JUMP JUMPDEST PUSH1 0x0 DUP1 PUSH1 0x40 DUP4 DUP6 SUB SLT ISZERO PUSH2 0x10F9 JUMPI PUSH2 0x10F8 PUSH2 0x1049 JUMP JUMPDEST JUMPDEST PUSH1 0x0 PUSH2 0x1107 DUP6 DUP3 DUP7 ADD PUSH2 0x1097 JUMP JUMPDEST SWAP3 POP POP PUSH1 0x20 PUSH2 0x1118 DUP6 DUP3 DUP7 ADD PUSH2 0x10CD JUMP JUMPDEST SWAP2 POP POP SWAP3 POP SWAP3 SWAP1 POP JUMP JUMPDEST PUSH1 0x0 DUP2 ISZERO ISZERO SWAP1 POP SWAP2 SWAP1 POP JUMP JUMPDEST PUSH2 0x1137 DUP2 PUSH2 0x1122 JUMP JUMPDEST DUP3 MSTORE POP POP JUMP JUMPDEST PUSH1 0x0 PUSH1 0x20 DUP3 ADD SWAP1 POP PUSH2 0x1152 PUSH1 0x0 DUP4 ADD DUP5 PUSH2 0x112E JUMP JUMPDEST SWAP3 SWAP2 POP POP JUMP JUMPDEST PUSH2 0x1161 DUP2 PUSH2 0x10AC JUMP JUMPDEST DUP3 MSTORE POP POP JUMP JUMPDEST PUSH1 0x0 PUSH1 0x20 DUP3 ADD SWAP1 POP PUSH2 0x117C PUSH1 0x0 DUP4 ADD DUP5 PUSH2 0x1158 JUMP JUMPDEST SWAP3 SWAP2 POP POP JUMP JUMPDEST PUSH1 0x0 DUP1 PUSH1 0x0 PUSH1 0x60 DUP5 DUP7 SUB SLT ISZERO PUSH2 0x119B JUMPI PUSH2 0x119A PUSH2 0x1049 JUMP JUMPDEST JUMPDEST PUSH1 0x0 PUSH2 0x11A9 DUP7 DUP3 DUP8 ADD PUSH2 0x1097 JUMP JUMPDEST SWAP4 POP POP PUSH1 0x20 PUSH2 0x11BA DUP7 DUP3 DUP8 ADD PUSH2 0x1097 JUMP JUMPDEST SWAP3 POP POP PUSH1 0x40 PUSH2 0x11CB DUP7 DUP3 DUP8 ADD PUSH2 0x10CD JUMP JUMPDEST SWAP2 POP POP SWAP3 POP SWAP3 POP SWAP3 JUMP JUMPDEST PUSH1 0x0 PUSH1 0xFF DUP3 AND SWAP1 POP SWAP2 SWAP1 POP JUMP JUMPDEST PUSH2 0x11EB DUP2 PUSH2 0x11D5 JUMP JUMPDEST DUP3 MSTORE POP POP JUMP JUMPDEST PUSH1 0x0 PUSH1 0x20 DUP3 ADD SWAP1 POP PUSH2 0x1206 PUSH1 0x0 DUP4 ADD DUP5 PUSH2 0x11E2 JUMP JUMPDEST SWAP3 SWAP2 POP POP JUMP JUMPDEST PUSH1 0x0 PUSH1 0x20 DUP3 DUP5 SUB SLT ISZERO PUSH2 0x1222 JUMPI PUSH2 0x1221 PUSH2 0x1049 JUMP JUMPDEST JUMPDEST PUSH1 0x0 PUSH2 0x1230 DUP5 DUP3 DUP6 ADD PUSH2 0x10CD JUMP JUMPDEST SWAP2 POP POP SWAP3 SWAP2 POP POP JUMP JUMPDEST PUSH1 0x0 PUSH1 0x20 DUP3 DUP5 SUB SLT ISZERO PUSH2 0x124F JUMPI PUSH2 0x124E PUSH2 0x1049 JUMP JUMPDEST JUMPDEST PUSH1 0x0 PUSH2 0x125D DUP5 DUP3 DUP6 ADD PUSH2 0x1097 JUMP JUMPDEST SWAP2 POP POP SWAP3 SWAP2 POP POP JUMP JUMPDEST PUSH2 0x126F DUP2 PUSH2 0x106E JUMP JUMPDEST DUP3 MSTORE POP POP JUMP JUMPDEST PUSH1 0x0 PUSH1 0x20 DUP3 ADD SWAP1 POP PUSH2 0x128A PUSH1 0x0 DUP4 ADD DUP5 PUSH2 0x1266 JUMP JUMPDEST SWAP3 SWAP2 POP POP JUMP JUMPDEST PUSH1 0x0 DUP1 PUSH1 0x40 DUP4 DUP6 SUB SLT ISZERO PUSH2 0x12A7 JUMPI PUSH2 0x12A6 PUSH2 0x1049 JUMP JUMPDEST JUMPDEST PUSH1 0x0 PUSH2 0x12B5 DUP6 DUP3 DUP7 ADD PUSH2 0x1097 JUMP JUMPDEST SWAP3 POP POP PUSH1 0x20 PUSH2 0x12C6 DUP6 DUP3 DUP7 ADD PUSH2 0x1097 JUMP JUMPDEST SWAP2 POP POP SWAP3 POP SWAP3 SWAP1 POP JUMP JUMPDEST PUSH32 0x4E487B7100000000000000000000000000000000000000000000000000000000 PUSH1 0x0 MSTORE PUSH1 0x22 PUSH1 0x4 MSTORE PUSH1 0x24 PUSH1 0x0 REVERT JUMPDEST PUSH1 0x0 PUSH1 0x2 DUP3 DIV SWAP1 POP PUSH1 0x1 DUP3 AND DUP1 PUSH2 0x1317 JUMPI PUSH1 0x7F DUP3 AND SWAP2 POP JUMPDEST PUSH1 0x20 DUP3 LT DUP2 SUB PUSH2 0x132A JUMPI PUSH2 0x1329 PUSH2 0x12D0 JUMP JUMPDEST JUMPDEST POP SWAP2 SWAP1 POP JUMP JUMPDEST PUSH32 0x596F75206E65656420746F2073656E6420736F6D652065746865720000000000 PUSH1 0x0 DUP3 ADD MSTORE POP JUMP JUMPDEST PUSH1 0x0 PUSH2 0x1366 PUSH1 0x1B DUP4 PUSH2 0xFA2 JUMP JUMPDEST SWAP2 POP PUSH2 0x1371 DUP3 PUSH2 0x1330 JUMP JUMPDEST PUSH1 0x20 DUP3 ADD SWAP1 POP SWAP2 SWAP1 POP JUMP JUMPDEST PUSH1 0x0 PUSH1 0x20 DUP3 ADD SWAP1 POP DUP2 DUP2 SUB PUSH1 0x0 DUP4 ADD MSTORE PUSH2 0x1395 DUP2 PUSH2 0x1359 JUMP JUMPDEST SWAP1 POP SWAP2 SWAP1 POP JUMP JUMPDEST PUSH32 0x4E6F7420656E6F75676820746F6B656E7320696E207468652072657365727665 PUSH1 0x0 DUP3 ADD MSTORE POP JUMP JUMPDEST PUSH1 0x0 PUSH2 0x13D2 PUSH1 0x20 DUP4 PUSH2 0xFA2 JUMP JUMPDEST SWAP2 POP PUSH2 0x13DD DUP3 PUSH2 0x139C JUMP JUMPDEST PUSH1 0x20 DUP3 ADD SWAP1 POP SWAP2 SWAP1 POP JUMP JUMPDEST PUSH1 0x0 PUSH1 0x20 DUP3 ADD SWAP1 POP DUP2 DUP2 SUB PUSH1 0x0 DUP4 ADD MSTORE PUSH2 0x1401 DUP2 PUSH2 0x13C5 JUMP JUMPDEST SWAP1 POP SWAP2 SWAP1 POP JUMP JUMPDEST PUSH32 0x4E487B7100000000000000000000000000000000000000000000000000000000 PUSH1 0x0 MSTORE PUSH1 0x11 PUSH1 0x4 MSTORE PUSH1 0x24 PUSH1 0x0 REVERT JUMPDEST PUSH1 0x0 PUSH2 0x1442 DUP3 PUSH2 0x10AC JUMP JUMPDEST SWAP2 POP PUSH2 0x144D DUP4 PUSH2 0x10AC JUMP JUMPDEST SWAP3 POP DUP3 DUP3 ADD SWAP1 POP DUP1 DUP3 GT ISZERO PUSH2 0x1465 JUMPI PUSH2 0x1464 PUSH2 0x1408 JUMP JUMPDEST JUMPDEST SWAP3 SWAP2 POP POP JUMP JUMPDEST PUSH32 0x596F75206E65656420746F2073656C6C206174206C6561737420736F6D652074 PUSH1 0x0 DUP3 ADD MSTORE PUSH32 0x6F6B656E73000000000000000000000000000000000000000000000000000000 PUSH1 0x20 DUP3 ADD MSTORE POP JUMP JUMPDEST PUSH1 0x0 PUSH2 0x14C7 PUSH1 0x25 DUP4 PUSH2 0xFA2 JUMP JUMPDEST SWAP2 POP PUSH2 0x14D2 DUP3 PUSH2 0x146B JUMP JUMPDEST PUSH1 0x40 DUP3 ADD SWAP1 POP SWAP2 SWAP1 POP JUMP JUMPDEST PUSH1 0x0 PUSH1 0x20 DUP3 ADD SWAP1 POP DUP2 DUP2 SUB PUSH1 0x0 DUP4 ADD MSTORE PUSH2 0x14F6 DUP2 PUSH2 0x14BA JUMP JUMPDEST SWAP1 POP SWAP2 SWAP1 POP JUMP JUMPDEST PUSH32 0x436865636B2074686520746F6B656E20616C6C6F77616E636500000000000000 PUSH1 0x0 DUP3 ADD MSTORE POP JUMP JUMPDEST PUSH1 0x0 PUSH2 0x1533 PUSH1 0x19 DUP4 PUSH2 0xFA2 JUMP JUMPDEST SWAP2 POP PUSH2 0x153E DUP3 PUSH2 0x14FD JUMP JUMPDEST PUSH1 0x20 DUP3 ADD SWAP1 POP SWAP2 SWAP1 POP JUMP JUMPDEST PUSH1 0x0 PUSH1 0x20 DUP3 ADD SWAP1 POP DUP2 DUP2 SUB PUSH1 0x0 DUP4 ADD MSTORE PUSH2 0x1562 DUP2 PUSH2 0x1526 JUMP JUMPDEST SWAP1 POP SWAP2 SWAP1 POP JUMP JUMPDEST PUSH32 0x45524332303A2064656372656173656420616C6C6F77616E63652062656C6F77 PUSH1 0x0 DUP3 ADD MSTORE PUSH32 0x207A65726F000000000000000000000000000000000000000000000000000000 PUSH1 0x20 DUP3 ADD MSTORE POP JUMP JUMPDEST PUSH1 0x0 PUSH2 0x15C5 PUSH1 0x25 DUP4 PUSH2 0xFA2 JUMP JUMPDEST SWAP2 POP PUSH2 0x15D0 DUP3 PUSH2 0x1569 JUMP JUMPDEST PUSH1 0x40 DUP3 ADD SWAP1 POP SWAP2 SWAP1 POP JUMP JUMPDEST PUSH1 0x0 PUSH1 0x20 DUP3 ADD SWAP1 POP DUP2 DUP2 SUB PUSH1 0x0 DUP4 ADD MSTORE PUSH2 0x15F4 DUP2 PUSH2 0x15B8 JUMP JUMPDEST SWAP1 POP SWAP2 SWAP1 POP JUMP JUMPDEST PUSH32 0x4F776E61626C653A206E6577206F776E657220697320746865207A65726F2061 PUSH1 0x0 DUP3 ADD MSTORE PUSH32 0x6464726573730000000000000000000000000000000000000000000000000000 PUSH1 0x20 DUP3 ADD MSTORE POP JUMP JUMPDEST PUSH1 0x0 PUSH2 0x1657 PUSH1 0x26 DUP4 PUSH2 0xFA2 JUMP JUMPDEST SWAP2 POP PUSH2 0x1662 DUP3 PUSH2 0x15FB JUMP JUMPDEST PUSH1 0x40 DUP3 ADD SWAP1 POP SWAP2 SWAP1 POP JUMP JUMPDEST PUSH1 0x0 PUSH1 0x20 DUP3 ADD SWAP1 POP DUP2 DUP2 SUB PUSH1 0x0 DUP4 ADD MSTORE PUSH2 0x1686 DUP2 PUSH2 0x164A JUMP JUMPDEST SWAP1 POP SWAP2 SWAP1 POP JUMP JUMPDEST PUSH32 0x45524332303A20617070726F76652066726F6D20746865207A65726F20616464 PUSH1 0x0 DUP3 ADD MSTORE PUSH32 0x7265737300000000000000000000000000000000000000000000000000000000 PUSH1 0x20 DUP3 ADD MSTORE POP JUMP JUMPDEST PUSH1 0x0 PUSH2 0x16E9 PUSH1 0x24 DUP4 PUSH2 0xFA2 JUMP JUMPDEST SWAP2 POP PUSH2 0x16F4 DUP3 PUSH2 0x168D JUMP JUMPDEST PUSH1 0x40 DUP3 ADD SWAP1 POP SWAP2 SWAP1 POP JUMP JUMPDEST PUSH1 0x0 PUSH1 0x20 DUP3 ADD SWAP1 POP DUP2 DUP2 SUB PUSH1 0x0 DUP4 ADD MSTORE PUSH2 0x1718 DUP2 PUSH2 0x16DC JUMP JUMPDEST SWAP1 POP SWAP2 SWAP1 POP JUMP JUMPDEST PUSH32 0x45524332303A20617070726F766520746F20746865207A65726F206164647265 PUSH1 0x0 DUP3 ADD MSTORE PUSH32 0x7373000000000000000000000000000000000000000000000000000000000000 PUSH1 0x20 DUP3 ADD MSTORE POP JUMP JUMPDEST PUSH1 0x0 PUSH2 0x177B PUSH1 0x22 DUP4 PUSH2 0xFA2 JUMP JUMPDEST SWAP2 POP PUSH2 0x1786 DUP3 PUSH2 0x171F JUMP JUMPDEST PUSH1 0x40 DUP3 ADD SWAP1 POP SWAP2 SWAP1 POP JUMP JUMPDEST PUSH1 0x0 PUSH1 0x20 DUP3 ADD SWAP1 POP DUP2 DUP2 SUB PUSH1 0x0 DUP4 ADD MSTORE PUSH2 0x17AA DUP2 PUSH2 0x176E JUMP JUMPDEST SWAP1 POP SWAP2 SWAP1 POP JUMP JUMPDEST PUSH32 0x45524332303A20696E73756666696369656E7420616C6C6F77616E6365000000 PUSH1 0x0 DUP3 ADD MSTORE POP JUMP JUMPDEST PUSH1 0x0 PUSH2 0x17E7 PUSH1 0x1D DUP4 PUSH2 0xFA2 JUMP JUMPDEST SWAP2 POP PUSH2 0x17F2 DUP3 PUSH2 0x17B1 JUMP JUMPDEST PUSH1 0x20 DUP3 ADD SWAP1 POP SWAP2 SWAP1 POP JUMP JUMPDEST PUSH1 0x0 PUSH1 0x20 DUP3 ADD SWAP1 POP DUP2 DUP2 SUB PUSH1 0x0 DUP4 ADD MSTORE PUSH2 0x1816 DUP2 PUSH2 0x17DA JUMP JUMPDEST SWAP1 POP SWAP2 SWAP1 POP JUMP JUMPDEST PUSH32 0x45524332303A207472616E736665722066726F6D20746865207A65726F206164 PUSH1 0x0 DUP3 ADD MSTORE PUSH32 0x6472657373000000000000000000000000000000000000000000000000000000 PUSH1 0x20 DUP3 ADD MSTORE POP JUMP JUMPDEST PUSH1 0x0 PUSH2 0x1879 PUSH1 0x25 DUP4 PUSH2 0xFA2 JUMP JUMPDEST SWAP2 POP PUSH2 0x1884 DUP3 PUSH2 0x181D JUMP JUMPDEST PUSH1 0x40 DUP3 ADD SWAP1 POP SWAP2 SWAP1 POP JUMP JUMPDEST PUSH1 0x0 PUSH1 0x20 DUP3 ADD SWAP1 POP DUP2 DUP2 SUB PUSH1 0x0 DUP4 ADD MSTORE PUSH2 0x18A8 DUP2 PUSH2 0x186C JUMP JUMPDEST SWAP1 POP SWAP2 SWAP1 POP JUMP JUMPDEST PUSH32 0x45524332303A207472616E7366657220746F20746865207A65726F2061646472 PUSH1 0x0 DUP3 ADD MSTORE PUSH32 0x6573730000000000000000000000000000000000000000000000000000000000 PUSH1 0x20 DUP3 ADD MSTORE POP JUMP JUMPDEST PUSH1 0x0 PUSH2 0x190B PUSH1 0x23 DUP4 PUSH2 0xFA2 JUMP JUMPDEST SWAP2 POP PUSH2 0x1916 DUP3 PUSH2 0x18AF JUMP JUMPDEST PUSH1 0x40 DUP3 ADD SWAP1 POP SWAP2 SWAP1 POP JUMP JUMPDEST PUSH1 0x0 PUSH1 0x20 DUP3 ADD SWAP1 POP DUP2 DUP2 SUB PUSH1 0x0 DUP4 ADD MSTORE PUSH2 0x193A DUP2 PUSH2 0x18FE JUMP JUMPDEST SWAP1 POP SWAP2 SWAP1 POP JUMP JUMPDEST PUSH32 0x45524332303A207472616E7366657220616D6F756E7420657863656564732062 PUSH1 0x0 DUP3 ADD MSTORE PUSH32 0x616C616E63650000000000000000000000000000000000000000000000000000 PUSH1 0x20 DUP3 ADD MSTORE POP JUMP JUMPDEST PUSH1 0x0 PUSH2 0x199D PUSH1 0x26 DUP4 PUSH2 0xFA2 JUMP JUMPDEST SWAP2 POP PUSH2 0x19A8 DUP3 PUSH2 0x1941 JUMP JUMPDEST PUSH1 0x40 DUP3 ADD SWAP1 POP SWAP2 SWAP1 POP JUMP JUMPDEST PUSH1 0x0 PUSH1 0x20 DUP3 ADD SWAP1 POP DUP2 DUP2 SUB PUSH1 0x0 DUP4 ADD MSTORE PUSH2 0x19CC DUP2 PUSH2 0x1990 JUMP JUMPDEST SWAP1 POP SWAP2 SWAP1 POP JUMP JUMPDEST PUSH32 0x4F776E61626C653A2063616C6C6572206973206E6F7420746865206F776E6572 PUSH1 0x0 DUP3 ADD MSTORE POP JUMP JUMPDEST PUSH1 0x0 PUSH2 0x1A09 PUSH1 0x20 DUP4 PUSH2 0xFA2 JUMP JUMPDEST SWAP2 POP PUSH2 0x1A14 DUP3 PUSH2 0x19D3 JUMP JUMPDEST PUSH1 0x20 DUP3 ADD SWAP1 POP SWAP2 SWAP1 POP JUMP JUMPDEST PUSH1 0x0 PUSH1 0x20 DUP3 ADD SWAP1 POP DUP2 DUP2 SUB PUSH1 0x0 DUP4 ADD MSTORE PUSH2 0x1A38 DUP2 PUSH2 0x19FC JUMP JUMPDEST SWAP1 POP SWAP2 SWAP1 POP JUMP INVALID LOG2 PUSH5 0x6970667358 0x22 SLT KECCAK256 0xA7 CREATE2 LOG0 SHR PUSH10 0xBADEF8B7E69B4E72634D PUSH25 0x966D86668107CF2BACBEE30D5646926F64736F6C6343000812 STOP CALLER "
				},
				"gasEstimates": {
					"creation": {
						"codeDepositCost": "1354600",
						"executionCost": "infinite",
						"totalCost": "infinite"
					},
					"external": {
						"allowance(address,address)": "infinite",
						"approve(address,uint256)": "infinite",
						"balanceOf(address)": "2864",
						"buyTokens(uint256)": "infinite",
						"decimals()": "366",
						"decreaseAllowance(address,uint256)": "infinite",
						"increaseAllowance(address,uint256)": "infinite",
						"name()": "infinite",
						"owner()": "2589",
						"renounceOwnership()": "30443",
						"sellTokens(uint256)": "infinite",
						"symbol()": "infinite",
						"totalSupply()": "2505",
						"transfer(address,uint256)": "infinite",
						"transferFrom(address,address,uint256)": "infinite",
						"transferOwnership(address)": "30832"
					}
				},
				"methodIdentifiers": {
					"allowance(address,address)": "dd62ed3e",
					"approve(address,uint256)": "095ea7b3",
					"balanceOf(address)": "70a08231",
					"buyTokens(uint256)": "3610724e",
					"decimals()": "313ce567",
					"decreaseAllowance(address,uint256)": "a457c2d7",
					"increaseAllowance(address,uint256)": "39509351",
					"name()": "06fdde03",
					"owner()": "8da5cb5b",
					"renounceOwnership()": "715018a6",
					"sellTokens(uint256)": "6c11bcd3",
					"symbol()": "95d89b41",
					"totalSupply()": "18160ddd",
					"transfer(address,uint256)": "a9059cbb",
					"transferFrom(address,address,uint256)": "23b872dd",
					"transferOwnership(address)": "f2fde38b"
				}
			},
			"storageLayout": {
				"storage": [
					{
						"astId": 244,
						"contract": "contracts/ERC20.sol:MyToken",
						"label": "_balances",
						"offset": 0,
						"slot": "0",
						"type": "t_mapping(t_address,t_uint256)"
					},
					{
						"astId": 250,
						"contract": "contracts/ERC20.sol:MyToken",
						"label": "_allowances",
						"offset": 0,
						"slot": "1",
						"type": "t_mapping(t_address,t_mapping(t_address,t_uint256))"
					},
					{
						"astId": 252,
						"contract": "contracts/ERC20.sol:MyToken",
						"label": "_totalSupply",
						"offset": 0,
						"slot": "2",
						"type": "t_uint256"
					},
					{
						"astId": 254,
						"contract": "contracts/ERC20.sol:MyToken",
						"label": "_name",
						"offset": 0,
						"slot": "3",
						"type": "t_string_storage"
					},
					{
						"astId": 256,
						"contract": "contracts/ERC20.sol:MyToken",
						"label": "_symbol",
						"offset": 0,
						"slot": "4",
						"type": "t_string_storage"
					},
					{
						"astId": 123,
						"contract": "contracts/ERC20.sol:MyToken",
						"label": "_owner",
						"offset": 0,
						"slot": "5",
						"type": "t_address"
					}
				],
				"types": {
					"t_address": {
						"encoding": "inplace",
						"label": "address",
						"numberOfBytes": "20"
					},
					"t_mapping(t_address,t_mapping(t_address,t_uint256))": {
						"encoding": "mapping",
						"key": "t_address",
						"label": "mapping(address => mapping(address => uint256))",
						"numberOfBytes": "32",
						"value": "t_mapping(t_address,t_uint256)"
					},
					"t_mapping(t_address,t_uint256)": {
						"encoding": "mapping",
						"key": "t_address",
						"label": "mapping(address => uint256)",
						"numberOfBytes": "32",
						"value": "t_uint256"
					},
					"t_string_storage": {
						"encoding": "bytes",
						"label": "string",
						"numberOfBytes": "32"
					},
					"t_uint256": {
						"encoding": "inplace",
						"label": "uint256",
						"numberOfBytes": "32"
					}
				}
			},
			"userdoc": {
				"kind": "user",
				"methods": {},
				"version": 1
			}
		}
	}
}